S01F00004D4543483435385F536F7274696E675F50726F6A6563742E73726563CC
S113000071C000000C940C0BCBC700000C94810849
S11300100C94DA0A87C0000085C0000083C0000089
S113002081C000007FC000000C94420B7BC0000024
S113003079C0000077C0000075C0000073C00000E4
S113004071C000006FC000006DC000006BC00000F4
S113005069C0000067C0000065C0000063C0000004
S113006061C000005FC000005DC000005BC0000014
S113007059C000000C94850A55C0000053C000000C
S11300800C949C094FC000004DC000004BC0000000
S113009049C0000047C0000045C0000043C0000044
S11300A041C000003FC00000B1C500003BC00000DB
S11300B039C0000037C0000035C000007DC4000016
S11300C031C000002FC000002DC000002BC0000074
S11300D029C0000027C0000025C0000023C0000084
S11300E021C0000011241FBECFEFD1E2DEBFCDBF7F
S11300F000E00CBF12E0A0E0B2E0E2E6F7E100E0CD
S11301000BBF02C007900D92A233B107D9F723E0C9
S1130110A2E3B2E001C01D92A132B207E1F79AD680
S11301200C94AF0B8AC587B1807F87B988B1806290
S113013088B988B18F7B88B982E08A95F1F700C0CD
S113014088B1806888B992E09A95F1F700C086B1C9
S11301508295807F92E09A95F1F700C098B19F77DD
S113016098B995E09A95F1F7000098B1906898B91C
S113017092E09A95F1F700C096B1807892E09A9552
S1130180F1F700C098B19F7798B995E09A95F1F787
S113019000008111D5CF88B18F7D88B987B18F6078
S11301A087B90895282F22952F708F70611104C08C
S11301B098B19F7B98B903C098B1906498B992E0C4
S11301C09A95F1F700C098B1906898B998B1907F6A
S11301D0922B98B995E09A95F1F7000098B19F7722
S11301E098B995E09A95F1F7000098B1906898B99C
S11301F098B1907F892B88B985E08A95F1F7000042
S113020088B18F7788B995E09A95F1F700008BCF84
S11302100895CF93C82F2FEF86E791E021508040B7
S11302209040E1F700C0000087B18F6087B987B1C3
S1130230806887B987B1806487B987B1806287B9DC
S113024088B1807F88B988B18F7788B988B18F7D6C
S113025088B988B18F7B88B900C000C0000088B11C
S1130260806888B988B1826088B925E02A95F1F759
S1130270000088B18F7788B985E08A95F1F700008E
S113028052DF60E08C2F8C608DDF60E088E28ADFD3
S1130290CF910895CF93DF93EC0103C061E082DF37
S11302A0219688818111FACFDF91CF910895EF9241
S11302B0FF920F931F93CF93DF9300D01F921F924F
S11302C0CDB7DEB77B01FE01319625E0DF011D923B
S11302D02A95E9F724E030E00FC06AE070E00E945C
S11302E0790BE1E0F0E0EC0FFD1FE20FF31F8083D8
S11302F0862F972F21503109009779F7BFEFEB161E
S1130300FB0681F403C00F5F1F4F02C000E010E042
S1130310E1E0F0E0EC0FFD1FE00FF11F208122234C
S113032091F304C005E010E00E191F09992384F429
S113033061E08DE237DF0CC0E1E0F0E0EC0FFD1F7F
S1130340E00FF11F808161E0805D2CDF0F5F1F4FA4
S1130350053011058CF30F900F900F900F900F90B4
S1130360DF91CF911F910F91FF90EF900895883204
S113037028F46111806460E0806814CF089590913E
S1130380320280911102890F8093320280913202ED
S113039084301CF01092320207C08091320288230C
S11303A01CF483E080933202E09132020E2E000CA2
S11303B0FF0BEF5FFD4F808182B980911202909113
S11303C01102890F8093120280911202893C50F02D
S11303D080911102813031F480911202885C809303
S11303E012020DC080911202823348F480911102EE
S11303F08F3F29F480911202885380931202109245
S113040095001092940081E0089580914E0290919D
S11304104F02892B61F4809133029091340281154B
S11304209A4009F073C01092110281E008958091FE
S11304304E0290914F028737910524F08FEF8093FD
S1130440000246C080914E0290914F028A389F4F1D
S113045024F481E0809300023BC080914E0290918D
S11304604F0299231CF49195819591098637910542
S1130470DCF480914E0290914F0299231CF49195E3
S113048081959109833591057CF0109254028091F5
S11304901102882329F0809111028093000218C070
S11304A081E080931102089520914E0230914F0211
S11304B081E0121613060CF080E020914E02309178
S11304C04F02932F991F9927991F891B809300022C
S11304D0809133029091340281159A4030F08091DA
S11304E000028093110281E00895909100028091AE
S11304F01102981306C0809100028093110281E0DA
S1130500089581E08093540280E0089580E0089586
S113051080915202882309F46AC080913302909139
S11305203402885A9240969587952091050240910D
S1130530360230E0241B3109289FA001299F500D69
S1130540389F500D112480911202E0915002F0E086
S1130550E454FD4F208190E0821B91099C0122F418
S113056022273327281B390B86E190E0821B930B4B
S1130570209105026091360230E0261B3109821B6E
S1130580930B68EA72E0869F9001879F300D969FD7
S1130590300D1124420F531F5093450240934402DF
S11305A020913302309134028091090290910A0221
S11305B0821B930B90930A028093090220914402B8
S11305C0309145028091090290910A022817390757
S11305D020F481E0809354020AC088EA98E790935B
S11305E00A028093090210925402109252028091DE
S11305F0050290E020914E0230914F0233231CF407
S11306003195219531098217930724F08091560280
S1130610882321F080915402882381F1E0913602ED
S1130620F0E0EE0FFF1FE75AFD4F208131818091EA
S1130630330290913402820F931F9093340280937B
S11306403302809133029091340281309A4058F001
S113065080E09AE090933402809333021092360241
S11306601092540244C080913602882309F43FC09A
S11306708091360281508093360239C080913302D2
S113068090913402893A9240E0F180913302909142
S11306903402E0913602F0E0EE0FFF1FE75AFD4FFF
S11306A020813181821B930B909334028093330217
S11306B08091330290913402893A924038F08091CB
S11306C033029091340281309A4030F088EA92E00B
S11306D09093340280933302909136028091050204
S11306E0981728F4809136028F5F809336028091A8
S11306F0330290913402909399008093980081E0A2
S1130700089580E00895109236021092350280E038
S11307109AE090933402809333020895E1E9F0E083
S11307208081886080838FEF9FEF909399008093FE
S113073098001092950010929400E1E7F0E0808117
S1130740826080830895109295001092940020E0B6
S11307503AE03093990020939800E1E9F0E0808139
S11307608360808388B3826088BB30933402209393
S113077033020895E1E9F0E080818D7F80838081F8
S11307808E7F8083089510925A021092590220E0BD
S11307903AE081E090E024C0FC013197EE0FFF1FA6
S11307A0E75AFD4F40815181241B350B4081518113
S11307B0485C5F4FFC01EE0FFF1FE75AFD4F51836A
S11307C0408340815181413E510548F0FC01EE0FC8
S11307D0FF1FE75AFD4F40EE50E0518340830196DE
S11307E084309105C8F2FC01EE0FFF1FE75AFD4F5C
S11307F040EE50E0518340831AC0FC013197EE0F64
S1130800FF1FE75AFD4F40815181241B350B283AC5
S113081042E0340710F428EA32E00196FC01EE0FBE
S1130820FF1FE75AFD4F40EE50E051834083A9017A
S1130830405A5240493A524000F72AC0AC014F5F37
S11308405F4FFC01EE0FFF1FE75AFD4F608171817E
S1130850261B370B608171816833710548F4FA01F6
S1130860EE0FFF1FE75AFD4F11821082CA0114C018
S1130870880F991FFC01E75AFD4F80819181C89729
S1130880FA01EE0FFF1FE75AFD4F91838083CA01DF
S1130890293A42E0340790F680930502089573DF05
S11308A080E09AE0909334028093330210925802CD
S11308B01092120282E38093BD0245DF11C0809141
S11308C04E0290914F0299231CF4919581959109C0
S11308D0449734F480915802811102C0109212029C
S11308E080915802882359F382E38093BD0281E00A
S11308F0089585B1807885B985B18B6085B916BCBA
S113090086EE87BD81E080935502109225011092F6
S1130910240180915502089585B1807885B985B107
S11309208B6085B916BC84EB87BD81E0809355024A
S113093080915502089585B1807885B985B18F601D
S113094085B91092550280915502089515B81092F8
S1130950550280915502089584B5836884BD85B598
S1130960826085BD85B3826085BB17BCEFCF0895D7
S1130970E1E2F1E080818860808380E891E09093F7
S11309802901809328011092250110922401A3E7E4
S1130990B0E08C9182608C938081856080838AB37F
S11309A082608ABB84EB809306020895E1E2F1E061
S11309B080818A7F808308951F920F920FB60F92D1
S11309C011240BB60F922F933F934F935F936F9322
S11309D07F938F939F93AF93BF93EF93FF938091F4
S11309E0060281508093060281E090E090932901F1
S11309F08093280180910602863920F486E9809349
S1130A000602D4DF16BC8091060287BDFF91EF91E8
S1130A10BF91AF919F918F917F916F915F914F9112
S1130A203F912F910F900BBE0F900FBE0F901F9010
S1130A301895ECE7F0E08081806480838081816098
S1130A408083EAE7F0E08081806880838081886029
S1130A5080838081836080830895863B23E09207AE
S1130A6038F080913D028F5F80933D0282E30895C8
S1130A70803223E0920738F080913C028F5F8093AC
S1130A803C0286E908958039914038F080913B0218
S1130A908F5F80933B0288EC089580913A028F5FC8
S1130AA080933A0284E6089521E030E0082E02C0E3
S1130AB0220F331F0A94E2F72093370201C0660F16
S1130AC08A95EAF71092390210923802109239028C
S1130AD0109238020FC099B18091370289236813AC
S1130AE014C0809138029091390201969093390292
S1130AF080933802842F90E020913802309139029B
S1130B002817390740F381E0089580E0089521E033
S1130B1030E0082E02C0220F331F0A94E2F720931C
S1130B20370201C0660F8A95EAF7109239021092D3
S1130B303802109239021092380210C090910301C9
S1130B40809137028923681314C0809138029091F0
S1130B50390201969093390280933802842F90E0F1
S1130B6020913802309139022817390738F381E08F
S1130B70089580E00895E1E8F0E080818260808358
S1130B8080818860808388EE93E0909389008093CD
S1130B9088000895109285001092840026B3226084
S1130BA026BB20E030E007C0B19B05C046B34260DD
S1130BB046BB2F5F3F4F28173907B4F30895E1EA86
S1130BC0F0E080818860808387E090E09093A900C2
S1130BD08093A8001092A5001092A400A2E7B0E0B0
S1130BE08C9182608C9380818560808389B38260DC
S1130BF089BB0895E1EAF0E080818A7F80830895CB
S1130C00E1EAF0E080818560808308951F920F926D
S1130C100FB60F9211248F939F9380914A02909163
S1130C204B02019690934B0280934A029F918F91BD
S1130C300F900FBE0F901F9018951F920F920FB632
S1130C400F9211248F938FEF88B98F910F900FBE5D
S1130C500F901F90189560E081E0A4DA60E080E0D6
S1130C6086DB80913D0262E070E090E020DB85E16C
S1130C7092E010DB80913A0262E070E090E017DBD2
S1130C8085E192E007DB80913C0262E070E090E055
S1130C900EDB85E192E0FEDA80913B0262E070E0D7
S1130CA090E005DB87E192E0F5DA8091500262E0A2
S1130CB070E090E0FCDA61E080E059DB8AE192E0E8
S1130CC0E9DA20914A0230914B0236952795369500
S1130CD0279536952795A5ECB0E21ED562E070E025
S1130CE0929582958F7089279F708927E0DA8DE12C
S1130CF092E0D0DA40914A0250914B029A01ADEC55
S1130D00BCEC0AD596958795969587959695879583
S1130D109C01220F331F880F991F880F991F880F7A
S1130D20991F820F931F61E070E09A01281B390B11
S1130D30C901BDDA8FE192E0ADCA089560E081E0B7
S1130D4031DA60E080E013DB8091500262E070E011
S1130D5090E0ADDA60E082E00ADB8AE292E09ADABF
S1130D6060E083E004DB8091510262E070E090E097
S1130D709EDA60E085E0FBDA8CE292E08BDA60E0F8
S1130D8086E0F5DA80913D0261E070E090E08FDA70
S1130D9060E087E0ECDA80913A0261E070E090E094
S1130DA086DA60E088E0E3DA80913C0261E070E09A
S1130DB090E07DDA60E089E0DADA80913B0261E07C
S1130DC070E090E074DA60E08AE0D1DA8EE292E0DA
S1130DD061DA60E08CE0CBDA80E392E05BDA60E039
S1130DE08DE0C5DA20914A0230914B023695279561
S1130DF036952795ABE7B4E18FD463E070E0969520
S1130E00879555DA61E080E0B2DA80911202909120
S1130E10130263E070E04BDA61E083E0A8DA88E172
S1130E2092E038DA61E084E0A2DAE0915002F0E086
S1130E30E354FD4F808163E070E090E038DA61E0D4
S1130E408CE095DA80910B0290910C0264E070E0E2
S1130E502ECA0895E1E6F0E080E8808381E0808393
S1130E60F8948FEF81B984B987B91AB8E4E0F1E056
S1130E7080818E7F8083E9E6F0E0808182608083D8
S1130E8080818C6080838081806280838081806C9B
S1130E908083E8E6F0E0808182608083ECE6F0E025
S1130EA0808182608083C5DD66DE38DC83E0B1D971
S1130EB060E081E077D98DB388608DBB7894EFDCF6
S1130EC080ED97E067DE8DB387608DBB8DB3877F40
S1130ED08DBB42DD10925102109250020ADD6FDE8A
S1130EE0809114028823B9F180914A0290914B02B7
S1130EF02091480230914902821B930B853691055B
S1130F0048F01CDF80914A0290914B029093490271
S1130F108093480280915702882311F390915002E4
S1130F2080915102981749F080914A0290914B02A6
S1130F309093470280934602D3CF80914A029091C6
S1130F404B022091460230914702821B930B813A57
S1130F509F4030F220C0EFDC0DDC4CDECDB381E0ED
S1130F608DBBECE6F0E080818D7F8083489BFECFD3
S1130F70EDDCC9DBE3DE809114028823E1F3489BB6
S1130F80FECFCDBBECE6F0E080818260808338DE6A
S1130F90DADB36DEA5CFF89415B812B85CDEFFCFE5
S1130FA01F920F920FB60F9211240BB60F922F932C
S1130FB03F934F935F936F937F938F939F93AF93DD
S1130FC0BF93CF93DF93EF93FF9380911302882312
S1130FD069F14CE361E081E067DD882309F479C0BD
S1130FE0109213028DB38D7F8DBBE9E6F0E0808112
S1130FF08B7F80838DB382608DBB10924D021092E3
S11310004C028FEF93E09093100280930F02EAE773
S1131010F0E0808180648083ABDC80914A0290910F
S11310204B02909341028093400253C04CE360E032
S113103081E03ADD882309F44CC080914A02909102
S11310404B022091400230914102821B930B069780
S113105008F43FC081E0809313028DB38D7F8DBB74
S1131060E9E6F0E08081846080838DB382608DBB8B
S113107080910F029091100290930C0280930B02C6
S113108080910F0290911002823F934010F580915D
S11310904C0290914D02C397E0F0C0915102D0E010
S11310A080910F0290911002D8DCC354DD4F8883E5
S11310B0E0915102F0E0A0915102B0E0A354BD4F81
S11310C08C91E254FD4F8083809151028F5F809315
S11310D051028CB382608CBBFF91EF91DF91CF9171
S11310E0BF91AF919F918F917F916F915F914F913C
S11310F03F912F910F900BBE0F900FBE0F901F903A
S113110018951F920F920FB60F9211240BB60F92DF
S11311102F933F934F935F936F937F938F939F93FB
S1131120AF93BF93EF93FF9380915602811163C0F5
S11311304CE360E082E0B8DC882309F4E7C081E096
S1131140809356028DB38B7F8DBBE9E6F0E08081FE
S1131150806180838DB384608DBB809133029091D4
S11311603402885A924096958795209105024091C1
S1131170360230E0241B3109289FA001299F500D1D
S1131180389F500D112480914E0290914F02992363
S11311901CF49195819591094697209105026091DF
S11311A0360230E0261B3109821B930B68EA72E099
S11311B0869F9001879F300D969F300D1124C901A1
S11311C0840F951F90934302809342022091420220
S11311D0309143028091070290910802821793078D
S11311E008F4A9DB80914A0290914B0290933F024C
S11311F080933E028BC04CE361E082E055DC88239F
S113120009F484C080914A0290914B0220913E02DD
S113121030913F02821B930B069708F477C010921B
S113122056028DB38B7F8DBBE9E6F0E080818F7E23
S113123080838DB384608DBB909150028091510264
S1131240981728F4809150028F5F80935002809108
S1131250330290913402885A924096958795209152
S113126005024091360230E0241B3109289FA00179
S1131270299F500D389F500D112480911202E09146
S11312805002F0E0E454FD4F208190E0821B91096C
S11312909C0122F422273327281B390B86E190E096
S11312A0821B930B209105026091360230E0261BCD
S11312B03109821B930B68EA72E0869F9001879F35
S11312C0300D969F300D1124420F531F5093450249
S11312D040934402209144023091450280910902D6
S11312E090910A022817390718F481E0809352027A
S11312F080914E0290914F0299231CF4919581950F
S1131300910947971CF081E0809353028CB3846069
S11313108CBBFF91EF91BF91AF919F918F917F9182
S11313206F915F914F913F912F910F900BBE0F9052
S11313300FBE0F901F9018951F920F920FB60F9229
S113134011240BB60F922F933F934F935F936F9398
S11313507F938F939F93AF93BF93EF93FF930FD894
S113136080915302811110C0E0915002F0E0E354E7
S1131370FD4F80812091120290E0821B910990938D
S11313804F0280934E021CC0E0915002F0E0E454FE
S1131390FD4F80812091120290E0821B910990936D
S11313A04F0280934E0280914E0290914F029923F6
S11313B01CF4919581959109469714F41092530267
S11313C080914E0290914F0299231CF4919581953E
S11313D09109853691055CF080914E0290914F02FF
S11313E0885C910990934F0280934E0211C08091C2
S11313F04E0290914F028C399F4F54F480914E02CB
S113140090914F0288539F4F90934F0280934E02C6
S11314100E9405027DD880915502811154C08091AB
S11314204E0290914F0299231CF491958195910954
S113143047970CF446C08091330290913402885A45
S1131440924096958795209105024091360230E0AE
S1131450241B3109289FA001299F500D389F500D4E
S1131460112480914E0290914F0299231CF491957E
S1131470819591094697209105026091360230E0EA
S1131480261B3109821B930B68EA72E0869F900148
S1131490879F300D969F300D1124C901840F951F2D
S11314A0909343028093420220914202309143027E
S11314B080910702909108022817390798F42CDAD2
S11314C011C02ADA0FC080914E0290914F029923E5
S11314D01CF4919581959109479724F080915602C7
S11314E0811129DAFF91EF91BF91AF919F918F9173
S11314F07F916F915F914F913F912F910F900BBE10
S11315000F900FBE0F901F9018951F920F920FB659
S11315100F9211240BB60F922F933F938F939F93A7
S1131520EF93FF938091780090E090930E02809364
S11315300D028091790090E0982F882720910D0268
S113154030910E02820F931F90930E0280930D022E
S113155080914C0290914D02019690934D0280939C
S11315604C0220910D0230910E0280910F02909155
S113157010022817390740F480910D0290910E0251
S11315809093100280930F0280911302811105C081
S1131590EAE7F0E0808180648083FF91EF919F917E
S11315A08F913F912F910F900BBE0F900FBE0F9014
S11315B01F9018951F920F920FB60F9211240BB61D
S11315C00F922F933F934F935F936F937F938F93D8
S11315D09F93AF93BF93EF93FF934CE361E083E05A
S11315E063DA882331F082E38093120281E08093EE
S11315F05802FF91EF91BF91AF919F918F917F918D
S11316006F915F914F913F912F910F900BBE0F906F
S11316100FBE0F901F9018951F920F920FB60F9246
S113162011240BB60F922F933F934F935F936F93B5
S11316307F938F939F93AF93BF93EF93FF934AEF5F
S113164060E080E031DA882351F08091140288232D
S113165019F01092140203C081E080931402FF91E8
S1131660EF91BF91AF919F918F917F916F915F9116
S11316704F913F912F910F900BBE0F900FBE0F9083
S11316801F9018951F920F920FB60F9211240BB64C
S11316900F922F933F934F935F936F937F938F9307
S11316A09F93AF93BF93EF93FF934AEF61E080E082
S11316B02EDA882359F081E08093570280914A0200
S11316C090914B029093470280934602FF91EF91D1
S11316D0BF91AF919F918F917F916F915F914F9146
S11316E03F912F910F900BBE0F900FBE0F901F9044
S11316F0189597FB072E16F4009406D077FD08D0B2
S11317001AD007FC05D03EF4909581959F4F08951B
S1131710709561957F4F0895A29FB001B39FC0015A
S1131720A39F700D811D1124911DB29F700D811D09
S11317301124911D0895AA1BBB1B51E107C0AA1FC8
S1131740BB1FA617B70710F0A61BB70B881F991F5E
S11317505A95A9F780959095BC01CD010895F89408
S1051760FFCFB5
S113176201D8B8B4D432B40050A878FF03FF03FF01
S113177203013201012C002D3E00543D002E007362
S113178220436F6D706C657465002F00280029007A
S10517925400FD
S9030000FC
