S01F00004D4543483435385F536F7274696E675F50726F6A6563742E73726563CC
S113000071C000000C94B00B0C9448090C94FA09CC
S11300100C947D0B88C0000086C0000084C00000E2
S113002082C0000080C000000C94E70B7CC000007C
S11300307AC0000078C0000076C0000074C00000E0
S113004072C0000070C000006EC000006CC00000F0
S11300506AC0000068C0000066C0000064C0000000
S113006062C0000060C000005EC000005CC0000010
S11300705AC000000C94280B56C0000054C0000065
S11300800C94B20A50C000004EC000004CC00000E6
S11300904AC0000048C0000046C0000044C0000040
S11300A042C0000040C0000036C700003CC0000051
S11300B03AC0000038C0000036C0000019C6000075
S11300C032C0000030C000002EC000002CC0000070
S11300D02AC0000028C0000026C0000024C0000080
S11300E022C0000011241FBECFEFD1E2DEBFCDBF7E
S11300F000E00CBF12E0A0E0B2E0EEEAF8E100E0BC
S11301000BBF02C007900D92A034B107D9F723E0CA
S1130110A0E4B2E001C01D92A733B207E1F70E9448
S1130120AE080C94550C0EC787B1807F87B988B18F
S1130130806288B988B18F7B88B982E08A95F1F7AB
S113014000C088B1806888B992E09A95F1F700C040
S113015086B18295807F92E09A95F1F700C098B1BC
S11301609F7798B995E09A95F1F7000098B1906857
S113017098B992E09A95F1F700C096B1807892E030
S11301809A95F1F700C098B19F7798B995E09A9540
S1130190F1F700008111D5CF88B18F7D88B987B17F
S11301A08F6087B90895282F22952F708F70611161
S11301B004C098B19F7B98B903C098B1906498B972
S11301C092E09A95F1F700C098B1906898B998B107
S11301D0907F922B98B995E09A95F1F7000098B129
S11301E09F7798B995E09A95F1F7000098B19068D7
S11301F098B998B1907F892B88B985E08A95F1F7F1
S1130200000088B18F7788B995E09A95F1F70000DE
S11302108BCF0895CF93DF93EC0103C061E0C3DF7C
S1130220219688818111FACFDF91CF910895EF92C1
S1130230FF920F931F93CF93DF9300D01F921F92CF
S1130240CDB7DEB77B01FE01319625E0DF011D92BB
S11302502A95E9F724E030E00FC06AE070E00E94DC
S11302601F0CE1E0F0E0EC0FFD1FE20FF31F8083B1
S1130270862F972F21503109009779F7BFEFEB169E
S1130280FB0681F403C00F5F1F4F02C000E010E0C3
S1130290E1E0F0E0EC0FFD1FE00FF11F20812223CD
S11302A091F304C005E010E00E191F09992384F4AA
S11302B061E08DE278DF0CC0E1E0F0E0EC0FFD1FBF
S11302C0E00FF11F808161E0805D6DDF0F5F1F4FE4
S11302D0053011058CF30F900F900F900F900F9035
S11302E0DF91CF911F910F91FF90EF900895883285
S11302F028F46111806460E0806855CF089590917E
S1130300400280910602890F80934002809140024E
S113031084301CF01092400207C080914002882370
S11303201CF483E080934002E09140020E2E000C06
S1130330FF0BE050FE4F808182B9809104029091BE
S11303400602890F8093040280910402823E50F0D9
S113035080910602813031F480910402885C80939C
S113036004020DC080910402893148F48091060290
S11303708F3F29F4809104028853809304021092E1
S113038095001092940081E0089580916902882379
S113039081F1809141029091420299231CF491953C
S11303A0819591090F97ACF410926902109267023B
S11303B07DD4E0916302F0E0ED52FD4F8081209105
S11303C0040290E0821B91099093420280934102BF
S11303D01FC0E0916302F0E0EE52FD4F8081209156
S11303E0040290E0821B910990934202809341029F
S11303F00FC0E0916302F0E0ED52FD4F8081209147
S1130400040290E0821B910990934202809341027E
S11304108091410290914202853691055CF0809171
S1130420410290914202885C910990934202809328
S1130430410211C080914102909142028C399F4F38
S113044054F4809141029091420288539F4F9093BB
S113045042028093410220914102309142023323AF
S11304601CF43195219531098091070290E02817F9
S1130470390744F480916602811104C081E08093BD
S1130480680202C01092680281E0089580914102DE
S113049090914202892B91F48091430290914402FD
S11304A08130974030F0109206021092680281E089
S11304B0089581E080936A0280E00895809141026A
S11304C09091420299231CF49195819591098B3561
S11304D09105B4F0809143029091440281159A40B1
S11304E078F410926A0280910602882329F08091A0
S11304F006028093050218C081E0809306020895E5
S1130500209141023091420281E0121613060CF050
S113051080E02091410230914202932F991F992744
S1130520991F891B80930502909105028091060210
S1130530981306C0809105028093060281E0089515
S1130540809143029091440281159A4030F0809149
S113055005028093060281E0089581E080936A0297
S113056080E00895109246021092450280E09AE0DD
S1130570909344028093430208958091060281116E
S113058002C0F0DF7EC080916802811108C08091B2
S11305906A02811104C0809167028823C9F1E09145
S11305A04602F0E0EE0FFF1FE159FD4F208131813B
S11305B08091430290914402820F931F90934402CE
S11305C080934302809143029091440281309A4087
S11305D0A0F01092460280916702882329F080914E
S11305E04C02833008F44DC080E09AE090934402BA
S11305F08093430210926A0244C080914602882389
S113060009F43FC08091460281508093460239C06C
S1130610809143029091440281309340E0F18091B3
S1130620430290914402E0914602F0E0EE0FFF1F76
S1130630E159FD4F20813181821B930B9093440239
S1130640809343028091430290914402813093400D
S113065038F0809143029091440281309A4030F006
S113066080E093E090934402809343029091460289
S113067080910702981728F4809146028F5F809337
S11306804602809143029091440290939900809392
S1130690980081E0089580E00895E1E9F0E0808128
S11306A0886080838FEF9FEF9093990080939800E8
S11306B01092950010929400E1E7F0E0808182604E
S11306C080830895109295001092940020E03AE0FF
S11306D03093990020939800E1E9F0E080818360F1
S11306E0808388B3826088BB3093440220934302A2
S11306F00895E1E9F0E080818D7F808380818E7FA1
S1130700808308951092700210926F0220E03AE004
S113071081E090E024C0FC013197EE0FFF1FE15906
S1130720FD4F40815181241B350B40815181485D2F
S11307305F4FFC01EE0FFF1FE159FD4F51834083D2
S113074040815181413A510548F0FC01EE0FFF1FF1
S1130750E159FD4F40EA50E05183408301968430D3
S11307609105C8F2FC01EE0FFF1FE159FD4F40EA6D
S113077050E0518340831AC0FC013197EE0FFF1FF4
S1130780E159FD4F40815181241B350B211543E074
S1130790340710F420E033E00196FC01EE0FFF1F54
S11307A0E159FD4F40EA50E051834083A901405E86
S11307B051404130534000F72AC0AC014F5F5F4FB6
S11307C0FC01EE0FFF1FE159FD4F60817181261B73
S11307D0370B608171816832710548F4FA01EE0FBC
S11307E0FF1FE159FD4F11821082CA0114C0880F06
S11307F0991FFC01E159FD4F808191818897FA018D
S1130800EE0FFF1FE159FD4F91838083CA01213010
S113081043E0340790F680930702089573DF80E085
S11308209AE0909344028093430210926E021092D5
S1130830040282E38093D30245DF03C081E0809306
S11308406A028091410290914202892BB9F7109279
S11308506E021092040211C08091410290914202F2
S113086099231CF49195819591094E9734F48091C4
S11308706E02811102C01092040280916E028823DC
S113088059F382E38093D30281E008958091690251
S11308908111BCC080910402E0916302F0E0EE5249
S11308A0FD4F208190E0821B91099C0122F42227B4
S11308B03327281B390B8FE0821B80934C028091D5
S11308C0070290914602891B80934B0240910602D5
S11308D020914102309142024203C001439F900D96
S11308E011241816190644F0809143029091440291
S11308F081159A4008F43FC090914C028091070200
S1130900981798F4809143029091440293509695DD
S1130910879540914C02489F9001499F300D1124C6
S1130920309352022093510264C08091430290910B
S1130930440293509695879540914B02489F9001AD
S1130940499F300D112480914C024091070290E0A0
S1130950841B910960E073E0869FA001879F500D7E
S1130960969F500D1124CA01820F931F9093520237
S1130970809351023EC0209143023091440280E0B2
S11309809AE0821B930B9695879540910702489FA6
S11309909001499F300D112490910702892F90E016
S11309A0AC015695542F442757954795982F88277F
S11309B0990F990F841B950B820F931F20914C0262
S11309C04091070230914B0250E0431B510930E043
S11309D0241B350B60E073E0269FA001279F500D78
S11309E0369F500D1124840F951F909352028093CB
S11309F05102209151023091520280910A02909149
S1130A000B022817390720F481E0089580E0089547
S1130A1080E00895809141029091420299231CF450
S1130A209195819591090F970CF4D9C08091410259
S1130A309091420299231CF49195819591098F50CC
S1130A4080934A028091070290914602891B809309
S1130A504B0280914A02893208F0C3C040910602D9
S1130A6020914102309142024203C001439F900D04
S1130A7011241816190644F08091430290914402FF
S1130A8081159A4008F44EC090914B0280914A021D
S1130A90891798F48091430290914402935096955B
S1130AA0879540914B02489F9001499F300D112436
S1130AB03093500220934F0285C080914A022091C6
S1130AC04B0290E0821B91099093500280934F0255
S1130AD040914F025091500220E033E0429FC00108
S1130AE0439F900D529F900D112490935002809338
S1130AF04F028091430290914402935096958795BA
S1130B0040914B02489F9001499F300D11248091E0
S1130B104F0290915002820F931F90935002809342
S1130B204F0250C080914A0220914B0290E0821BF8
S1130B3091099093500280934F0240914F0250913B
S1130B40500220E033E0429FC001439F900D529F2A
S1130B50900D11249093500280934F0220914302F0
S1130B603091440280E09AE0821B930B969587951E
S1130B7040910702489F9001499F300D11248091B4
S1130B804F0290915002820F931F909350028093D2
S1130B904F028091070290E09C013695322F222764
S1130BA037952795982F8827990F990F821B930BB8
S1130BB020914F0230915002820F931F9093500264
S1130BC080934F0220914F0230915002809108028D
S1130BD0909109028217930730F481E0089580E030
S1130BE0089581E0089580E0089585B1807885B9FD
S1130BF085B18F6085B910926B0280916B02089564
S1130C0015B810926B0280916B02089584B58368C5
S1130C1084BD85B5826085BD85B3826085BB17BC04
S1130C20EFCF0895E1E2F1E080818860808380EF76
S1130C3090E090932901809328011092250110924D
S1130C402401A3E7B0E08C9182608C93808185605D
S1130C5080838AB382608ABB8AEA80930C020895F7
S1130C6085B1807885B985B18B6085B916BC8CED6A
S1130C7087BD80916B02811112C081E080936B0269
S1130C80D1DF80E094E29093290180932801809140
S1130C905F029091600290934E0280934D021092F5
S1130CA025011092240180916B02089585B180780A
S1130CB085B985B18B6085B916BC8AEA87BD8091F8
S1130CC06B0281110CC0AEDF81E080936B028091D6
S1130CD05F029091600290934E0280934D02809146
S1130CE06B020895E1E2F1E080818A7F80830895B8
S1130CF01F920F920FB60F9211240BB60F922F93DF
S1130D003F934F935F936F937F938F939F93AF938F
S1130D10BF93EF93FF9380910C02825080930C0257
S1130D2083E090E0909329018093280180910C0244
S1130D308E3630F48EE680930C0210926B02D2DF72
S1130D4016BC80910C0287BDFF91EF91BF91AF91CA
S1130D509F918F917F916F915F914F913F912F91CF
S1130D600F900BBE0F900FBE0F901F901895ECE7DD
S1130D70F0E0808180648083808181608083EAE701
S1130D80F0E08081806880838081886080838081B6
S1130D90836080830895803C23E0920738F080913B
S1130DA056028F5F8093560282E30895803223E0D7
S1130DB0920738F0809155028F5F8093550286E93F
S1130DC008958C32914038F0809154028F5F809363
S1130DD0540288EC0895809153028F5F80935302EC
S1130DE084E6089521E030E0082E02C0220F331F6C
S1130DF00A94E2F72093470201C0660F8A95EAF746
S1130E00109249021092480210924902109248022C
S1130E100FC099B1809147028923681312C0809151
S1130E2048029091490201969093490280934802A6
S1130E3080914802909149028417950750F381E00C
S1130E40089580E0089521E030E0082E02C0220FCA
S1130E50331F0A94E2F72093470201C0660F8A9574
S1130E60EAF7109249021092480210924902109235
S1130E70480210C0909103018091470289236813AE
S1130E8012C08091480290914902019690934902C0
S1130E9080934802809148029091490284179507F3
S1130EA048F381E0089580E00895E1E8F0E080816E
S1130EB08260808380818860808388EE93E0909351
S1130EC08900809388000895E1EAF0E080818860D9
S1130ED0808387E090E09093A9008093A80010920B
S1130EE0A5001092A400A2E7B0E08C9182608C93DC
S1130EF080818560808389B3826089BB0895E1EA3B
S1130F00F0E080818A7F80830895E1EAF0E08081C7
S1130F108560808308951F920F920FB60F9211245B
S1130F208F939F9380915F029091600201969093BA
S1130F30600280935F029F918F910F900FBE0F907C
S1130F401F9018951F920F920FB60F9211248F9332
S1130F508FEF88B98F910F900FBE0F901F90189547
S1130F6060E081E020D960E080E0C1D98091560240
S1130F7062E070E090E05BD985E192E04BD980912A
S1130F80530262E070E090E052D985E192E042D9E8
S1130F908091550262E070E090E049D985E192E0E9
S1130FA039D98091540262E070E090E040D987E141
S1130FB092E030D98091630262E070E090E037D92A
S1130FC061E080E094D98AE192E024D920915F0223
S1130FD03091600236952795369527953695279555
S1130FE0A5ECB0E23FD462E070E0929582958F70F8
S1130FF089279F7089271BD98DE192E00BD94091F5
S11310005F02509160029A01ADECBCEC2BD4969532
S1131010879596958795969587959C01220F331F02
S1131020880F991F880F991F880F991F820F931F8C
S113103061E070E09A01281B390BC901F8D88FE1EF
S113104092E0E8C8089560E081E0ADD860E080E017
S11310504ED98091630262E070E090E0E8D860E0ED
S113106082E045D98AE292E0D5D860E083E03FD9B6
S11310708091640262E070E090E0D9D860E085E09D
S113108036D98CE292E0C6D860E086E030D980910F
S1131090560261E070E090E0CAD860E087E027D9AA
S11310A08091530261E070E090E0C1D860E088E094
S11310B01ED98091550261E070E090E0B8D860E0FC
S11310C089E015D98091540261E070E090E0AFD8D6
S11310D060E08AE00CD98EE292E09CD860E08CE07B
S11310E006D986E392E096D860E08DE000D920919D
S11310F05F02309160023695279536952795ABE7C8
S1131100B4E1B0D363E070E09695879590D861E040
S113111080E0EDD88091040263E070E090E087D82D
S113112061E083E0E4D888E192E074D861E084E08F
S1131130DED8E0916302F0E0ED52FD4F808163E080
S113114070E090E074D861E08CE0D1D880910D0219
S113115090910E0264E070E06AC80895E1E6F0E060
S113116080E8808381E08083F8948FEF81B984B92B
S113117087B91AB8E4E0F1E080818E7F8083E9E6E4
S1131180F0E080818260808380818C6080838081B4
S1131190806280838081806C8083E8E6F0E08081D7
S11311A082608083ECE6F0E0808182608083DFDD12
S11311B07CDE73DA8DB388608DBB78942FDB8DB3BE
S11311C087608DBB23DD109264021092630248DDB8
S11311D07BDE809114028823A9F180915F029091B3
S11311E0600220915D0230915E02821B930BC397D3
S11311F040F080915F029091600290935E02809330
S11312005D0280916D02882321F3909163028091A5
S11312106402981749F080915F0290916002909364
S11312205C0280935B02D5CF80915F029091600253
S113123020915B0230915C02821B930B813A9F40A8
S113124040F221C0D2DC489BFECF53DA58DECDB346
S113125081E08DBBECE6F0E080818D7F8083C5DC8E
S113126081D9F1DE809114028823E1F3489BFECFFB
S1131270CDBBECE6F0E080818260808346DE22DA3A
S113128015DD43DEA6CFF89415B812B869DEFFCF9A
S11312901F920F920FB60F9211240BB60F922F9339
S11312A03F934F935F936F937F938F939F93AF93EA
S11312B0BF93CF93DF93EF93FF938091130288231F
S11312C069F14CE350E061E081E08CDD882309F4AE
S11312D079C0109213028DB38D7F8DBBE9E6F0E0E7
S11312E080818B7F80838DB382608DBB109262027C
S11312F0109261028FEF93E0909312028093110297
S1131300EAE7F0E080818064808380915F029091BD
S1131310600290935A028093590254C04CE350E007
S113132060E081E05FDD882309F44CC080915F02B6
S1131330909160022091590230915A02821B930BC2
S11313404F9708F43FC081E0809313028DB38D7FE3
S11313508DBBE9E6F0E08081846080838DB3826098
S11313608DBB809111029091120290930E02809392
S11313700D028091110290911202823F934010F568
S11313808091610290916202C397E0F0C09164027F
S1131390D0E08091110290911202FDDCCD52DD4F1C
S11313A08883E0916402F0E0A0916402B0E0AD5261
S11313B0BD4F8C91EC52FD4F8083809164028F5F0E
S11313C0809364028CB382608CBBFF91EF91DF91B8
S11313D0CF91BF91AF919F918F917F916F915F91C9
S11313E04F913F912F910F900BBE0F900FBE0F9016
S11313F01F9018951F920F920FB60F9211240BB6DF
S11314000F922F933F934F935F936F937F938F9399
S11314109F93AF93BF93EF93FF9380916C028111DD
S11314202EC04CE350E060E082E0DCDC882309F469
S113143086C091E090936C028DB38B7F8DBBE9E6FF
S1131440F0E08081806180838DB384608DBB8CB338
S113145084608CBB90936502809169028111C5DB25
S113146080E090E2909309028093080280915F02E9
S113147090916002909358028093570260C04CE3AD
S113148050E061E082E0AEDC882309F458C080912A
S11314905F02909160022091570230915802821BA2
S11314A0930B4F9708F44BC010926C028DB38B7F53
S11314B08DBBE9E6F0E080818F7E80838DB384600C
S11314C08DBB8CB384608CBB909163028091640269
S11314D0981738F4809163028F5F809363021092AF
S11314E06802809141029091420299231CF49195E3
S11314F081959109409724F081E08093690201C0AD
S1131500D5DB109267021092650281E08093660237
S113151080919400909195002091980030919900C9
S1131520821B930B905A90930B0280930A02809132
S11315305F02909160029093580280935702FF914A
S1131540EF91BF91AF919F918F917F916F915F9137
S11315504F913F912F910F900BBE0F900FBE0F90A4
S11315601F9018951F920F920FB60F9211240BB66D
S11315700F922F933F934F935F936F937F938F9328
S11315809F93AF93BF93EF93FF930E947F010E94B9
S1131590C5010E9446020E94BD0280916602882312
S11315A039F120910A0230910B028091430290910B
S11315B044022817390728F4109266021092670231
S11315C017C0209143023091440280910A02909105
S11315D00B02821B930B90930B0280930A0256D941
S11315E0882321F081E08093670202C01092670291
S11315F09091650280916902981779F00BDA88233B
S113160041F0F3DA80E094E39093090280930802B6
S11316100CC0109265024ADB08C0809165028823E1
S113162021F0809169028111E0DAFF91EF91BF917D
S1131630AF919F918F917F916F915F914F913F9166
S11316402F910F900BBE0F900FBE0F901F90189507
S11316501F920F920FB60F9211240BB60F922F9375
S11316603F938F939F93EF93FF938091780090E043
S11316709093100280930F028091790090E0982F4C
S1131680882720910F0230911002820F931F9093AC
S1131690100280930F028091610290916202019680
S11316A0909362028093610220910F0230911002A4
S11316B080911102909112022817390740F4809109
S11316C00F02909110029093120280931102809164
S11316D01302811105C0EAE7F0E080818064808311
S11316E0FF91EF919F918F913F912F910F900BBE9E
S11316F00F900FBE0F901F9018951F920F920FB668
S11317000F9211240BB60F922F933F934F935F9335
S11317106F937F938F939F93AF93BF93EF93FF93B5
S11317204CE350E061E083E05DDB882331F082E349
S11317308093040281E080936E02FF91EF91BF9148
S1131740AF919F918F917F916F915F914F913F9155
S11317502F910F900BBE0F900FBE0F901F901895F6
S11317601F920F920FB60F9211240BB60F922F9364
S11317703F934F935F936F937F938F939F93AF9315
S1131780BF93EF93FF9340E350E060E080E02ADBF7
S1131790882351F080911402882319F010921402C6
S11317A003C081E080931402FF91EF91BF91AF9148
S11317B09F918F917F916F915F914F913F912F9165
S11317C00F900BBE0F900FBE0F901F9018951F9295
S11317D00F920FB60F9211240BB60F922F933F93D3
S11317E04F935F936F937F938F939F93AF93BF9325
S11317F0EF93FF9340E350E061E080E024DB882333
S113180059F081E080936D0280915F0290916002B3
S113181090935C0280935B02FF91EF91BF91AF9133
S11318209F918F917F916F915F914F913F912F91F4
S11318300F900BBE0F900FBE0F901F90189597FB43
S1131840072E16F4009406D077FD08D01AD007FCB2
S113185005D03EF4909581959F4F089570956195BC
S11318607F4F0895A29FB001B39FC001A39F700D45
S1131870811D1124911DB29F700D811D1124911D94
S11318800895AA1BBB1B51E107C0AA1FBB1FA617C3
S1131890B70710F0A61BB70B881F991F5A95A9F715
S11118A080959095BC01CD010895F894FFCF7A
S11318AED8B8B4D43201013200200060AAFF03FF7D
S11318BE03FF0301012C002D3E00543D002E007346
S11318CE20436F6D706C657465002F00280029002D
S11318DE4D002050002054002000440020530000EE
S9030000FC
