S01F00004D4543483435385F536F7274696E675F50726F6A6563742E73726563CC
S113000071C000000C94FD0A0C94B7080C946809A4
S11300100C94CB0A87C0000085C0000083C0000098
S113002081C000007FC000000C94330B7BC0000033
S113003079C0000077C0000075C0000073C00000E4
S113004071C000006FC000006DC000006BC00000F4
S113005069C0000067C0000065C0000063C0000004
S113006061C000005FC000005DC000005BC0000014
S113007059C000000C94760A55C0000053C000001B
S11300800C94020A4FC000004DC000004BC0000099
S113009049C0000047C0000045C0000043C0000044
S11300A041C000003FC000009DC600003BC00000EE
S11300B039C0000037C0000035C000007EC5000014
S11300C031C000002FC000002DC000002BC0000074
S11300D029C0000027C0000025C0000023C0000084
S11300E021C0000011241FBECFEFD1E2DEBFCDBF7F
S11300F000E00CBF12E0A0E0B2E0E4E4F7E100E0CD
S11301000BBF02C007900D92AE33B107D9F723E0BD
S1130110AEE3B2E001C01D92A433B207E1F785D784
S11301200C94A00B76C687B1807F87B988B18062B2
S113013088B988B18F7B88B982E08A95F1F700C0CD
S113014088B1806888B992E09A95F1F700C086B1C9
S11301508295807F92E09A95F1F700C098B19F77DD
S113016098B995E09A95F1F7000098B1906898B91C
S113017092E09A95F1F700C096B1807892E09A9552
S1130180F1F700C098B19F7798B995E09A95F1F787
S113019000008111D5CF88B18F7D88B987B18F6078
S11301A087B90895282F22952F708F70611104C08C
S11301B098B19F7B98B903C098B1906498B992E0C4
S11301C09A95F1F700C098B1906898B998B1907F6A
S11301D0922B98B995E09A95F1F7000098B19F7722
S11301E098B995E09A95F1F7000098B1906898B99C
S11301F098B1907F892B88B985E08A95F1F7000042
S113020088B18F7788B995E09A95F1F700008BCF84
S11302100895CF93C82F2FEF86E791E021508040B7
S11302209040E1F700C0000087B18F6087B987B1C3
S1130230806887B987B1806487B987B1806287B9DC
S113024088B1807F88B988B18F7788B988B18F7D6C
S113025088B988B18F7B88B900C000C0000088B11C
S1130260806888B988B1826088B925E02A95F1F759
S1130270000088B18F7788B985E08A95F1F700008E
S113028052DF60E08C2F8C608DDF60E088E28ADFD3
S1130290CF910895CF93DF93EC0103C061E082DF37
S11302A0219688818111FACFDF91CF910895EF9241
S11302B0FF920F931F93CF93DF9300D01F921F924F
S11302C0CDB7DEB77B01FE01319625E0DF011D923B
S11302D02A95E9F724E030E00FC06AE070E00E945C
S11302E06A0BE1E0F0E0EC0FFD1FE20FF31F8083E7
S11302F0862F972F21503109009779F7BFEFEB161E
S1130300FB0681F403C00F5F1F4F02C000E010E042
S1130310E1E0F0E0EC0FFD1FE00FF11F208122234C
S113032091F304C005E010E00E191F09992384F429
S113033061E08DE237DF0CC0E1E0F0E0EC0FFD1F7F
S1130340E00FF11F808161E0805D2CDF0F5F1F4FA4
S1130350053011058CF30F900F900F900F900F90B4
S1130360DF91CF911F910F91FF90EF900895883204
S113037028F46111806460E0806814CF089590913E
S11303803E0280910602890F80933E0280913E02D4
S113039084301CF010923E0207C080913E028823F4
S11303A01CF483E080933E02E0913E020E2E000C8A
S11303B0FF0BE050FE4F808182B98091040290913E
S11303C00602890F8093040280910402893C50F054
S11303D080910602813031F480910402885C80931C
S11303E004020DC080910402823348F48091060215
S11303F08F3F29F480910402885380930402109261
S113040095001092940081E00895809166028823FB
S113041061F1E0916002F0E0E153FD4F80812091B1
S1130420040290E0821B91099093400280933F0262
S113043080913F029091400299231CF491958195FB
S113044091090F970CF510926602E0916002F0E0BA
S1130450E053FD4F80812091040290E0821B9109BA
S11304609093400280933F020FC0E0916002F0E05D
S1130470E053FD4F80812091040290E0821B91099A
S11304809093400280933F0280913F0290914002FA
S1130490853691055CF080913F0290914002885C22
S11304A091099093400280933F0211C080913F02D2
S11304B0909140028C399F4F54F480913F02909167
S11304C0400288539F4F9093400280933F022091B3
S11304D03F023091400233231CF4319521953109B8
S11304E08091070290E02817390724F481E0809373
S11304F0650202C01092650281E0089580913F0276
S113050090914002892B91F4809141029091420292
S11305108130974030F0109206021092650281E01B
S1130520089581E08093670280E0089580913F02FE
S11305309091400299231CF49195819591098B35F2
S11305409105B4F0809141029091420281159A4044
S113055078F41092670280910602882329F0809132
S113056006028093050218C081E080930602089574
S113057020913F023091400281E0121613060CF0E4
S113058080E020913F0230914002932F991F9927D8
S1130590991F891B80930502809141029091420228
S11305A081159A4030F0809105028093060281E023
S11305B008959091050280910602981306C08091D7
S11305C005028093060281E0089581E0809367022A
S11305D080E00895109244021092430280E09AE071
S11305E09093420280934102089580910602811102
S11305F002C0F0DF7EC080916502811108C0809145
S11306006702811104C0809164028823C9F1E091DA
S11306104402F0E0EE0FFF1FE459FD4F20813181C9
S11306208091410290914202820F931F9093420263
S113063080934102809141029091420281309A401C
S1130640A0F080E09AE090934202809341021092DD
S113065044021092670280916402882309F449C01D
S113066080913F029091400244C0809144028823CB
S113067009F43FC08091440281508093440239C000
S1130680809141029091420281309340E0F1809147
S1130690410290914202E0914402F0E0EE0FFF1F0C
S11306A0E459FD4F20813181821B930B90934202C8
S11306B080934102809141029091420281309340A3
S11306C038F0809141029091420281309A4030F09A
S11306D080E093E09093420280934102909144021F
S11306E080910702981728F4809144028F5F8093C9
S11306F04402809141029091420290939900809328
S1130700980081E0089580E00895E1E9F0E08081B7
S1130710886080838FEF9FEF909399008093980077
S11307201092950010929400E1E7F0E080818260DD
S113073080830895109295001092940020E03AE08E
S11307403093990020939800E1E9F0E08081836080
S1130750808388B3826088BB309342022093410235
S11307600895E1E9F0E080818D7F808380818E7F30
S11307708083089510926D0210926C0220E03AE09A
S113078081E090E024C0FC013197EE0FFF1FE45993
S1130790FD4F40815181241B350B408151814C5CBC
S11307A05F4FFC01EE0FFF1FE459FD4F518340835F
S11307B040815181413D510548F0FC01EE0FFF1F7E
S11307C0E459FD4F40ED50E051834083019684305D
S11307D09105C8F2FC01EE0FFF1FE459FD4F40EDF7
S11307E050E0518340831AC0FC013197EE0FFF1F84
S11307F0E459FD4F40815181241B350B211543E001
S1130800340710F420E033E00196FC01EE0FFF1FE3
S1130810E459FD4F40ED50E051834083A901405716
S113082052404130534000F72AC0AC014F5F5F4F44
S1130830FC01EE0FFF1FE459FD4F60817181261BFF
S1130840370B608171816433710548F4FA01EE0F4E
S1130850FF1FE459FD4F11821082CA0114C0880F92
S1130860991FFC01E459FD4F80819181C497FA01DD
S1130870EE0FFF1FE459FD4F91838083CA0121309D
S113088043E0340790F680930702089573DF80E015
S11308909AE0909342028093410210926B0210926C
S11308A0040282E38093D00245DF11C080913F02AD
S11308B09091400299231CF4919581959109449754
S11308C034F480916B02811102C010920402809171
S11308D06B02882359F382E38093D00281E0089568
S11308E080910402E0916002F0E0E153FD4F208129
S11308F090E0821B91099C0122F422273327281BB4
S1130900390B8FE0821B80934902809107029091FA
S11309104402891B809348024091060220913F02C1
S1130920309140024203C001439F900D11241816D8
S113093019060CF03FC09091490280910702981764
S113094098F4809141029091420293509695879534
S113095040914902489F9001499F300D11243093E2
S11309604F0220934E0264C0809141029091420252
S113097093509695879540914802489F9001499FCE
S1130980300D1124809149024091070290E0841BAC
S1130990910960E073E0869FA001879F500D969FA8
S11309A0500D1124CA01820F931F90934F0280931C
S11309B04E023EC0209141023091420280E09AE012
S11309C0821B930B9695879540914802489F90010E
S11309D0499F300D112490910702892F90E0AC01BA
S11309E05695542F442757954795982F8827990F44
S11309F0990F841B950B820F931F209149024091FC
S1130A0007023091480250E0431B510930E0241B97
S1130A10350B60E073E0269FA001279F500D369FA1
S1130A20500D1124840F951F90934F0280934E0212
S1130A3020914E0230914F02809108029091090258
S1130A402817390710F481E0089580E00895809113
S1130A504102909142029350969587952091070206
S1130A604091440230E0241B3109289FA001299FB2
S1130A70500D389F500D112480913F0290914002F7
S1130A8099231CF49195819591090F972091070260
S1130A906091440230E0261B3109821B930B60E015
S1130AA073E0869F9001879F300D969F300D11242F
S1130AB0C901840F951F90934D0280934C0280913D
S1130AC04C0290914D028130904510F081E00895E0
S1130AD080E0089585B1807885B985B18B6085B94A
S1130AE016BC88EC87BD81E08093680280915C022B
S1130AF090915D0290934B0280934A0210922501DB
S1130B001092240180916802089585B1807885B996
S1130B1085B18B6085B916BC86E987BD81E0809379
S1130B20680280915C0290915D0290934B028093E5
S1130B304A0280916802089585B1807885B985B1AB
S1130B408F6085B91092680280916802089515B883
S1130B501092680280916802089584B5836884BD08
S1130B6085B5826085BD85B3826085BB17BCEFCF38
S1130B700895E1E2F1E080818860808380E891E07B
S1130B809093290180932801109225011092240149
S1130B90A3E7B0E08C9182608C9380818560808330
S1130BA08AB382608ABB86E980930A020895E1E2EF
S1130BB0F1E080818A7F808308951F920F920FB69F
S1130BC00F9211240BB60F922F933F934F935F9381
S1130BD06F937F938F939F93AF93BF93EF93FF9301
S1130BE080910A02815080930A0282E090E09093FF
S1130BF029018093280180910A02863920F486E92C
S1130C0080930A02D4DF16BC80910A0287BDFF914B
S1130C10EF91BF91AF919F918F917F916F915F9170
S1130C204F913F912F910F900BBE0F900FBE0F90DD
S1130C301F901895ECE7F0E08081806480838081C8
S1130C4081608083EAE7F0E080818068808380812E
S1130C508860808380818360808308958B3A23E059
S1130C60920738F0809153028F5F8093530282E39E
S1130C700895803223E0920738F0809152028F5F0A
S1130C808093520286E908958436910538F0809164
S1130C9051028F5F8093510288EC08958091500235
S1130CA08F5F8093500284E6089521E030E0082E9F
S1130CB002C0220F331F0A94E2F72093450201C0B9
S1130CC0660F8A95EAF71092470210924602109234
S1130CD04702109246020FC099B1809145028923C0
S1130CE0681314C080914602909147020196909334
S1130CF0470280934602842F90E02091460230916F
S1130D0047022817390740F381E0089580E00895E9
S1130D1021E030E0082E02C0220F331F0A94E2F7CC
S1130D202093450201C0660F8A95EAF710924702A4
S1130D3010924602109247021092460210C09091FF
S1130D400301809145028923681314C080914602EF
S1130D509091470201969093470280934602842F14
S1130D6090E020914602309147022817390738F362
S1130D7081E0089580E00895E1E8F0E080818260F8
S1130D80808380818860808388EE93E090938900DB
S1130D90809388000895E1EAF0E080818860808390
S1130DA087E090E09093A9008093A8001092A5009A
S1130DB01092A400A2E7B0E08C9182608C938081B1
S1130DC08560808389B3826089BB0895E1EAF0E09D
S1130DD080818A7F80830895E1EAF0E080818560E4
S1130DE0808308951F920F920FB60F9211248F9350
S1130DF09F9380915C0290915D02019690935D02B5
S1130E0080935C029F918F910F900FBE0F901F9063
S1130E1018951F920F920FB60F9211248F938FEF94
S1130E2088B98F910F900FBE0F901F90189560E0B6
S1130E3081E0B8D960E080E09ADA8091530262E000
S1130E4070E090E034DA83E192E024DA8091500299
S1130E5062E070E090E02BDA83E192E01BDA8091AB
S1130E60520262E070E090E022DA83E192E012DA6A
S1130E708091510262E070E090E019DA85E192E03D
S1130E8009DA8091600262E070E090E010DA61E0DB
S1130E9080E06DDA88E192E0FDD920915C02309126
S1130EA05D02369527953695279536952795A5ECB9
S1130EB0B0E223D462E070E0929582958F70892726
S1130EC09F708927F4D98BE192E0E4D940915C02C8
S1130ED050915D029A01ADECBCEC0FD496958795C8
S1130EE096958795969587959C01220F331F880FB9
S1130EF0991F880F991F880F991F820F931F61E014
S1130F0070E09A01281B390BC901D1D98DE192E017
S1130F10C1C9089560E081E045D960E080E027DA46
S1130F208091600262E070E090E0C1D960E082E00C
S1130F301EDA88E292E0AED960E083E018DA8091AC
S1130F40610262E070E090E0B2D960E085E00FDA1F
S1130F508AE292E09FD960E086E009DA8091530248
S1130F6061E070E090E0A3D960E087E000DA80916E
S1130F70500261E070E090E09AD960E088E0F7D92F
S1130F808091520261E070E090E091D960E089E0E4
S1130F90EED98091510261E070E090E088D960E080
S1130FA08AE0E5D98CE292E075D960E08CE0DFD983
S1130FB084E392E06FD960E08DE0D9D920915C029E
S1130FC030915D023695279536952795ABE7B4E1C8
S1130FD094D363E070E09695879569D961E080E0E9
S1130FE0C6D98091040263E070E090E060D961E0CA
S1130FF083E0BDD986E192E04DD961E084E0B7D9C0
S1131000E0916002F0E0E053FD4F808163E070E026
S113101090E04DD961E08CE0AAD980910B029091C7
S11310200C0264E070E043C90895E1E6F0E080E872
S1131030808381E08083F8948FEF81B984B987B984
S11310401AB8E4E0F1E080818E7F8083E9E6F0E085
S113105080818260808380818C60808380818062D3
S113106080838081806C8083E8E6F0E08081826008
S11310708083ECE6F0E0808182608083DBDD7CDECF
S113108044DB83E0C6D860E081E08CD88DB388600F
S11310908DBB7894FBDB8DB387608DBB8DB3877F6D
S11310A08DBB5BDD109261021092600213DD73DE72
S11310B0809112028823B1F180915C0290915D02CB
S11310C020915A0230915B02821B930BC39748F024
S11310D021DF80915C0290915D0290935B0280938A
S11310E05A0280916A02882319F3909160028091D8
S11310F06102981749F080915C0290915D0290938F
S1131100590280935802D4CF80915C0290915D0281
S11311102091580230915902821B930B813A9F40CF
S113112038F220C009DD489BFECF1BDB4FDECDB378
S113113081E08DBBECE6F0E080818D7F8083FCDC78
S113114049DA809112028823E1F3489BFECFCDBB9C
S1131150ECE6F0E08081826080833EDEEBDAD5DC71
S11311603BDEA6CFF89415B812B861DEFFCF1F920C
S11311700F920FB60F9211240BB60F922F933F9339
S11311804F935F936F937F938F939F93AF93BF938B
S1131190CF93DF93EF93FF9380911102882369F13A
S11311A044E161E081E081DD882309F479C0109293
S11311B011028DB38D7F8DBBE9E6F0E080818B7FDA
S11311C080838DB382608DBB10925F0210925E02A9
S11311D08FEF93E09093100280930F02EAE7F0E020
S11311E0808180648083C5DC80915C0290915D0283
S11311F0909357028093560253C044E160E081E02B
S113120054DD882309F44CC080915C0290915D0206
S11312102091560230915702821B930B069708F4D3
S11312203FC081E0809311028DB38D7F8DBBE9E6D1
S1131230F0E08081846080838DB382608DBB809177
S11312400F029091100290930C0280930B028091F4
S11312500F0290911002823F934010F580915E023C
S113126090915F02C397E0F0C0916102D0E0809159
S11312700F0290911002F2DCC053DD4F8883E0919D
S11312806102F0E0A0916102B0E0A053BD4F8C91E7
S1131290EF52FD4F8083809161028F5F80936102E2
S11312A08CB382608CBBFF91EF91DF91CF91BF91A2
S11312B0AF919F918F917F916F915F914F913F91EA
S11312C02F910F900BBE0F900FBE0F901F9018958B
S11312D01F920F920FB60F9211240BB60F922F93F9
S11312E03F934F935F936F937F938F939F93AF93AA
S11312F0BF93EF93FF938091690281112CC044E165
S113130060E082E0D2DC882309F469C091E0909324
S113131069028DB38B7F8DBBE9E6F0E0808180614B
S113132080838DB384608DBB8CB384608CBB9093BD
S113133062028DDB813021F480936202FDDB02C006
S11313401092620280915C0290915D02909355022A
S11313508093540244C044E161E082E0A6DC882327
S1131360F1F180915C0290915D02209154023091E0
S11313705502821B930B069790F1109269028DB36C
S11313808B7F8DBBE9E6F0E080818F7E80838DB317
S113139084608DBB8CB384608CBB9091600280911F
S11313A06102981738F4809160028F5F8093600225
S11313B01092650281E080936302109209021092F8
S11313C0080280E090E490930902809308028091DF
S11313D05C0290915D029093550280935402FF91B8
S11313E0EF91BF91AF919F918F917F916F915F9199
S11313F04F913F912F910F900BBE0F900FBE0F9006
S11314001F9018951F920F920FB60F9211240BB6CE
S11314100F922F933F934F935F936F937F938F9389
S11314209F93AF93BF93EF93FF930E94BF010E94DA
S1131430050264D8DAD8809162028823C9F08091C9
S11314404C0290914D028115904420F45EDB109281
S113145062020EC0209141023091420280914C02FE
S113146090914D02821B930B90934D0280934C02FA
S113147080916302882339F1209108023091090296
S113148080914102909142022817390728F4109262
S11314906302109264020EC0209141023091420214
S11314A08091080290910902821B930B9093090288
S11314B08093080215DA882321F081E08093640286
S11314C002C010926402FF91EF91BF91AF919F917E
S11314D08F917F916F915F914F913F912F910F90D9
S11314E00BBE0F900FBE0F901F9018951F920F9276
S11314F00FB60F9211240BB60F922F933F938F9335
S11315009F93EF93FF938091780090E090930E0265
S113151080930D028091790090E0982F8827209184
S11315200D0230910E02820F931F90930E0280934E
S11315300D0280915E0290915F02019690935F028A
S113154080935E0220910D0230910E0280910F0271
S1131550909110022817390740F480910D02909160
S11315600E029093100280930F0280911102811158
S113157005C0EAE7F0E0808180648083FF91EF9109
S11315809F918F913F912F910F900BBE0F900FBEA3
S11315900F901F9018951F920F920FB60F9211245F
S11315A00BB60F922F933F934F935F936F937F9359
S11315B08F939F93AF93BF93EF93FF9344E161E0C5
S11315C083E073DB882331F082E38093040281E0BB
S11315D080936B02FF91EF91BF91AF919F918F9197
S11315E07F916F915F914F913F912F910F900BBE1F
S11315F00F900FBE0F901F9018951F920F920FB669
S11316000F9211240BB60F922F933F934F935F9336
S11316106F937F938F939F93AF93BF93EF93FF93B6
S11316204AEF60E080E041DB882351F080911202B0
S1131630882319F01092120203C081E080931202F1
S1131640FF91EF91BF91AF919F918F917F916F9196
S11316505F914F913F912F910F900BBE0F900FBE52
S11316600F901F9018951F920F920FB60F9211248E
S11316700BB60F922F933F934F935F936F937F9388
S11316808F939F93AF93BF93EF93FF934AEF61E0E0
S113169080E03EDB882359F081E080936A028091E8
S11316A05C0290915D029093590280935802FF91DD
S11316B0EF91BF91AF919F918F917F916F915F91C6
S11316C04F913F912F910F900BBE0F900FBE0F9033
S11316D01F90189597FB072E16F4009406D077FDFB
S11316E008D01AD007FC05D03EF4909581959F4F01
S11316F00895709561957F4F0895A29FB001B39F9F
S1131700C001A39F700D811D1124911DB29F700D06
S1131710811D1124911D0895AA1BBB1B51E107C013
S1131720AA1FBB1FA617B70710F0A61BB70B881F6D
S1131730991F5A95A9F780959095BC01CD010895FC
S1071740F894FFCF47
S1131744D8B8B4D432010132004096FF03FF03FF3A
S11317540301012C002D3E00543D002E0073204350
S11317646F6D706C657465002F00280029004D00AE
S11117742050002054002000440020530000A8
S9030000FC
