S01F00004D4543483435385F536F7274696E675F50726F6A6563742E73726563CC
S113000071C000000C945F0A0C9470080C942109D0
S11300100C942D0A87C0000085C0000083C0000036
S113002081C000007FC000000C94950A7BC00000D2
S113003079C0000077C0000075C0000073C00000E4
S113004071C000006FC000006DC000006BC00000F4
S113005069C0000067C0000065C0000063C0000004
S113006061C000005FC000005DC000005BC0000014
S113007059C000000C94D80955C0000053C00000BA
S11300800C94AC094FC000004DC000004BC00000F0
S113009049C0000047C0000045C0000043C0000044
S11300A041C000003FC000005BC600003BC0000030
S11300B039C0000037C0000035C000003CC5000056
S11300C031C000002FC000002DC000002BC0000074
S11300D029C0000027C0000025C0000023C0000084
S11300E021C0000011241FBECFEFD1E2DEBFCDBF7F
S11300F000E00CBF12E0A0E0B2E0E8E0F6E100E0CE
S11301000BBF02C007900D92A033B107D9F723E0CB
S1130110A0E3B2E001C01D92A232B207E1F743D7D7
S11301200C94020B34C687B1807F87B988B1806292
S113013088B988B18F7B88B982E08A95F1F700C0CD
S113014088B1806888B992E09A95F1F700C086B1C9
S11301508295807F92E09A95F1F700C098B19F77DD
S113016098B995E09A95F1F7000098B1906898B91C
S113017092E09A95F1F700C096B1807892E09A9552
S1130180F1F700C098B19F7798B995E09A95F1F787
S113019000008111D5CF88B18F7D88B987B18F6078
S11301A087B90895282F22952F708F70611104C08C
S11301B098B19F7B98B903C098B1906498B992E0C4
S11301C09A95F1F700C098B1906898B998B1907F6A
S11301D0922B98B995E09A95F1F7000098B19F7722
S11301E098B995E09A95F1F7000098B1906898B99C
S11301F098B1907F892B88B985E08A95F1F7000042
S113020088B18F7788B995E09A95F1F700008BCF84
S11302100895CF93DF93EC0103C061E0C3DF21961F
S113022088818111FACFDF91CF910895EF92FF92E7
S11302300F931F93CF93DF9300D01F921F92CDB7DC
S1130240DEB77B01FE01319625E0DF011D922A9580
S1130250E9F724E030E00FC06AE070E00E94CC0AC5
S1130260E1E0F0E0EC0FFD1FE20FF31F8083862F27
S1130270972F21503109009779F7BFEFEB16FB0652
S113028081F403C00F5F1F4F02C000E010E0E1E003
S1130290F0E0EC0FFD1FE00FF11F2081222391F30A
S11302A004C005E010E00E191F09992384F461E0ED
S11302B08DE278DF0CC0E1E0F0E0EC0FFD1FE00F11
S11302C0F11F808161E0805D6DDF0F5F1F4F05309E
S11302D011058CF30F900F900F900F900F90DF91FA
S11302E0CF911F910F91FF90EF900895883228F4D9
S11302F06111806460E0806855CF08959091300268
S113030080910602890F80933002809130028430FC
S11303101CF01092300207C08091300288231CF434
S113032083E080933002E09130020E2E000CFF0B2C
S1130330E050FE4F808182B98091040290910602C0
S1130340890F8093040280910402893C50F08091CB
S11303500602813031F480910402885C80930402A7
S11303600DC080910402823348F4809106028F3FCD
S113037029F480910402885380930402109295001A
S11303801092940081E0089580915402882361F1D1
S1130390E0915002F0E0E354FD4F8081209104028B
S11303A090E0821B910990933202809331028091F4
S11303B031029091320299231CF49195819591090F
S11303C044970CF510925402E0915002F0E0E2548C
S11303D0FD4F80812091040290E0821B910990934B
S11303E03202809331020FC0E0915002F0E0E254F7
S11303F0FD4F80812091040290E0821B910990932B
S1130400320280933102809131029091320285361A
S113041091055CF08091310290913202885C9109DF
S1130420909332028093310211C0809131029091F5
S113043032028C399F4F54F48091310290913202F0
S113044088539F4F9093320280933102209131025E
S11304503091320233231CF4319521953109809176
S1130460070290E02817390724F481E080935302AF
S113047002C01092530281E008958091310290915C
S11304803202892B91F480913302909134028D359C
S1130490964030F0109206021092530281E00895C3
S11304A081E08093550280E008958091310290911B
S11304B0320299231CF49195819591098B3591050C
S11304C0B4F080913302909134028115994078F40C
S11304D01092550280910602882329F08091060229
S11304E08093050218C081E080930602089520914C
S11304F031023091320281E0121613060CF080E0D2
S11305002091310230913202932F991F9927991F1C
S1130510891B8093050280913302909134028115E6
S1130520994030F0809105028093060281E008959D
S11305309091050280910602981306C080910502ED
S11305408093060281E0089581E08093550280E063
S11305500895109236021092350280E099E090934B
S1130560340280933302089580910602811102C0FF
S1130570F0DF75C080915302811108C0809155024B
S1130580811104C080915202882381F1E0913602E6
S1130590F0E0EE0FFF1FE65AFD4F2081318180917C
S11305A0330290913402820F931F9093340280930C
S11305B0330280913302909134028130994058F093
S11305C080E099E0909334028093330210923602D3
S11305D01092550244C080913602882309F43FC02A
S11305E08091360281508093360239C08091330263
S11305F090913402853A9240E0F1809133029091D7
S11306003402E0913602F0E0EE0FFF1FE65AFD4F90
S113061020813181821B930B9093340280933302A7
S11306208091330290913402853A924038F080915F
S11306303302909134028130994030F084EA92E0A0
S11306409093340280933302909136028091070292
S1130650981728F4809136028F5F80933602809138
S1130660330290913402909399008093980081E032
S1130670089580E00895E1E9F0E080818860808356
S11306808FEF9FEF909399008093980010929500BC
S113069010929400E1E7F0E0808182608083089505
S11306A0109295001092940020E039E03093990064
S11306B020939800E1E9F0E080818360808388B32F
S11306C0826088BB30933402209333020895E1E9B9
S11306D0F0E080818D7F808380818E7F8083089588
S11306E010925B0210925A0220E039E081E090E01F
S11306F025C0FC013197EE0FFF1FE65AFD4F4081E4
S11307005181241B350B408151814B5A5F4FFC01B1
S1130710EE0FFF1FE65AFD4F518340834081518104
S11307204F3F510551F048F0FC01EE0FFF1FE65A10
S1130730FD4F4FEF50E05183408301968330910584
S1130740C0F2FC01EE0FFF1FE65AFD4F4FEF50E0E1
S1130750518340831AC0FC013197EE0FFF1FE65A04
S1130760FD4F40815181241B350B243A42E034076C
S113077010F424EA32E00196FC01EE0FFF1FE65A62
S1130780FD4F4FEF50E051834083A9014D57524034
S1130790453A524000F72BC0AC014F5F5F4FFC015C
S11307A0EE0FFF1FE65AFD4F60817181261B370B48
S11307B0608171816535710548F4FA01EE0FFF1F00
S11307C0E65AFD4F11821082CA0115C0880F991F85
S11307D0FC01E65AFD4F8081918185559109FA010A
S11307E0EE0FFF1FE65AFD4F91838083CA01253A1D
S11307F042E0340788F680930702089571DF80E0B1
S113080099E090933402809333021092590210922B
S1130810040282E38093BE0243DF11C0809131025F
S11308209091320299231CF49195819591094497F2
S113083034F480915902811102C010920402809113
S11308405902882359F382E38093BE0281E008951C
S113085085B1807885B985B18B6085B916BC82ED88
S113086087BD81E08093560280914C0290914D02A5
S113087090933B0280933A02109225011092240136
S113088080915602089585B1807885B985B18B60D1
S113089085B916BC80EA87BD81E0809356028091B9
S11308A04C0290914D0290933B0280933A028091C6
S11308B05602089585B1807885B985B18F6085B970
S11308C010925602809156020895809131029091BF
S11308D0320299231CF491958195910945970CF462
S11308E073C080915402882319F0E4DF80E00895F6
S11308F080915702811107C0809156028111DFC097
S1130900C2DF81E0089540910602209131023091C6
S113091032024203C001439F900D112499230CF429
S113092050C08091330290913402845A924096953B
S11309308795209107024091360230E0241B31094B
S1130940289FA001299F500D389F500D112480919C
S113095031029091320299231CF491958195910969
S11309604497209107026091360230E0261B31093A
S1130970821B930B64EA72E0869F9001879F300D7F
S1130980969F300D1124C901840F951F90933D0249
S113099080933C0280915602882349F080913C0266
S11309A090913D028115904508F48BC00AC0809156
S11309B03C0290913D028115904518F464DF81E07A
S11309C0089578DF80E0089580915602811101C076
S11309D05ADF4091060220913102309132024203E3
S11309E0C001439F900D1124181619060CF06BC01A
S11309F08091330290913402845A9240969587955F
S1130A00209107024091360230E0241B3109289FCF
S1130A10A001299F500D389F500D112420910402EC
S1130A20E0915002F0E0E354FD4F808130E0281B58
S1130A30310984E190E0821B930B209107026091BD
S1130A40360230E0261B3109821B930B64EA72E004
S1130A50869F9001879F300D969F300D1124420F81
S1130A60531F50933F0240933E0280913E02909167
S1130A703F0281159045F8F480915202882381F059
S1130A80209133023091340280910802909109023E
S1130A90821B930B909309028093080281E00895CE
S1130AA081E08093520280E090E590930902809364
S1130AB0080281E008951092520281E0089581E0D5
S1130AC0089581E0089581E0089515B810925602C2
S1130AD080915602089584B5836884BD85B582608B
S1130AE085BD85B3826085BB17BCEFCF0895E1E275
S1130AF0F1E080818860808380E891E0909329010F
S1130B00809328011092250110922401A3E7B0E0FC
S1130B108C9182608C938081856080838AB38260AB
S1130B208ABB80EA80930A020895E1E2F1E08081C1
S1130B308A7F808308951F920F920FB60F9211241B
S1130B400BB60F922F933F934F935F936F937F93C3
S1130B508F939F93AF93BF93EF93FF9380910A0278
S1130B60815080930A0281E090E090932901809360
S1130B70280180910A02863920F486E980930A02CA
S1130B80D4DF16BC80910A0287BDFF91EF91BF911B
S1130B90AF919F918F917F916F915F914F913F9111
S1130BA02F910F900BBE0F900FBE0F901F901895B2
S1130BB0ECE7F0E0808180648083808181608083C1
S1130BC0EAE7F0E0808180688083808188608083A8
S1130BD080818360808308958A3B23E0920738F004
S1130BE0809143028F5F8093430282E308958032B1
S1130BF023E0920738F0809142028F5F8093420293
S1130C0086E908958039914038F0809141028F5FE0
S1130C108093410288EC0895809140028F5F809315
S1130C20400284E6089521E030E0082E02C0220F3D
S1130C30331F0A94E2F72093370201C0660F8A95A6
S1130C40EAF7109239021092380210923902109287
S1130C5038020FC099B1809137028923681314C0F8
S1130C6080913802909139020196909339028093D1
S1130C703802842F90E020913802309139022817ED
S1130C80390740F381E0089580E0089521E030E0E1
S1130C90082E02C0220F331F0A94E2F72093370272
S1130CA001C0660F8A95EAF7109239021092380251
S1130CB0109239021092380210C090910301809171
S1130CC037028923681314C0809138029091390245
S1130CD001969093390280933802842F90E02091FA
S1130CE03802309139022817390738F381E0089522
S1130CF080E00895E1E8F0E0808182608083808173
S1130D008860808388EE93E09093890080938800C4
S1130D100895E1EAF0E080818860808387E090E0D4
S1130D209093A9008093A8001092A5001092A400AB
S1130D30A2E7B0E08C9182608C938081856080838F
S1130D4089B3826089BB0895E1EAF0E080818A7FFB
S1130D5080830895E1EAF0E08081856080830895CE
S1130D601F920F920FB60F9211248F939F9380912D
S1130D704C0290914D02019690934D0280934C0247
S1130D809F918F910F900FBE0F901F9018951F92F7
S1130D900F920FB60F9211248F938FEF88B98F9112
S1130DA00F900FBE0F901F90189560E081E0FAD964
S1130DB060E080E09BDA8091430262E070E090E0C2
S1130DC035DA83E192E025DA8091400262E070E056
S1130DD090E02CDA83E192E01CDA8091420262E036
S1130DE070E090E023DA83E192E013DA809141022B
S1130DF062E070E090E01ADA85E192E00ADA80912C
S1130E00500262E070E090E011DA61E080E06EDAB6
S1130E1088E192E0FED920914C0230914D02369542
S1130E2027953695279536952795A5ECB0E2C7D337
S1130E3062E070E0929582958F7089279F70892770
S1130E40F5D98BE192E0E5D940914C0250914D02E5
S1130E509A01ADECBCECB3D396958795969587959E
S1130E60969587959C01220F331F880F991F880F31
S1130E70991F880F991F820F931F61E070E09A01F8
S1130E80281B390BC901D2D98DE192E0C2C908955A
S1130E9060E081E087D960E080E028DA8091500248
S1130EA062E070E090E0C2D960E082E01FDA88E29C
S1130EB092E0AFD960E083E019DA8091510262E0F8
S1130EC070E090E0B3D960E085E010DA8AE292E065
S1130ED0A0D960E086E00ADA8091430261E070E024
S1130EE090E0A4D960E087E001DA8091400261E0FB
S1130EF070E090E09BD960E088E0F8D980914202EC
S1130F0061E070E090E092D960E089E0EFD98091EF
S1130F10410261E070E090E089D960E08AE0E6D9BE
S1130F208CE292E076D960E08CE0E0D98EE292E047
S1130F3070D960E08DE0DAD920914C0230914D02F5
S1130F403695279536952795ABE7B4E138D363E01A
S1130F5070E0969587956AD961E080E0C7D9809161
S1130F60040263E070E090E061D961E083E0BED9FF
S1130F7086E192E04ED961E084E0B8D9E091500274
S1130F80F0E0E254FD4F808163E070E090E04ED9E0
S1130F9061E08CE0ABD980910B0290910C0264E08B
S1130FA070E044C90895E1E6F0E080E8808381E0E0
S1130FB08083F8948FEF81B984B987B91AB8E4E0D3
S1130FC0F1E080818E7F8083E9E6F0E080818260B9
S1130FD0808380818C608083808180628083808133
S1130FE0806C8083E8E6F0E0808182608083ECE6B8
S1130FF0F0E0808182608083DBDD7CDE3CDB8DB3CE
S113100088608DBB7894FADB8DB387608DBB8DB31C
S1131010877F8DBB60DD109251021092500218DC64
S113102078DE809112028823A9F180914C0290917C
S11310304D0220914A0230914B02821B930BC397BD
S113104040F080914C0290914D0290934B0280931A
S11310504A0280915802882321F390915002809192
S11310605102981749F080914C0290914D0290934F
S1131070490280934802D5CF80914C0290914D0251
S11310802091480230914902821B930B813A9F4080
S113109040F221C00FDC489BFECF19DB55DECDB3F7
S11310A081E08DBBECE6F0E080818D7F80830DDDF7
S11310B050DAEEDE809112028823E1F3489BFECFE2
S11310C0CDBBECE6F0E080818260808343DEE8DA29
S11310D0DADB40DEA6CFF89415B812B866DEFFCF8F
S11310E01F920F920FB60F9211240BB60F922F93EB
S11310F03F934F935F936F937F938F939F93AF939C
S1131100BF93CF93DF93EF93FF93809111028823D2
S113111069F148E061E081E086DD882309F479C063
S1131120109211028DB38D7F8DBBE9E6F0E08081D2
S11311308B7F80838DB382608DBB10924F0210929F
S11311404E028FEF93E09093100280930F02EAE730
S1131150F0E0808180648083CADC80914C029091AD
S11311604D02909347028093460253C048E060E0EA
S113117081E059DD882309F44CC080914C029091A0
S11311804D022091460230914702821B930B029735
S113119008F43FC081E0809311028DB38D7F8DBB35
S11311A0E9E6F0E08081846080838DB382608DBB4A
S11311B080910F029091100290930C0280930B0285
S11311C080910F0290911002823F934010F580911C
S11311D04E0290914F02C397E0F0C0915102D0E0CB
S11311E080910F0290911002F7DCC254DD4F888386
S11311F0E0915102F0E0A0915102B0E0A254BD4F41
S11312008C91E154FD4F8083809151028F5F8093D4
S113121051028CB382608CBBFF91EF91DF91CF912F
S1131220BF91AF919F918F917F916F915F914F91FA
S11312303F912F910F900BBE0F900FBE0F901F90F8
S113124018951F920F920FB60F9211240BB60F929E
S11312502F933F934F935F936F937F938F939F93BA
S1131260AF93BF93EF93FF9380915702811123C0F3
S113127048E060E082E0D7DC882309F45AC081E0CA
S1131280809357028DB38B7F8DBBE9E6F0E08081BC
S1131290806180838DB384608DBB8CB384608CBB90
S11312A073D813DB80914C0290914D0290934502C8
S11312B0809344023EC048E061E082E0B4DC8823CD
S11312C0C1F120914C0230914D02809144029091E1
S11312D045022817390769F1109257028DB38B7FA5
S11312E08DBBE9E6F0E080818F7E80838DB38460DE
S11312F08DBB8CB384608CBB909150028091510261
S1131300981738F4809150028F5F809350021092A6
S1131310530280915602811103C081E080935402EC
S1131320D4DA80914C0290914D02909345028093BF
S11313304402FF91EF91BF91AF919F918F917F9163
S11313406F915F914F913F912F910F900BBE0F9032
S11313500FBE0F901F9018951F920F920FB60F9209
S113136011240BB60F922F933F934F935F936F9378
S11313707F938F939F93AF93BF93EF93FF930E94B9
S11313807E0102D87AD8F0D8A0DAFF91EF91BF910C
S1131390AF919F918F917F916F915F914F913F9109
S11313A02F910F900BBE0F900FBE0F901F901895AA
S11313B01F920F920FB60F9211240BB60F922F9318
S11313C03F938F939F93EF93FF938091780090E0E6
S11313D090930E0280930D028091790090E0982FF3
S11313E0882720910D0230910E02820F931F909353
S11313F00E0280930D0280914E0290914F0201964D
S113140090934F0280934E0220910D0230910E0270
S113141080910F02909110022817390740F48091AF
S11314200D0290910E029093100280930F0280910E
S11314301102811105C0EAE7F0E0808180648083B5
S1131440FF91EF919F918F913F912F910F900BBE40
S11314500F900FBE0F901F9018951F920F920FB60A
S11314600F9211240BB60F922F933F934F935F93D8
S11314706F937F938F939F93AF93BF93EF93FF9358
S113148048E061E083E0CFDB882331F082E380939E
S1131490040281E080935902FF91EF91BF91AF91D3
S11314A09F918F917F916F915F914F913F912F9178
S11314B00F900BBE0F900FBE0F901F9018951F92A8
S11314C00F920FB60F9211240BB60F922F933F93E6
S11314D04F935F936F937F938F939F93AF93BF9338
S11314E0EF93FF934AEF60E080E09DDB882351F0A7
S11314F080911202882319F01092120203C081E035
S113150080931202FF91EF91BF91AF919F918F91C0
S11315107F916F915F914F913F912F910F900BBEEF
S11315200F900FBE0F901F9018951F920F920FB639
S11315300F9211240BB60F922F933F934F935F9307
S11315406F937F938F939F93AF93BF93EF93FF9387
S11315504AEF61E080E09ADB882359F081E08093D0
S1131560580280914C0290914D02909349028093CD
S11315704802FF91EF91BF91AF919F918F917F911D
S11315806F915F914F913F912F910F900BBE0F90F0
S11315900FBE0F901F90189597FB072E16F400941A
S11315A006D077FD08D01AD007FC05D03EF49095FC
S11315B081959F4F0895709561957F4F0895A29FDF
S11315C0B001B39FC001A39F700D811D1124911D13
S11315D0B29F700D811D1124911D0895AA1BBB1B80
S11315E051E107C0AA1FBB1FA617B70710F0A61B1F
S11315F0B70B881F991F5A95A9F780959095BC0140
S10B1600CD010895F894FFCF19
S1131608D8B8B4D4320101320050A0FF03FF03FF5D
S11316180301012C002D3E00543D002E007320438D
S11316286F6D706C657465002F00280029005400E4
S9030000FC
