S01F00004D4543483435385F536F7274696E675F50726F6A6563742E73726563CC
S113000071C000006DC60000A3C6000052C7000006
S11300100C94A90887C0000085C0000083C00000BC
S113002081C000007FC000007DC000007BC00000D4
S113003079C0000077C0000075C0000073C00000E4
S113004071C000006FC000006DC000006BC00000F4
S113005069C0000067C0000065C0000063C0000004
S113006061C000005FC000005DC000005BC0000014
S113007059C000000C94540855C0000053C000003F
S1130080A6C700004FC000004DC000004BC00000D8
S113009049C0000047C0000045C0000043C0000044
S11300A041C000003FC00000ECC400003BC00000A1
S11300B039C0000037C0000035C00000ECC30000A8
S11300C031C000002FC000002DC000002BC0000074
S11300D029C0000027C0000025C0000023C0000084
S11300E021C0000011241FBECFEFD1E2DEBFCDBF7F
S11300F000E00CBF12E0A0E0B2E0E6E2F2E100E0D2
S11301000BBF02C007900D92AE31B107D9F723E0BF
S1130110AEE1B2E001C01D92A330B207E1F780D591
S11301200C941109C5C487B1807F87B988B18062F6
S113013088B988B18F7B88B982E08A95F1F700C0CD
S113014088B1806888B992E09A95F1F700C086B1C9
S11301508295807F92E09A95F1F700C098B19F77DD
S113016098B995E09A95F1F7000098B1906898B91C
S113017092E09A95F1F700C096B1807892E09A9552
S1130180F1F700C098B19F7798B995E09A95F1F787
S113019000008111D5CF88B18F7D88B987B18F6078
S11301A087B90895282F22952F708F70611104C08C
S11301B098B19F7B98B903C098B1906498B992E0C4
S11301C09A95F1F700C098B1906898B998B1907F6A
S11301D0922B98B995E09A95F1F7000098B19F7722
S11301E098B995E09A95F1F7000098B1906898B99C
S11301F098B1907F892B88B985E08A95F1F7000042
S113020088B18F7788B995E09A95F1F700008BCF84
S11302100895CF93C82F2FEF86E791E021508040B7
S11302209040E1F700C0000087B18F6087B987B1C3
S1130230806887B987B1806487B987B1806287B9DC
S113024088B1807F88B988B18F7788B988B18F7D6C
S113025088B988B18F7B88B900C000C0000088B11C
S1130260806888B988B1826088B925E02A95F1F759
S1130270000088B18F7788B985E08A95F1F700008E
S113028052DF60E08C2F8C608DDF60E088E28ADFD3
S1130290CF910895CF93DF93EC0103C061E082DF37
S11302A0219688818111FACFDF91CF910895EF9241
S11302B0FF920F931F93CF93DF9300D01F921F924F
S11302C0CDB7DEB77B01FE01319625E0DF011D923B
S11302D02A95E9F724E030E00EC06AE070E06BD7BD
S11302E0E1E0F0E0EC0FFD1FE20FF31F8083862FA7
S11302F0972F21503109009781F7BFEFEB16FB06CA
S113030081F403C00F5F1F4F02C000E010E0E1E082
S1130310F0E0EC0FFD1FE00FF11F2081222391F389
S113032004C005E010E00E191F09992384F461E06C
S11303308DE238DF0CC0E1E0F0E0EC0FFD1FE00FD0
S1130340F11F808161E0805D2DDF0F5F1F4F05305D
S113035011058CF30F900F900F900F900F90DF9179
S1130360CF911F910F91FF90EF900895883228F458
S11303706111806460E0806815CF089590911E0239
S113038080910D02890F80931E0280911E02843099
S11303901CF010921E0207C080911E0288231CF4D8
S11303A083E080931E02E0911E020E2E000CFF0BD0
S11303B0EF5FFD4F808182B980910E0290910D0212
S11303C0890F80930E0280910E02893C50F0809137
S11303D00D02813031F480910E02885C80930E020C
S11303E00DC080910E02823348F480910D028F3F3C
S11303F029F480910E02885380930E021092950086
S11304001092940081E008958091050290E020917B
S113041032023091330233231CF431952195310992
S11304208217930724F480913702882381F1E091A5
S11304302202F0E0EE0FFF1FE55CFD4F20813181C9
S113044080911F0290912002820F931F90932002AB
S113045080931F0280911F029091200281309A4064
S113046058F080E09AE09093200280931F0210924B
S113047022021092370244C080912202882309F498
S11304803FC08091220281508093220239C0809122
S11304901F029091200281389340E0F180911F0265
S11304A090912002E0912202F0E0EE0FFF1FE55C44
S11304B0FD4F20813181821B930B90932002809306
S11304C01F0280911F02909120028138934038F0DE
S11304D080911F029091200281309A4030F080E890
S11304E093E09093200280931F02909122028091C6
S11304F00502981728F4809122028F5F80932202CC
S113050080911F029091200290939900809398000B
S113051081E0089580E00895109222021092210251
S113052080E09AE09093200280931F0208958091C6
S11305303702811170C08091320290913302892B6D
S113054089F480911F029091200281159A4029F02C
S113055081E08093370280E0089510920D02DCDF81
S113056081E008958091320290913302853691059D
S113057024F08FEF8093000230C08091320290917A
S113058033028C399F4F24F481E08093000225C00C
S1130590809132029091330299231CF491958195B4
S11305A091098436910529F480910D02809300020B
S11305B014C0209132023091330281E012161306E6
S11305C00CF080E02091320230913302932F991F76
S11305D09927991F891B8093000280911F02909193
S11305E0200281159A4030F08091000280930D0220
S11305F081E008959091000280910D02981306C045
S11306008091000280930D0281E0089581E080933F
S1130610370280E0089581E00895E1E9F0E0808107
S1130620886080838FEF9FEF909399008093980068
S11306301092950010929400E1E7F0E080818260CE
S113064080830895109295001092940020E03AE07F
S11306503093990020939800E1E9F0E08081836071
S1130660808388B3826088BB109221023093200279
S113067020931F02089510923C0210923B0220E046
S11306803AE081E090E024C0FC013197EE0FFF1FB7
S1130690E55CFD4F40815181241B350B4081518124
S11306A0405E5F4FFC01EE0FFF1FE55CFD4F518381
S11306B04083408151814138510548F0FC01EE0FDF
S11306C0FF1FE55CFD4F40E850E0518340830196F5
S11306D084309105C8F2FC01EE0FFF1FE55CFD4F6D
S11306E040E850E0518340831AC0FC013197EE0F7B
S11306F0FF1FE55CFD4F40815181241B350B2038E1
S113070043E0340710F420E833E00196FC01EE0FD7
S1130710FF1FE55CFD4F40E850E051834083A90191
S1130720405851404138534000F72AC0AC014F5F54
S11307305F4FFC01EE0FFF1FE55CFD4F608171818F
S1130740261B370B608171816032710548F4FA0110
S1130750EE0FFF1FE55CFD4F11821082CA0114C029
S1130760880F991FFC01E55CFD4F80819181809782
S1130770FA01EE0FFF1FE55CFD4F91838083CA01F0
S1130780213843E0340790F680930502089573DF1F
S113079080E09AE09093200280931F0210923A0224
S11307A010920E028FEF80939F024CDF80913A02E9
S11307B08823E1F38DB3877F8DBB82E380939F020F
S11307C01092220281E0089585B1807885B985B1BF
S11307D08B6085B916BC88EC87BD81E080933802B4
S11307E0109225011092240180913802089585B158
S11307F0807885B985B18B6085B916BC80EA87BDE0
S113080081E0809338021092250110922401809196
S11308103802089585B1807885B985B18F6085B92E
S11308201092380280913802089515B81092380257
S113083080913802089584B5836884BD85B582604B
S113084085BD85B3826085BB17BCEFCF0895E1E217
S1130850F1E080818860808380EA91E090932901AF
S1130860809328011092250110922401A3E7B0E09F
S11308708C9182608C938081856080838AB382604E
S11308808ABB80EA809306020895E1E2F1E0808168
S11308908A7F808308951F920F920FB60F921124BE
S11308A00BB60F922F933F934F935F936F937F9366
S11308B08F939F93AF93BF93EF93FF93809106021F
S11308C081508093060281E090E090932901809307
S11308D0280180910602843620F484E6809306027F
S11308E0D4DF16BC8091060287BDFF91EF91BF91C2
S11308F0AF919F918F917F916F915F914F913F91B4
S11309002F910F900BBE0F900FBE0F901F90189554
S1130910ECE7F0E080818064808380818160808363
S1130920EAE7F0E08081806880838081886080834A
S11309308081836080830895803223E0920738F0B9
S1130940809129028F5F8093290282E308958C3B72
S113095022E0920738F0809128028F5F809328026A
S113096086E908958039914038F0809127028F5F9D
S11309708093270288EC0895809126028F5F8093EC
S1130980260284E6089521E030E0082E02C0220FFA
S1130990331F0A94E2F72093230201C0660F8A955D
S11309A0EAF7109225021092240210922502109266
S11309B024020FC099B1809123028923681314C0C3
S11309C080912402909125020196909325028093B0
S11309D02402842F90E020912402309125022817CC
S11309E0390740F381E0089580E00895E1E8F0E0FC
S11309F080818260808380818860808388EE93E038
S1130A009093890080938800089510928500109235
S1130A10840026B3226026BB20E030E007C0B19BEF
S1130A2005C046B3426046BB2F5F3F4F28173907C6
S1130A30B4F30895E1EAF0E080818860808387E080
S1130A4090E09093A9008093A8001092A5001092C2
S1130A50A400A2E7B0E08C9182608C9380818560D1
S1130A60808389B3826089BB0895E1EAF0E08081E4
S1130A708A7F80830895E1EAF0E080818560808345
S1130A8008951F920F920FB60F9211248F939F9384
S1130A9080912E0290912F02019690932F028093C1
S1130AA02E029F918F910F900FBE0F901F9018955B
S1130AB01F920F920FB60F9211248F938FEF88B964
S1130AC08F910F900FBE0F901F90189560E081E0FA
S1130AD069DB60E080E04ADC8091340262E070E02F
S1130AE090E0E5DB60E082E041DC81E192E0D2DB92
S1130AF060E083E03BDC8091350262E070E090E0EE
S1130B00D6DB60E085E032DC83E192E0C3DB60E0C9
S1130B1086E02CDC8091290261E070E090E0C7DB84
S1130B2060E087E023DC8091260261E070E090E0E1
S1130B30BEDB60E088E01ADC8091280261E070E0AE
S1130B4090E0B5DB60E089E011DC8091270261E090
S1130B5070E090E0ACDB60E08AE008DC85E192E0E4
S1130B6099DB60E08CE002DC87E192E093DB60E0FB
S1130B708EE0FCDB20912E0230912F0236952795D2
S1130B803695279536952795A5ECB0E227D362E0F4
S1130B9070E0929582958F7089279F70892787DBF3
S1130BA061E080E0E3DB80910E0263E070E090E0BE
S1130BB07EDB61E083E0DADB89E192E06BDB61E01C
S1130BC084E0D4DBE0913402F0E0E156FD4F808113
S1130BD063E070E090E06BDB61E088E0C7DB8BE111
S1130BE092E058DB61E089E0C1DB20911F02309183
S1130BF02002A3E9B1E2F2D262E070E0929582951C
S1130C008F7089279F70892752DB61E08CE0AEDB0F
S1130C10809107029091080264E070E048CB089547
S1130C20E1E6F0E080E8808381E08083F8948FEF50
S1130C3081B984B987B91AB8E9E6F0E080818260A5
S1130C40808380818C6080838081806280838081C6
S1130C50806C80835DDECADEE0DCEDDD83E0D9DA22
S1130C6060E081E09FDA8DB388608DBB78948FDD7E
S1130C7088EE93E0CADEF8948DB38F608DBB8DB39C
S1130C80877F8DBB78941092350210923402DADC9F
S1130C909BDDD0DE04C01ADF84E190E0B6DE8091F3
S1130CA010028130C1F3809110028111F8CFB2DDBE
S1130CB0DCDEF894489BFECF2FDC0BC04AEF60E0EB
S1130CC080E061DE882329F0489BFECF81E0809399
S1130CD0100280911002882389F3CDDE7894DFCF4F
S1130CE01F920F920FB60F9211240BB60F922F93EF
S1130CF03F934F935F936F937F938F939F93AF93A0
S1130D00BF93EF93FF934AEF60E080E03CDE8823DB
S1130D1061F080911002882321F0109210027ADD94
S1130D2004C065DD81E080931002FF91EF91BF91D3
S1130D30AF919F918F917F916F915F914F913F916F
S1130D402F910F900BBE0F900FBE0F901F90189510
S1130D501F920F920FB60F9211240BB60F922F937E
S1130D603F934F935F936F937F938F939F93AF932F
S1130D70BF93CF93DF93EF93FF9380910F02882368
S1130D8069F14CE361E081E0FEDD882309F479C078
S1130D9010920F028DB38D7F8DBBE9E6F0E0808168
S1130DA08B7F80838DB382608DBB10923102109251
S1130DB030028FEF93E090930C0280930B02EAE7EA
S1130DC0F0E080818064808342DD80912E029091E6
S1130DD02F0290932D0280932C0253C04CE360E0C9
S1130DE081E0D1DD882309F44CC080912E029091DA
S1130DF02F0220912C0230912D02821B930B069717
S1130E0008F43FC081E080930F028DB38D7F8DBBCA
S1130E10E9E6F0E08081846080838DB382608DBBDD
S1130E2080910B0290910C02909308028093070228
S1130E3080910B0290910C02823F934010F58091B7
S1130E40300290913102C397E0F0C0913502D0E0B6
S1130E5080910B0290910C026FDDC156DD4F8883A7
S1130E60E0913502F0E0A0913502B0E0A156BD4F0B
S1130E708C91E056FD4F8083809135028F5F809383
S1130E8035028CB382608CBBFF91EF91DF91CF91DF
S1130E90BF91AF919F918F917F916F915F914F918E
S1130EA03F912F910F900BBE0F900FBE0F901F908C
S1130EB018951F920F920FB60F9211240BB60F9232
S1130EC02F933F934F935F936F937F938F939F934E
S1130ED0AF93BF93EF93FF938091390281112AC09E
S1130EE04CE360E082E04FDD882309F45AC081E0DE
S1130EF0809339028DB38B7F8DBBE9E6F0E080816E
S1130F00806180838DB384608DBB80913202909127
S1130F10330299231CF491958195910984970CF0DF
S1130F2079DC80912E0290912F0290932B02809372
S1130F302A0237C04CE361E082E025DD882389F191
S1130F4020912E0230912F0280912A0290912B023F
S1130F502817390731F1109239028DB38B7F8DBB7D
S1130F60E9E6F0E080818F7E80838DB384608DBB61
S1130F709091340280913502981728F480913402BC
S1130F808F5F8093340280913202909133029923CF
S1130F901CF49195819591094F971CF081E0809301
S1130FA036028CB384608CBBFF91EF91BF91AF91FB
S1130FB09F918F917F916F915F914F913F912F916D
S1130FC00F900BBE0F900FBE0F901F9018951F929D
S1130FD00F920FB60F9211240BB60F922F933F93DB
S1130FE04F935F936F937F938F939F93AF93BF932D
S1130FF0EF93FF93C3D980913602811110C0E09121
S11310003402F0E0E156FD4F808120910E0290E021
S1131010821B910990933302809332021CC0E091A9
S11310203402F0E0E256FD4F808120910E0290E000
S1131030821B910990933302809332028091320291
S11310409091330299231CF49195819591094E97BF
S113105014F4109236026BDAD7D9809138028111D8
S113106010C0809132029091330299231CF491951F
S11310708195910984972CF480913702811101C0E4
S1131080B6DBFF91EF91BF91AF919F918F917F91CB
S11310906F915F914F913F912F910F900BBE0F90E5
S11310A00FBE0F901F9018951F920F920FB60F92BC
S11310B011240BB60F922F933F938F939F93EF932B
S11310C0FF938091780090E090930A028093090244
S11310D08091790090E0982F88272091090230911F
S11310E00A02820F931F90930A028093090280914F
S11310F03002909131020196909331028093300234
S11311002091090230910A0280910B0290910C0205
S11311102817390740F48091090290910A029093AC
S11311200C0280930B0280910F02811105C0EAE743
S1131130F0E0808180648083FF91EF919F918F9193
S11311403F912F910F900BBE0F900FBE0F901F90E9
S113115018951F920F920FB60F9211240BB60F928F
S11311602F933F934F935F936F937F938F939F93AB
S1131170AF93BF93EF93FF934CE361E083E003DC11
S1131180882331F082E380930E0281E080933A0257
S1131190FF91EF91BF91AF919F918F917F916F914B
S11311A05F914F913F912F910F900BBE0F900FBE07
S11311B00F901F90189597FB072E16F4009406D0F5
S11311C077FD08D01AD007FC05D03EF490958195A0
S11311D09F4F0895709561957F4F0895A29FB00128
S11311E0B39FC001A39F700D811D1124911DB29F57
S11311F0700D811D1124911D0895AA1BBB1B51E183
S113120007C0AA1FBB1FA617B70710F0A61BB70B72
S1131210881F991F5A95A9F780959095BC01CD0117
S10912200895F894FFCFCD
S113122601D8B8B4D432A0FF03FF03FF030132018F
S1111236012F002800290054003E004400004F
S9030000FC
