S01F00004D4543483435385F536F7274696E675F50726F6A6563742E73726563CC
S113000071C000000C94B50B0C9493090C94430A32
S11300100C94830B88C0000086C0000084C00000DC
S113002082C000000C94220C0C94EB0B7CC00000EA
S11300307AC0000078C0000076C0000074C00000E0
S113004072C0000070C000006EC000006CC00000F0
S11300506AC0000068C0000066C0000064C0000000
S113006062C0000060C000005EC000005CC0000010
S11300705AC000000C942E0B56C0000054C000005F
S11300800C94F90A50C000004EC000004CC000009F
S11300904AC0000048C0000046C0000044C0000040
S11300A042C0000040C0000062C700003CC0000025
S11300B03AC0000038C0000036C0000041C600004D
S11300C032C0000030C000002EC000002CC0000070
S11300D02AC0000028C0000026C0000024C0000080
S11300E022C0000011241FBECFEFD1E2DEBFCDBF7E
S11300F000E00CBF12E0A0E0B2E0E0EAF9E100E0C9
S11301000BBF02C007900D92A034B107D9F723E0CA
S1130110A0E4B2E001C01D92A833B207E1F70E9447
S1130120DA080C94CE0C3AC787B1807F87B988B1BE
S1130130806288B988B18F7B88B982E08A95F1F7AB
S113014000C088B1806888B992E09A95F1F700C040
S113015086B18295807F92E09A95F1F700C098B1BC
S11301609F7798B995E09A95F1F7000098B1906857
S113017098B992E09A95F1F700C096B1807892E030
S11301809A95F1F700C098B19F7798B995E09A9540
S1130190F1F700008111D5CF88B18F7D88B987B17F
S11301A08F6087B90895282F22952F708F70611161
S11301B004C098B19F7B98B903C098B1906498B972
S11301C092E09A95F1F700C098B1906898B998B107
S11301D0907F922B98B995E09A95F1F7000098B129
S11301E09F7798B995E09A95F1F7000098B19068D7
S11301F098B998B1907F892B88B985E08A95F1F7F1
S1130200000088B18F7788B995E09A95F1F70000DE
S11302108BCF0895CF93C82F2FEF86E791E021501D
S113022080409040E1F700C0000087B18F6087B93B
S113023087B1806887B987B1806487B987B18062E4
S113024087B988B1807F88B988B18F7788B988B138
S11302508F7D88B988B18F7B88B900C000C0000049
S113026088B1806888B988B1826088B925E02A9508
S1130270F1F7000088B18F7788B985E08A95F1F7A6
S1130280000052DF60E08C2F8C608DDF60E088E23C
S11302908ADFCF910895CF93DF93EC0103C061E02F
S11302A082DF219688818111FACFDF91CF91089561
S11302B0EF92FF920F931F93CF93DF9300D01F927F
S11302C01F92CDB7DEB77B01FE01319625E0DF0139
S11302D01D922A95E9F724E030E00FC06AE070E04F
S11302E00E94980CE1E0F0E0EC0FFD1FE20FF31F19
S11302F08083862F972F21503109009779F7BFEF1C
S1130300EB16FB0681F403C00F5F1F4F02C000E031
S113031010E0E1E0F0E0EC0FFD1FE00FF11F2081A1
S1130320222391F304C005E010E00E191F0999235C
S113033084F461E08DE237DF0CC0E1E0F0E0EC0F23
S1130340FD1FE00FF11F808161E0805D2CDF0F5FF6
S11303501F4F053011058CF30F900F900F900F90E5
S11303600F90DF91CF911F910F91FF90EF9008951F
S1130370883228F46111806460E0806814CF0895A5
S11303809091400280910602890F809340028091EF
S1130390400284301CF01092400207C08091400259
S11303A088231CF483E080934002E09140020E2EE7
S11303B0000CFF0BE050FE4F808182B98091040253
S11303C090910602890F8093040280910402823E78
S11303D050F080910602813031F480910402885CEF
S11303E0809304020DC080910402893148F4809105
S11303F006028F3F29F480910402885380930402FB
S1130400109295001092940081E0089580916A0200
S1130410882381F1809141029091420299231CF436
S11304209195819591090F97ACF410926A021092FC
S1130430680264D4E0916302F0E0EC52FD4F8081E5
S11304402091040290E0821B9109909342028093D0
S113045041021FC0E0916302F0E0ED52FD4F808144
S11304602091040290E0821B9109909342028093B0
S113047041020FC0E0916302F0E0EC52FD4F808135
S11304802091040290E0821B910990934202809390
S113049041028091410290914202853691055CF0BF
S11304A08091410290914202885C910990934202AA
S11304B08093410211C080914102909142028C3993
S11304C09F4F54F4809141029091420288539F4F70
S11304D09093420280934102209141023091420262
S11304E033231CF43195219531098091070290E062
S11304F02817390724F481E08093690202C010921E
S1130500690281E008958091410290914202892B11
S113051091F480914302909144028130974030F0ED
S1130520109206021092690281E0089581E080939E
S11305306B0280E0089580914102909142029923D8
S11305401CF49195819591098B359105B4F08091B6
S113055043029091440281159A4078F410926B0200
S113056080910602882329F0809106028093050277
S113057018C081E0809306020895209141023091D1
S1130580420281E0121613060CF080E02091410231
S113059030914202932F991F9927991F891B8093A9
S11305A005029091050280910602981306C080917D
S11305B005028093060281E00895809143029091A0
S11305C0440281159A4030F080910502809306021E
S11305D081E0089581E080936B0280E00895109299
S11305E046021092450280E09AE090934402809380
S11305F04302089580910602811102C0F0DF7EC09B
S113060080916902811108C080916B02811104C03C
S1130610809168028823C9F1E0914602F0E0EE0F70
S1130620FF1FE059FD4F2081318180914302909159
S11306304402820F931F909344028093430280915B
S113064043029091440281309A40A0F08091680264
S1130650882329F080914C02833008F44FC080E055
S11306609AE09093440280934302109246021092BF
S11306706B0244C080914602882309F43FC08091F4
S1130680460281508093460239C080914302909182
S1130690440281309340E0F18091430290914402FE
S11306A0E0914602F0E0EE0FFF1FE059FD4F20817C
S11306B03181821B930B9093440280934302809177
S11306C04302909144028130934038F08091430278
S11306D09091440281309A4030F080E093E090930E
S11306E04402809343029091460280910702981736
S11306F028F4809146028F5F8093460280914302E2
S113070090914402909399008093980081E0089519
S113071080E00895E1E9F0E08081886080838FEFD4
S11307209FEF9093990080939800109295001092F7
S11307309400E1E7F0E08081826080830895109264
S113074095001092940020E03AE0309399002093B1
S11307509800E1E9F0E080818360808388B382605F
S113076088BB30934402209343020895E1E9F0E00A
S113077080818D7F808380818E7F80830895109215
S113078071021092700220E03AE081E090E024C00F
S1130790FC013197EE0FFF1FE059FD4F408151815D
S11307A0241B350B40815181485D5F4FFC01EE0FE6
S11307B0FF1FE059FD4F5183408340815181413AED
S11307C0510548F0FC01EE0FFF1FE059FD4F40EAD0
S11307D050E051834083019684309105C8F2FC01B6
S11307E0EE0FFF1FE059FD4F40EA50E05183408374
S11307F01AC0FC013197EE0FFF1FE059FD4F4081F5
S11308005181241B350B211543E0340710F420E0FB
S113081033E00196FC01EE0FFF1FE059FD4F40EA63
S113082050E051834083A901405E51404130534020
S113083000F72AC0AC014F5F5F4FFC01EE0FFF1FB2
S1130840E059FD4F60817181261B370B60817181F6
S11308506832710548F4FA01EE0FFF1FE059FD4FAD
S113086011821082CA0114C0880F991FFC01E0593B
S1130870FD4F808191818897FA01EE0FFF1FE059A7
S1130880FD4F91838083CA01213043E0340790F601
S113089080930702089573DF80E09AE09093440206
S11308A08093430210926F021092040282E38093B9
S11308B0D40245DF11C080914102909142029923F4
S11308C01CF4919581959109449734F480916F02B9
S11308D0811102C01092040280916F02882359F39F
S11308E082E38093D40281E0089580916A028111A9
S11308F0BCC080910402E0916302F0E0ED52FD4F30
S1130900208190E0821B91099C0122F42227332745
S1130910281B390B8FE0821B80934C0280910702C5
S113092090914602891B80934B02409106022091CC
S11309304102309142024203C001439F900D1124B1
S11309401816190644F080914302909144028115CF
S11309509A4008F43FC090914C0280910702981786
S113096098F4809143029091440293509695879510
S113097040914C02489F9001499F300D11243093BF
S113098052022093510264C0809143029091440228
S113099093509695879540914B02489F9001499FAB
S11309A0300D112480914C024091070290E0841B89
S11309B0910960E073E0869FA001879F500D969F88
S11309C0500D1124CA01820F931F909352028093F9
S11309D051023EC0209143023091440280E09AE0EB
S11309E0821B930B9695879540910702489F90012F
S11309F0499F300D112490910702892F90E0AC019A
S1130A005695542F442757954795982F8827990F23
S1130A10990F841B950B820F931F20914C024091D8
S1130A20070230914B0250E0431B510930E0241B74
S1130A30350B60E073E0269FA001279F500D369F81
S1130A40500D1124840F951F9093520280935102EC
S1130A50209151023091520280910A0290910B022E
S1130A602817390720F481E0089580E0089580E094
S1130A700895809141029091420299231CF491952A
S1130A80819591090F970CF4D2C080914102909105
S1130A90420299231CF49195819591098F5080937A
S1130AA04A028091070290914602891B80934B026F
S1130AB080914A02893208F0BCC04091060220911C
S1130AC04102309142024203C001439F900D112420
S1130AD0181619060CF04EC090914B0280914A02F0
S1130AE0891798F48091430290914402935096950B
S1130AF0879540914B02489F9001499F300D1124E6
S1130B003093500220934F0285C080914A02209175
S1130B104B0290E0821B91099093500280934F0204
S1130B2040914F025091500220E033E0429FC001B7
S1130B30439F900D529F900D1124909350028093E7
S1130B404F02809143029091440293509695879569
S1130B5040914B02489F9001499F300D1124809190
S1130B604F0290915002820F931F909350028093F2
S1130B704F0250C080914A0220914B0290E0821BA8
S1130B8091099093500280934F0240914F025091EB
S1130B90500220E033E0429FC001439F900D529FDA
S1130BA0900D11249093500280934F0220914302A0
S1130BB03091440280E09AE0821B930B96958795CE
S1130BC040910702489F9001499F300D1124809164
S1130BD04F0290915002820F931F90935002809382
S1130BE04F028091070290E09C013695322F222714
S1130BF037952795982F8827990F990F821B930B68
S1130C0020914F0230915002820F931F9093500213
S1130C1080934F0220914F0230915002809108023C
S1130C20909109028217930730F481E0089580E0DF
S1130C30089581E0089580E0089585B1807885B9AC
S1130C4085B18F6085B910926C0280916C02089511
S1130C5015B810926C0280916C02089584B5836873
S1130C6084BD85B5826085BD85B3826085BB17BCB4
S1130C70EFCF0895E1E2F1E080818860808380EF26
S1130C8090E09093290180932801109225011092FD
S1130C902401A3E7B0E08C9182608C93808185600D
S1130CA080838AB382608ABB8AEA80930C020895A7
S1130CB085B1807885B985B18B6085B916BC8CED1A
S1130CC087BD80916C02811112C081E080936C0217
S1130CD0D1DF80E094E290932901809328018091F0
S1130CE05F029091600290934E0280934D021092A5
S1130CF025011092240180916C02089585B18078B9
S1130D0085B985B18B6085B916BC8AEA87BD8091A7
S1130D106C0281110CC0AEDF81E080936C02809183
S1130D205F029091600290934E0280934D028091F5
S1130D306C020895E1E2F1E080818A7F8083089566
S1130D401F920F920FB60F9211240BB60F922F938E
S1130D503F934F935F936F937F938F939F93AF933F
S1130D60BF93EF93FF9380910C02825080930C0207
S1130D7083E090E0909329018093280180910C02F4
S1130D808E3630F48EE680930C0210926C02D2DF21
S1130D9016BC80910C0287BDFF91EF91BF91AF917A
S1130DA09F918F917F916F915F914F913F912F917F
S1130DB00F900BBE0F900FBE0F901F901895ECE78D
S1130DC0F0E0808180648083808181608083EAE7B1
S1130DD0F0E0808180688083808188608083808166
S1130DE0836080830895803C23E0920738F08091EB
S1130DF056028F5F8093560282E30895803223E087
S1130E00920738F0809155028F5F8093550286E9EE
S1130E1008958C32914038F0809154028F5F809312
S1130E20540288EC0895809153028F5F809353029B
S1130E3084E6089521E030E0082E02C0220F331F1B
S1130E400A94E2F72093470201C0660F8A95EAF7F5
S1130E5010924902109248021092490210924802DC
S1130E600FC099B1809147028923681314C08091FF
S1130E704802909149020196909349028093480256
S1130E80842F90E0209148023091490228173907B5
S1130E9040F381E0089580E0089521E030E0082ED9
S1130EA002C0220F331F0A94E2F72093470201C0C5
S1130EB0660F8A95EAF7109249021092480210923E
S1130EC049021092480210C0909103018091470298
S1130ED08923681314C080914802909149020196B5
S1130EE09093490280934802842F90E02091480215
S1130EF0309149022817390738F381E0089580E0DA
S1130F000895E1E8F0E080818260808380818860D8
S1130F10808388EE93E090938900809388000895FD
S1130F20E1EAF0E080818860808387E090E090933C
S1130F30A9008093A8001092A5001092A400A2E733
S1130F40B0E08C9182608C9380818560808389B3CA
S1130F50826089BB0895E1EAF0E080818A7F808322
S1130F600895E1EAF0E080818560808308951F920E
S1130F700F920FB60F9211248F939F9380915F026B
S1130F809091600201969093600280935F029F911A
S1130F908F910F900FBE0F901F9018951F920F9274
S1130FA00FB60F9211248F938FEF88B98F910F9002
S1130FB00FBE0F901F90189560E081E0F4D860E0B8
S1130FC080E0D6D98091560262E070E090E070D95A
S1130FD085E192E060D98091530262E070E090E094
S1130FE067D985E192E057D98091550262E070E0BB
S1130FF090E05ED985E192E04ED98091540262E09E
S113100070E090E055D987E192E045D98091630280
S113101062E070E090E04CD961E080E0A9D98AE117
S113102092E039D920915F0230916002369527957C
S11310303695279536952795A5ECB0E28CD462E0D9
S113104070E0929582958F7089279F70892730D997
S11310508DE192E020D940915F02509160029A01A3
S1131060ADECBCEC78D49695879596958795969536
S113107087959C01220F331F880F991F880F991F92
S1131080880F991F820F931F61E070E09A01281B5B
S1131090390BC9010DD98FE192E0FDC8089560E0D4
S11310A081E081D860E080E063D98091630262E0EE
S11310B070E090E0FDD860E082E05AD98AE292E0E4
S11310C0EAD860E083E054D98091640262E070E081
S11310D090E0EED860E085E04BD98CE292E0DBD87A
S11310E060E086E045D98091560261E070E090E0CE
S11310F0DFD860E087E03CD98091530261E070E082
S113110090E0D6D860E088E033D98091550261E060
S113111070E090E0CDD860E089E02AD98091540253
S113112061E070E090E0C4D860E08AE021D98EE20A
S113113092E0B1D860E08CE01BD986E392E0ABD8B2
S113114060E08DE015D920915F0230916002369500
S1131150279536952795ABE7B4E1FDD363E070E0BE
S113116096958795A5D861E080E002D98091040224
S113117063E070E090E09CD861E083E0F9D888E116
S113118092E089D861E084E0F3D8E0916302F0E072
S1131190EC52FD4F808163E070E090E089D861E01B
S11311A08CE0E6D880910D0290910E0264E070E02C
S11311B07FC80895E1E6F0E080E8808381E08083E1
S11311C0F8948FEF81B984B987B91AB8E4E0F1E0F3
S11311D080818E7F80838DB182608DB9E9E6F0E0F5
S11311E080818260808380818C6080838081806242
S11311F080838081806C8083E8E6F0E08081826077
S11312008083ACE6B0E08C9182608C9380818160B5
S11312108083EBE6F0E0808188608083D0DD71DE3E
S113122079DA83E00E940A0160E081E00E94D30041
S11312308DB388608DBB78942EDB8DB387608DBBB6
S11312408DB3877F8DBB0ADD109264021092630216
S11312502FDD66DE809114028823B1F180915F0254
S11312609091600220915D0230915E02821B930B8B
S1131270C39748F014DF80915F02909160029093CD
S11312805E0280935D0280916E02882319F390912F
S1131290630280916402981749F080915F029091F3
S11312A0600290935C0280935B02D4CF80915F02D2
S11312B09091600220915B0230915C02821B930B3F
S11312C0813A9F4038F22AC0B8DC489BFECF4EDA00
S11312D042DECDB381E08DBBECE6F0E080818D7F12
S11312E08083EBE6F0E08081877F8083A6DC77D97A
S11312F0809114028823E1F3489BFECFCDBBECE63A
S1131300F0E0808182608083EBE6F0E08081886099
S1131310808327DE14DAF2DC24DE9CCFF89415B83F
S113132012B84ADEFFCF1F920F920FB60F9211240C
S11313300BB60F922F933F934F935F936F937F93CB
S11313408F939F93AF93BF93CF93DF93EF93FF93C9
S113135080911302882361F14CE361E081E06ADD4E
S1131360882309F478C0109213028DB38D7F8DBB4E
S1131370E9E6F0E080818B7F80838DB382608DBB52
S113138010926202109261028FEF93E09093120226
S113139080931102EAE7F0E0808180648083809189
S11313A05F029091600290935A028093590253C055
S11313B04CE360E081E03EDD882309F44CC0809179
S11313C05F02909160022091590230915A02821B6F
S11313D0930B4F9708F43FC081E0809313028DB3C1
S11313E08D7F8DBBE9E6F0E08081846080838DB3DE
S11313F082608DBB809111029091120290930E0233
S113140080930D028091110290911202823F9340C9
S113141010F58091610290916202C397E0F0C0914F
S11314206402D0E08091110290911202DCDCCC5273
S1131430DD4F8883E0916402F0E0A0916402B0E0A3
S1131440AC52BD4F8C91EB52FD4F8083809164026E
S11314508F5F809364028CB382608CBBFF91EF91A9
S1131460DF91CF91BF91AF919F918F917F916F91B8
S11314705F914F913F912F910F900BBE0F900FBE34
S11314800F901F9018951F920F920FB60F92112470
S11314900BB60F922F933F934F935F936F937F936A
S11314A08F939F93AF93BF93EF93FF9380916D02BC
S11314B081112DC04CE360E082E0BCDC882309F498
S11314C085C091E090936D028DB38B7F8DBBE9E66F
S11314D0F0E08081806180838DB384608DBB8CB3A8
S11314E084608CBB9093650280916A028111A5DBB4
S11314F080E090E2909309028093080280915F0259
S11315009091600290935802809357025FC04CE31D
S113151061E082E08FDC882309F458C080915F0287
S1131520909160022091570230915802821B930BD4
S11315304F9708F44BC010926D028DB38B7F8DBB17
S1131540E9E6F0E080818F7E80838DB384608DBB7B
S11315508CB384608CBB9091630280916402981771
S113156038F4809163028F5F809363021092690262
S1131570809141029091420299231CF491958195A6
S11315809109409724F081E080936A0201C0B6DBA0
S1131590109268021092650281E080936602809145
S11315A09400909195002091980030919900821BAD
S11315B0930B905A90930B0280930A0280915F02DE
S11315C0909160029093580280935702FF91EF919B
S11315D0BF91AF919F918F917F916F915F914F9147
S11315E03F912F910F900BBE0F900FBE0F901F9045
S11315F018951F920F920FB60F9211240BB60F92EB
S11316002F933F934F935F936F937F938F939F9306
S1131610AF93BF93EF93FF930E94C0010E94060211
S11316200E9483020E94FA0281E0809367029EB1C5
S113163088E089278EB9FF91EF91BF91AF919F9177
S11316408F917F916F915F914F913F912F910F9067
S11316500BBE0F900FBE0F901F9018951F920F9204
S11316600FB60F9211240BB60F922F933F938F93C3
S11316709F93EF93FF938091780090E090931002F2
S113168080930F028091790090E0982F8827209111
S11316900F0230911002820F931F909310028093D7
S11316A00F0280916102909162020196909362020E
S11316B08093610220910F023091100280911102F7
S11316C0909112022817390740F480910F029091EB
S11316D010029093120280931102809113028111DF
S11316E005C0EAE7F0E0808180648083FF91EF9198
S11316F09F918F913F912F910F900BBE0F900FBE32
S11317000F901F9018951F920F920FB60F921124ED
S11317100BB60F922F933F934F935F936F937F93E7
S11317208F939F93AF93BF93EF93FF934CE361E049
S113173083E080DB882331F082E38093040281E03C
S113174080936F02FF91EF91BF91AF919F918F9121
S11317507F916F915F914F913F912F910F900BBEAD
S11317600F900FBE0F901F9018951F920F920FB6F7
S11317700F9211240BB60F922F933F934F935F93C5
S11317806F937F938F939F93AF93BF93EF93FF9345
S11317904AEF60E080E04EDB882351F08091140230
S11317A0882319F01092140203C081E0809314027C
S11317B0FF91EF91BF91AF919F918F917F916F9125
S11317C05F914F913F912F910F900BBE0F900FBEE1
S11317D00F901F9018951F920F920FB60F9211241D
S11317E00BB60F922F933F934F935F936F937F9317
S11317F08F939F93AF93BF93EF93FF934AEF61E06F
S113180080E04BDB882359F081E080936E02809165
S11318105F029091600290935C0280935B02FF915F
S1131820EF91BF91AF919F918F917F916F915F9154
S11318304F913F912F910F900BBE0F900FBE0F90C1
S11318401F9018951F920F920FB60F9211240BB68A
S11318500F922F933F934F935F936F937F938F9345
S11318609F93AF93BF93EF93FF9380916702882375
S113187009F449C09091650280916A02981779F041
S1131880F8D8882341F0D9D980E094E390930902F1
S1131890809308020CC01092650230DA08C080916F
S11318A06502882321F080916A028111C6D9809152
S11318B06602882341F120910A0230910B02809143
S11318C04302909144022817390728F410926602C3
S11318D01092680218C02091430230914402809112
S11318E00A0290910B02821B930B90930B0280933C
S11318F00A020E947504882321F081E08093680223
S113190002C01092680210926702FF91EF91BF919A
S1131910AF919F918F917F916F915F914F913F9183
S11319202F910F900BBE0F900FBE0F901F90189524
S113193097FB072E16F4009406D077FD08D01AD032
S113194007FC05D03EF4909581959F4F08957095BE
S113195061957F4F0895A29FB001B39FC001A39FDB
S1131960700D811D1124911DB29F700D811D1124D4
S1131970911D0895AA1BBB1B51E107C0AA1FBB1FE1
S1131980A617B70710F0A61BB70B881F991F5A9507
S1131990A9F780959095BC01CD010895F894FFCFE7
S11319A0D8B8B4D43201013200200060AAFF03FF8A
S11319B003FF0301012C002D3E00543D002E007353
S11319C020436F6D706C657465002F00280029003A
S11319D04D002050002054002000440020530000FB
S9030000FC
