S01F00004D4543483435385F536F7274696E675F50726F6A6563742E73726563CC
S113000071C000000C94190BB6C700000C946C0866
S11300100C94E70A87C0000085C0000083C000007C
S113002081C000007FC000000C944F0B7BC0000017
S113003079C0000077C0000075C0000073C00000E4
S113004071C000006FC000006DC000006BC00000F4
S113005069C0000067C0000065C0000063C0000004
S113006061C000005FC000005DC000005BC0000014
S113007059C000000C94920A55C0000053C00000FF
S11300800C94A6094FC000004DC000004BC00000F6
S113009049C0000047C0000045C0000043C0000044
S11300A041C000003FC000009CC500003BC00000F0
S11300B039C0000037C0000035C0000068C400002B
S11300C031C000002FC000002DC000002BC0000074
S11300D029C0000027C0000025C0000023C0000084
S11300E021C0000011241FBECFEFD1E2DEBFCDBF7F
S11300F000E00CBF12E0A0E0B2E0ECE7F7E100E0C2
S11301000BBF02C007900D92A033B107D9F723E0CB
S1130110A0E3B2E001C01D92A032B207E1F785D698
S11301200C94BC0B75C587B1807F87B988B1806298
S113013088B988B18F7B88B982E08A95F1F700C0CD
S113014088B1806888B992E09A95F1F700C086B1C9
S11301508295807F92E09A95F1F700C098B19F77DD
S113016098B995E09A95F1F7000098B1906898B91C
S113017092E09A95F1F700C096B1807892E09A9552
S1130180F1F700C098B19F7798B995E09A95F1F787
S113019000008111D5CF88B18F7D88B987B18F6078
S11301A087B90895282F22952F708F70611104C08C
S11301B098B19F7B98B903C098B1906498B992E0C4
S11301C09A95F1F700C098B1906898B998B1907F6A
S11301D0922B98B995E09A95F1F7000098B19F7722
S11301E098B995E09A95F1F7000098B1906898B99C
S11301F098B1907F892B88B985E08A95F1F7000042
S113020088B18F7788B995E09A95F1F700008BCF84
S11302100895CF93C82F2FEF86E791E021508040B7
S11302209040E1F700C0000087B18F6087B987B1C3
S1130230806887B987B1806487B987B1806287B9DC
S113024088B1807F88B988B18F7788B988B18F7D6C
S113025088B988B18F7B88B900C000C0000088B11C
S1130260806888B988B1826088B925E02A95F1F759
S1130270000088B18F7788B985E08A95F1F700008E
S113028052DF60E08C2F8C608DDF60E088E28ADFD3
S1130290CF910895CF93DF93EC0103C061E082DF37
S11302A0219688818111FACFDF91CF910895EF9241
S11302B0FF920F931F93CF93DF9300D01F921F924F
S11302C0CDB7DEB77B01FE01319625E0DF011D923B
S11302D02A95E9F724E030E00FC06AE070E00E945C
S11302E0860BE1E0F0E0EC0FFD1FE20FF31F8083CB
S11302F0862F972F21503109009779F7BFEFEB161E
S1130300FB0681F403C00F5F1F4F02C000E010E042
S1130310E1E0F0E0EC0FFD1FE00FF11F208122234C
S113032091F304C005E010E00E191F09992384F429
S113033061E08DE237DF0CC0E1E0F0E0EC0FFD1F7F
S1130340E00FF11F808161E0805D2CDF0F5F1F4FA4
S1130350053011058CF30F900F900F900F900F90B4
S1130360DF91CF911F910F91FF90EF900895883204
S113037028F46111806460E0806814CF089590913E
S1130380300280910602890F8093300280913002FE
S113039084301CF01092300207C080913002882310
S11303A01CF483E080933002E09130020E2E000CA6
S11303B0FF0BE050FE4F808182B98091040290913E
S11303C00602890F8093040280910402893C50F054
S11303D080910602813031F480910402885C80931C
S11303E004020DC080910402823348F48091060215
S11303F08F3F29F480910402885380930402109261
S113040095001092940081E008958091520288230F
S1130410E9F0E0914E02F0E0E554FD4F8081209137
S1130420040290E0821B910990933202809331027E
S1130430809131029091320299231CF49195819517
S11304409109469794F4109252020FC0E0914E0223
S1130450F0E0E454FD4F80812091040290E0821B7F
S113046091099093320280933102809131029091EC
S1130470320299231CF49195819591098536910551
S11304805CF08091310290913202885C91099093E2
S113049032028093310211C0809131029091320274
S11304A08C399F4F54F480913102909132028853D9
S11304B09F4F909332028093310280913102909148
S11304C03202892B19F481E08093510281E008956E
S11304D08091310290913202892B81F48091330210
S11304E09091340281159A4021F41092060281E021
S11304F0089581E08093530280E008958091310251
S1130500909132028737910524F08FEF8093050292
S113051046C080913102909132028A389F4F24F470
S113052081E0809305023BC08091310290913202B8
S113053099231CF491958195910986379105DCF4F2
S1130540809131029091320299231CF49195819506
S11305509109833591057CF0109253028091060233
S1130560882329F0809106028093050218C081E057
S1130570809306020895209131023091320281E085
S1130580121613060CF080E02091310230913202F1
S1130590932F991F9927991F891B80930502809196
S11305A033029091340281159A4030F08091050213
S11305B08093060281E008959091050280910602DD
S11305C0981306C0809105028093060281E0089585
S11305D081E08093530280E008958091510281115B
S11305E008C080915302811104C080915002882375
S11305F081F1E0913602F0E0EE0FFF1FE85AFD4F63
S1130600208131818091330290913402820F931FB3
S11306109093340280933302809133029091340298
S113062081309A4058F080E09AE0909334028093AD
S11306303302109236021092530244C08091360263
S1130640882309F43FC0809136028150809336029A
S113065039C08091330290913402893A9240E0F19A
S11306608091330290913402E0913602F0E0EE0F73
S1130670FF1FE85AFD4F20813181821B930B909319
S11306803402809333028091330290913402893A88
S1130690924038F0809133029091340281309A4034
S11306A030F088EA92E09093340280933302909180
S11306B0360280910702981728F4809136028F5FE2
S11306C08093360280913302909134029093990082
S11306D08093980081E0089580E008951092360296
S11306E01092350280E09AE09093340280933302B2
S11306F00895E1E9F0E08081886080838FEF9FEFC7
S11307009093990080939800109295001092940011
S1130710E1E7F0E080818260808308951092950083
S11307201092940020E03AE03093990020939800CE
S1130730E1E9F0E080818360808388B3826088BBD4
S113074030933402209333020895E1E9F0E080818C
S11307508D7F808380818E7F8083089510925902DB
S11307601092580220E03AE081E090E024C0FC01BD
S11307703197EE0FFF1FE85AFD4F40815181241B32
S1130780350B40815181485C5F4FFC01EE0FFF1F28
S1130790E85AFD4F5183408340815181413E5105C8
S11307A048F0FC01EE0FFF1FE85AFD4F40EE50E009
S11307B051834083019684309105C8F2FC01EE0F09
S11307C0FF1FE85AFD4F40EE50E0518340831AC0AA
S11307D0FC013197EE0FFF1FE85AFD4F4081518114
S11307E0241B350B283A42E0340710F428EA32E09F
S11307F00196FC01EE0FFF1FE85AFD4F40EE50E05A
S113080051834083A901405A5240493A524000F76B
S11308102AC0AC014F5F5F4FFC01EE0FFF1FE85A87
S1130820FD4F60817181261B370B608171816833B4
S1130830710548F4FA01EE0FFF1FE85AFD4F1182CB
S11308401082CA0114C0880F991FFC01E85AFD4F99
S113085080819181C897FA01EE0FFF1FE85AFD4F7E
S113086091838083CA01293A42E0340790F6809349
S11308700702089573DF80E09AE090933402809336
S11308803302109257021092040282E38093BC0256
S113089045DF11C0809131029091320299231CF4FA
S11308A0919581959109449734F48091570281116F
S11308B002C01092040280915702882359F382E304
S11308C08093BC0281E0089585B1807885B985B1B3
S11308D08B6085B916BC86EE87BD81E08093540297
S11308E0109225011092240180915402089585B13B
S11308F0807885B985B18B6085B916BC84EB87BDDA
S113090081E08093540280915402089585B18078E7
S113091085B985B18F6085B91092540280915402D3
S1130920089515B81092540280915402089584B524
S1130930836884BD85B5826085BD85B3826085BBCF
S113094017BCEFCF0895E1E2F1E0808188608083F5
S113095080E891E090932901809328011092250169
S113096010922401A3E7B0E08C9182608C93808183
S1130970856080838AB382608ABB84EB809308029B
S11309800895E1E2F1E080818A7F808308951F92D7
S11309900F920FB60F9211240BB60F922F933F9321
S11309A04F935F936F937F938F939F93AF93BF9373
S11309B0EF93FF938091080281508093080281E0B5
S11309C090E0909329018093280180910802863950
S11309D020F486E980930802D4DF16BC80910802D3
S11309E087BDFF91EF91BF91AF919F918F917F91BF
S11309F06F915F914F913F912F910F900BBE0F908C
S1130A000FBE0F901F901895ECE7F0E08081806492
S1130A108083808181608083EAE7F0E08081806860
S1130A20808380818860808380818360808308954F
S1130A30863B23E0920738F080913D028F5F8093DC
S1130A403D0282E30895803223E0920738F08091DA
S1130A503C028F5F80933C0286E90895803991407F
S1130A6038F080913B028F5F80933B0288EC0895BD
S1130A7080913A028F5F80933A0284E6089521E0E0
S1130A8030E0082E02C0220F331F0A94E2F72093AD
S1130A90370201C0660F8A95EAF710923902109264
S1130AA0380210923902109238020FC099B1809125
S1130AB037028923681314C0809138029091390257
S1130AC001969093390280933802842F90E020910C
S1130AD03802309139022817390740F381E008952C
S1130AE080E0089521E030E0082E02C0220F331F79
S1130AF00A94E2F72093370201C0660F8A95EAF759
S1130B00109239021092380210923902109238026F
S1130B1010C090910301809137028923681314C097
S1130B208091380290913902019690933902809312
S1130B303802842F90E0209138023091390228172E
S1130B40390738F381E0089580E00895E1E8F0E0A2
S1130B5080818260808380818860808388EE93E0D6
S1130B6090938900809388000895109285001092D4
S1130B70840026B3226026BB20E030E007C0B19B8E
S1130B8005C046B3426046BB2F5F3F4F2817390765
S1130B90B4F30895E1EAF0E080818860808387E01F
S1130BA090E09093A9008093A8001092A500109261
S1130BB0A400A2E7B0E08C9182608C938081856070
S1130BC0808389B3826089BB0895E1EAF0E0808183
S1130BD08A7F80830895E1EAF0E0808185608083E4
S1130BE008951F920F920FB60F9211248F939F9323
S1130BF080914A0290914B02019690934B0280930C
S1130C004A029F918F910F900FBE0F901F901895DD
S1130C101F920F920FB60F9211248F938FEF88B902
S1130C208F910F900FBE0F901F90189560E081E098
S1130C30B9DA60E080E09BDB80913D0262E070E025
S1130C4090E035DB83E192E025DB80913A0262E0BB
S1130C5070E090E02CDB83E192E01CDB80913C02AD
S1130C6062E070E090E023DB83E192E013DB8091AB
S1130C703B0262E070E090E01ADB85E192E00ADB7F
S1130C8080914E0262E070E090E011DB61E080E070
S1130C906EDB88E192E0FEDA20914A0230914B0249
S1130CA0369527953695279536952795A5ECB0E288
S1130CB040D562E070E0929582958F7089279F708D
S1130CC08927F5DA8BE192E0E5DA40914A02509106
S1130CD04B029A01ADECBCEC2CD596958795969574
S1130CE08795969587959C01220F331F880F991F2E
S1130CF0880F991F880F991F820F931F61E070E07E
S1130D009A01281B390BC901D2DA8DE192E0C2CADB
S1130D10089560E081E046DA60E080E028DB8091BD
S1130D204E0262E070E090E0C2DA60E082E01FDB35
S1130D3088E292E0AFDA60E083E019DB80914F0251
S1130D4062E070E090E0B3DA60E085E010DB8AE214
S1130D5092E0A0DA60E086E00ADB80913D0261E087
S1130D6070E090E0A4DA60E087E001DB80913A0271
S1130D7061E070E090E09BDA60E088E0F8DA80916E
S1130D803C0261E070E090E092DA60E089E0EFDA42
S1130D9080913B0261E070E090E089DA60E08AE0F3
S1130DA0E6DA8CE292E076DA60E08CE0E0DA8EE279
S1130DB092E070DA60E08DE0DADA20914A02309154
S1130DC04B023695279536952795ABE7B4E1B1D418
S1130DD063E070E0969587956ADA61E080E0C7DAAF
S1130DE0809104029091050263E070E060DA61E0B2
S1130DF083E0BDDA86E192E04DDA61E084E0B7DABF
S1130E00E0914E02F0E0E454FD4F808163E070E035
S1130E1090E04DDA61E08CE0AADA80910B029091C7
S1130E200C0264E070E043CA0895E1E6F0E080E873
S1130E30808381E08083F8948FEF81B984B987B986
S1130E401AB8E4E0F1E080818E7F8083E9E6F0E087
S1130E5080818260808380818C60808380818062D5
S1130E6080838081806C8083E8E6F0E0808182600A
S1130E708083ECE6F0E0808182608083C5DD66DEFD
S1130E8038DC83E0C6D960E081E08CD98DB388601A
S1130E908DBB7894EFDC80ED97E067DE8DB38760DF
S1130EA08DBB8DB3877F8DBB42DD10924F021092B4
S1130EB04E020ADD6FDE809112028823B9F180911F
S1130EC04A0290914B022091480230914902821BC0
S1130ED0930B8536910548F01CDF80914A0290916E
S1130EE04B029093490280934802809156028823D2
S1130EF011F390914E0280914F02981749F080911E
S1130F004A0290914B029093470280934602D3CFBA
S1130F1080914A0290914B022091460230914702FF
S1130F20821B930B813A9F4030F220C0EFDC489B38
S1130F30FECF0BDC4ADECDB381E08DBBECE6F0E006
S1130F4080818D7F8083EDDCC9DBE3DE809112023A
S1130F508823E1F3489BFECFCDBBECE6F0E0808133
S1130F608260808338DEDADB36DEA5CFF89415B8EC
S1130F7012B85CDEFFCF1F920F920FB60F921124AE
S1130F800BB60F922F933F934F935F936F937F937F
S1130F908F939F93AF93BF93CF93DF93EF93FF937D
S1130FA080911102882369F14CE361E081E067DDFF
S1130FB0882309F479C0109211028DB38D7F8DBB03
S1130FC0E9E6F0E080818B7F80838DB382608DBB06
S1130FD010924D0210924C028FEF93E09093100206
S1130FE080930F02EAE7F0E0808180648083ABDCC9
S1130FF080914A0290914B02909341028093400267
S113100053C04CE360E081E03ADD882309F44CC02E
S113101080914A0290914B0220914002309141020A
S1131020821B930B069708F43FC081E08093110262
S11310308DB38D7F8DBBE9E6F0E080818460808391
S11310408DB382608DBB80910F02909110029093BA
S11310500C0280930B0280910F0290911002823F48
S1131060934010F580914C0290914D02C397E0F0AB
S1131070C0914F02D0E080910F0290911002D8DC11
S1131080C454DD4F8883E0914F02F0E0A0914F02F9
S1131090B0E0A454BD4F8C91E354FD4F8083809104
S11310A04F028F5F80934F028CB382608CBBFF91A1
S11310B0EF91DF91CF91BF91AF919F918F917F91EC
S11310C06F915F914F913F912F910F900BBE0F90B5
S11310D00FBE0F901F9018951F920F920FB60F928C
S11310E011240BB60F922F933F934F935F936F93FB
S11310F07F938F939F93AF93BF93EF93FF938091CD
S1131100550281116DC04CE360E082E0B8DC8823B5
S113111009F406C181E0809355028DB38B7F8DBBAA
S1131120E9E6F0E08081806180838DB384608DBBCB
S11311306CD98091330290913402885A92409695EA
S11311408795209107024091360230E0241B310933
S1131150289FA001299F500D389F500D1124809184
S113116031029091320299231CF491958195910951
S11311704697209107026091360230E0261B310920
S1131180821B930B68EA72E0869F9001879F300D63
S1131190969F300D1124C901840F951F909343022B
S11311A08093420280915402882349F08091420244
S11311B0909143028130904850F0A8DB08C08091A0
S11311C04202909143028130904608F09FDB809167
S11311D04A0290914B0290933F0280933E02A0C03A
S11311E04CE361E082E04BDC882309F499C08091F0
S11311F04A0290914B0220913E0230913F02821BA1
S1131200930B069708F48CC0109255028DB38B7F14
S11312108DBBE9E6F0E080818F7E80838DB38460AE
S11312208DBB90914E0280914F02981738F48091B3
S11312304E028F5F80934E021092510280913102D0
S11312409091320299231CF49195819591094797C5
S11312502CF05CDB81E08093520262C08091330207
S113126090913402885A924096958795209107026E
S11312704091360230E0241B3109289FA001299FA8
S1131280500D389F500D112420910402E0914E021C
S1131290F0E0E554FD4F808130E0281B310986E100
S11312A090E0821B930B209107026091360230E09C
S11312B0261B3109821B930B68EA72E0869F90011A
S11312C0879F300D969F300D1124420F531F50936A
S11312D045024093440280915402882389F080910E
S11312E044029091450281159045D0F481E08093A9
S11312F0500280E090E590930A028093090210C0A6
S11313008091440290914502883A984748F481E0DC
S11313108093500288EA98E790930A028093090226
S11313208CB384608CBBFF91EF91BF91AF919F917F
S11313308F917F916F915F914F913F912F910F907A
S11313400BBE0F900FBE0F901F9018951F920F9217
S11313500FB60F9211240BB60F922F933F934F9316
S11313605F936F937F938F939F93AF93BF93EF9309
S1131370FF9305D84AD880915002882309F45EC0AF
S11313808091330290913402885A924096958795C1
S1131390209107024091360230E0241B3109289F36
S11313A0A001299F500D389F500D11242091040253
S11313B0E0914E02F0E0E554FD4F808130E0281BBF
S11313C0310986E190E0821B930B20910702609122
S11313D0360230E0261B3109821B930B68EA72E067
S11313E0869F9001879F300D969F300D1124420FE8
S11313F0531F50934502409344022091330230918D
S113140034028091090290910A02821B930B9093FB
S11314100A0280930902209144023091450280918E
S1131420090290910A028217930740F488EA98E728
S113143090930A02809309021092500249D8CDD8A1
S11314408091540281115BC08091310290913202EB
S113145099231CF491958195910947970CF44EC0FA
S11314608091330290913402885A924096958795E0
S1131470209107024091360230E0241B3109289F55
S1131480A001299F500D389F500D112480913102E5
S11314909091320299231CF4919581959109469774
S11314A0209107026091360230E0261B3109821B2D
S11314B0930B68EA72E0869F9001879F300D969F98
S11314C0300D1124C901840F951F9093430280931A
S11314D0420280915202882349F080914202909105
S11314E043028115904658F402DA09C08091420201
S11314F09091430299231CF0FAD901C0F8D9FF91C5
S1131500EF91BF91AF919F918F917F916F915F9177
S11315104F913F912F910F900BBE0F900FBE0F90E4
S11315201F9018951F920F920FB60F9211240BB6AD
S11315300F922F933F938F939F93EF93FF938091F9
S1131540780090E090930E0280930D0280917900D0
S113155090E0982F882720910D0230910E02820F7F
S1131560931F90930E0280930D0280914C029091F0
S11315704D02019690934D0280934C0220910D02EE
S113158030910E0280910F029091100228173907B2
S113159040F480910D0290910E029093100280937A
S11315A00F0280911102811105C0EAE7F0E0808109
S11315B080648083FF91EF919F918F913F912F9150
S11315C00F900BBE0F900FBE0F901F9018951F9297
S11315D00F920FB60F9211240BB60F922F933F93D5
S11315E04F935F936F937F938F939F93AF93BF9327
S11315F0EF93FF934CE361E083E041DA882331F019
S113160082E38093040281E080935702FF91EF917B
S1131610BF91AF919F918F917F916F915F914F9106
S11316203F912F910F900BBE0F900FBE0F901F9004
S113163018951F920F920FB60F9211240BB60F92AA
S11316402F933F934F935F936F937F938F939F93C6
S1131650AF93BF93EF93FF934AEF60E080E00FDA1C
S1131660882351F080911202882319F010921202FB
S113167003C081E080931202FF91EF91BF91AF917B
S11316809F918F917F916F915F914F913F912F9196
S11316900F900BBE0F900FBE0F901F9018951F92C6
S11316A00F920FB60F9211240BB60F922F933F9304
S11316B04F935F936F937F938F939F93AF93BF9356
S11316C0EF93FF934AEF61E080E00CDA882359F04E
S11316D081E08093560280914A0290914B0290934C
S11316E0470280934602FF91EF91BF91AF919F9182
S11316F08F917F916F915F914F913F912F910F90B7
S11317000BBE0F900FBE0F901F90189597FB072EDE
S113171016F4009406D077FD08D01AD007FC05D043
S11317203EF4909581959F4F0895709561957F4FF4
S11317300895A29FB001B39FC001A39F700D811DA6
S11317401124911DB29F700D811D1124911D0895C6
S1131750AA1BBB1B51E107C0AA1FBB1FA617B707D3
S113176010F0A61BB70B881F991F5A95A9F78095EF
S10F17709095BC01CD010895F894FFCFC2
S113177CD8B8B4D432010132B4A878FF03FF03FF04
S113178C0301012C002D3E00543D002E0073204318
S113179C6F6D706C657465002F002800290054006F
S9030000FC
