S01B00005269736B79536F7274696E674D616368696E652E737265635C
S113000071C000000C945D0901C70000C8C700005E
S11300100C942A0987C0000085C0000083C000003A
S113002081C000000C94CC090C9494097BC000009E
S113003079C0000077C0000075C0000073C00000E4
S113004071C000006FC000006DC000006BC00000F4
S113005069C0000067C0000065C0000063C0000004
S113006061C000005FC000005DC000005BC0000014
S113007059C000000C94D50855C0000053C00000BE
S11300800C94A4084FC000004DC000004BC00000F9
S113009049C0000047C0000045C0000043C0000044
S11300A041C000003FC0000085C300003BC0000009
S11300B039C0000037C0000035C000005DC2000038
S11300C031C000002FC000002DC000002BC0000074
S11300D029C0000027C0000025C0000023C0000084
S11300E021C0000011241FBECFEFD1E2DEBFCDBF7F
S11300F000E00CBF12E0A0E0B2E0E2E8FAE100E0C8
S11301000BBF02C007900D92A834B107D9F723E0C2
S1130110A8E4B2E001C01D92A234B207E1F7C2D54F
S11301200C943F0D5EC380916B028111B7C0809126
S11301301102E0916402F0E0E858FD4F208190E064
S1130140821B91099C0122F422273327281B390B97
S11301508EE0821B80934D0280911402909178026C
S1130160891B80934C0240911302209174023091B8
S113017075024203C001439F900D112418161906FD
S113018044F0809176029091770281159A4008F4A8
S113019041C090914D02809114029817A0F480916F
S11301A0760290917702805F924096958795409170
S11301B04D02489F9001499F300D11243093530202
S11301C0209352025EC08091760290917702805F04
S11301D092409695879540914C02489F9001499F83
S11301E0300D112480914D024091140290E0841B43
S11301F0910960EF72E0869FA001879F500D969F42
S1130200500D1124CA01820F931F909353028093BF
S1130210520237C0809176029091770220E03AE052
S1130220281B390B3695279540911402429FC00133
S1130230439F900D11246091140248E853E0649F99
S11302409001659F300D1124820F931F20914D0260
S11302504091140230914C0250E0431B510930E0AC
S1130260241B350B60EF72E0269FA001279F500DE1
S1130270369F500D1124840F951F90935302809341
S113028052022091520230915302809102029091C5
S113029003022817390720F481E0089580E00895C7
S11302A080E00895809174029091750299231CF462
S11302B09195819591090E970CF4D5C080917402A3
S11302C09091750299231CF49195819591098E5012
S11302D080934B028091140290917802891B809341
S11302E04C0280914B02893208F0BFC04091130246
S11302F020917402309175024203C001439F900D16
S113030011241816190644F0809176029091770210
S113031081159A4008F450C090914C0280914B0290
S11303208917A0F48091760290917702805F9240C1
S11303309695879540914C02489F9001499F300DB6
S11303401124309351022093500280C080914B02BB
S113035020914C0290E0821B91099093510280936A
S11303605002409150025091510220EF32E0429FDE
S1130370C001439F900D529F900D11249093510200
S1130380809350028091760290917702805F924030
S11303909695879540914C02489F9001499F300D56
S11303A011248091500290915102820F931F9093D7
S11303B05102809350024AC080914B0220914C021A
S11303C090E0821B910990935102809350024091D6
S11303D050025091510220EF32E0429FC001439FEE
S11303E0900D529F900D11249093510280935002CE
S11303F0209176023091770280E09AE0821B930B81
S11304009695879540911402489F9001499F300D1D
S113041011248091500290915102820F931F909366
S11304205102809350024091140288E893E0489F5F
S11304309001499F300D11248091500290915102F6
S1130440820F931F90935102809350022091500287
S1130450309151028091000290910102821793071A
S113046030F481E0089580E0089581E0089580E00B
S1130470089585B1807885B985B18F6085B910926A
S11304806E0280916E02089515B810926E028091EA
S11304906E02089584B5836884BD85B5826085BD88
S11304A085B3826085BB17BCEFCF0895E1E2F1E02C
S11304B080818860808380EF90E09093290180930D
S11304C028011092250110922401A3E7B0E08C9139
S11304D082608C938081856080838AB382608ABBCA
S11304E086E980930402089585B1807885B985B141
S11304F08B6085B916BC86E987BD80916E02811137
S113050012C081E080936E02D1DF80E094E2909388
S11305102901809328018091600290916102909357
S11305204F0280934E021092250110922401809173
S11305306E02089585B1807885B985B18B6085B9DF
S113054016BC86E987BD80916E0281110CC0AEDFB6
S113055081E080936E028091600290916102909399
S11305604F0280934E0280916E020895E1E2F1E021
S113057080818A7F808308951F920F920FB60F9215
S113058011240BB60F922F933F934F935F936F9366
S11305907F938F939F93AF93BF93EF93FF93809138
S11305A0040282508093040283E090E09093290136
S11305B08093280180910402843630F484E6809389
S11305C0040210926E02D2DF16BC8091040287BD31
S11305D0FF91EF91BF91AF919F918F917F916F9117
S11305E05F914F913F912F910F900BBE0F900FBED3
S11305F00F901F901895ECE7F0E080818064808371
S1130600808181608083EAE7F0E080818068808374
S11306108081886080838081836080830895803CAA
S113062023E0920748F4803223E0920738F48C32B6
S1130630914030F088EC089582E3089586E90895A6
S113064084E6089521E030E0082E02C0220F331F13
S11306500A94E2F72093480201C0660F8A95EAF7EC
S113066010924A021092490210924A0210924902D0
S11306700FC099B1809148028923681312C08091F8
S1130680490290914A02019690934A02809349024A
S11306908091490290914A028417950750F381E0B2
S11306A0089580E0089521E030E0082E02C0220F72
S11306B0331F0A94E2F72093480201C0660F8A951B
S11306C0EAF710924A021092490210924A021092DA
S11306D0490210C090910301809148028923681354
S11306E012C08091490290914A02019690934A0265
S11306F0809349028091490290914A028417950798
S113070048F381E0089580E00895883C31F48091B5
S113071055028F5F8093550215C0863931F480915C
S113072056028F5F809356020DC0843631F4809157
S113073054028F5F8093540205C0809157028F5FEB
S11307408093570281E00895E1E8F0E080818260BF
S1130750808380818860808388EE93E09093890011
S1130760809388000895E1EAF0E0808188608083C6
S113077087E090E09093A9008093A8001092A500D0
S11307801092A400A2E7B0E08C9182608C938081E7
S11307908560808389B3826089BB0895E1EAF0E0D3
S11307A080818A7F80830895E1EAF0E0808185601A
S11307B0808308951F920F920FB60F9211248F9386
S11307C09F938091600290916102019690936102DF
S11307D0809360029F918F910F900FBE0F901F9096
S11307E018951F920F920FB60F9211248F938FEFCB
S11307F088B98F910F900FBE0F901F90189560E0ED
S113080081E064D160E081E061D185E192E0D6D1FC
S113081061E080E03FD28091570262E070E090E0B6
S1130820DAD183E292E0CAD161E080E033D28091F0
S1130830540262E070E090E0CED183E292E0BED157
S113084061E080E027D28091560262E070E090E09F
S1130850C2D183E292E0B2D161E080E01BD2809108
S1130860550262E070E090E0B6D183E292E0A6D156
S113087061E080E00FD28091640262E070E090E079
S1130880AAC1089560E081E021D160E080E002D255
S11308908091640262E070E090E09DD160E082E0CB
S11308A0F9D185E292E08AD160E083E0F3D18091CE
S11308B0650262E070E090E08ED160E085E0EAD10C
S11308C087E292E07BD160E086E0E4D18091570238
S11308D061E070E090E07FD160E087E0DBD180915F
S11308E0540261E070E090E076D160E088E0D2D11B
S11308F08091560261E070E090E06DD160E089E0A3
S1130900C9D18091550261E070E090E064D160E06B
S11309108AE0C0D189E292E051D160E08CE0BAD1A2
S113092083E392E04BD160E08DE0B4D1209160028A
S1130930309161023695279536952795ABE7B4E15A
S11309400E941C0D63E070E09695879544D161E0A8
S113095080E0A0D18091110263E070E090E03BD18F
S113096061E083E097D18BE292E028D161E084E0FA
S113097091D1E0916402F0E0E758FD4F808163E09B
S113098070E090E028D161E08CE084D18091050290
S11309909091060264E070E01EC1089560E081E079
S11309A095D08AE392E00AD161E080E073D180912E
S11309B0570262E070E090E00ED183E292E0FED054
S11309C061E080E067D18091540262E070E090E0E1
S11309D002D183E292E0F2D061E080E05BD18091C9
S11309E0560262E070E090E0F6D083E292E0E6D056
S11309F061E080E04FD18091550262E070E090E0C8
S1130A00EAD083E292E0DAD080916C02882389F004
S1130A1061E080E03FD1209165023091640284E678
S1130A2090E0831B910962E070E0820F911DD3C0B6
S1130A30089561E080E02ED18091650220916402E6
S1130A4090E062E070E0821B9109C5C0089587B10F
S1130A50807F87B988B1806288B988B18F7B88B973
S1130A6082E08A95F1F700C088B1806888B992E085
S1130A709A95F1F700C086B18295807F92E09A95AD
S1130A80F1F700C098B19F7798B995E09A95F1F77E
S1130A90000098B1906898B992E09A95F1F700C077
S1130AA096B1807892E09A95F1F700C098B19F775B
S1130AB098B995E09A95F1F700008111D5CF88B1E6
S1130AC08F7D88B987B18F6087B90895282F2295C3
S1130AD02F708F70611104C098B19F7B98B903C0C7
S1130AE098B1906498B992E09A95F1F700C098B1E2
S1130AF0906898B998B1907F922B98B995E09A959F
S1130B00F1F7000098B19F7798B995E09A95F1F7BD
S1130B10000098B1906898B998B1907F892B88B9F2
S1130B2085E08A95F1F7000088B18F7788B995E060
S1130B309A95F1F700008BCF0895CF93C82F2FEF2C
S1130B4086E791E0215080409040E1F700C000002A
S1130B5087B18F6087B987B1806887B987B18064AE
S1130B6087B987B1806287B988B1807F88B988B135
S1130B708F7788B988B18F7D88B988B18F7B88B920
S1130B8000C000C0000088B1806888B988B1826064
S1130B9088B925E02A95F1F7000088B18F7788B9E4
S1130BA085E08A95F1F7000052DF60E08C2F8C60BD
S1130BB08DDF60E088E28ADFCF910895CF93DF93E1
S1130BC0EC0103C061E082DF219688818111FACFB4
S1130BD0DF91CF910895EF92FF920F931F93CF93DC
S1130BE0DF9300D01F921F92CDB7DEB77B01FE01C9
S1130BF0319625E0DF011D922A95E9F724E030E0E3
S1130C000EC06AE070E005D7E1E0F0E0EC0FFD1FF4
S1130C10E20FF31F8083862F972F2150310900970D
S1130C2081F7BFEFEB16FB0681F403C00F5F1F4F84
S1130C3002C000E010E0E1E0F0E0EC0FFD1FE00F87
S1130C40F11F2081222391F304C005E010E00E1966
S1130C501F09992384F461E08DE238DF0CC0E1E0E0
S1130C60F0E0EC0FFD1FE00FF11F808161E0805D7B
S1130C702DDF0F5F1F4F053011058CF30F900F9080
S1130C800F900F900F90DF91CF911F910F91FF90D4
S1130C90EF900895883228F46111806460E08068E0
S1130CA015CF0895E1E6F0E080E8808381E0808359
S1130CB0F8948FEF81B984B987B91AB8E4E0F1E008
S1130CC080818E7F8083E9E6F0E08081826080838A
S1130CD080818C6080838081806280838081806C4D
S1130CE08083E8E6F0E0808182608083ACE6B0E057
S1130CF08C9182608C93808181608083EBE6F0E04C
S1130D0080818061808377DC1FDD8CD583E015DFF3
S1130D1060E081E0DBDE8DB388608DBB789443D6E0
S1130D208DB387608DBB8DB3877F8DBBB3DB109292
S1130D30650210926402D8DB16DD80910C028823D0
S1130D40B1F1809160029091610220915E02309134
S1130D505F02821B930BC39748F094DD809160027D
S1130D609091610290935F0280935E028091700281
S1130D70882319F39091640280916502981749F0D1
S1130D80809160029091610290935D0280935C0275
S1130D90D4CF809160029091610220915C023091E5
S1130DA05D02821B930B813D974038F22AC061DBC0
S1130DB0489BFECF63D5F2DCCDB381E08DBBECE67E
S1130DC0F0E080818D7F8083EBE6F0E080818F7E90
S1130DD080834FDB8CD4E2DD80910C028823E1F325
S1130DE0489BFECFCDBBECE6F0E08081826080833F
S1130DF0EBE6F0E0808180618083D6DC28D59ADB45
S1130E009CCFF89415B812B8FADCFFCF1F920F925A
S1130E100FB60F9211240BB60F922F933F934F935B
S1130E205F936F937F938F939F93AF93BF93CF936E
S1130E30DF93EF93FF9380910B02882381F148E0C5
S1130E4050E061E081E0FEDB882309F493C0109256
S1130E500B028DB38D7F8DBBE9E6F0E080818B7F43
S1130E6080838DB382608DBB109263021092620204
S1130E708FEF93E090930A0280930902EAE7F0E08F
S1130E80808180648083809160029091610290935C
S1130E905B0280935A028CB382608CBB6BC048E0C7
S1130EA050E060E081E0CEDB882309F463C08091E8
S1130EB060029091610220915A0230915B02821B80
S1130EC0930B069708F456C081E080930B028DB310
S1130ED08D7F8DBBE9E6F0E08081846080838DB3F3
S1130EE082608DBB8091090290910A029093060260
S1130EF0809305028091090290910A02823F9340F7
S1130F00B0F58091620290916302C39780F1C09121
S1130F106502D0E08091090290910A0280DBC758F3
S1130F20DD4F8883E0916502F0E0A0916502B0E0B6
S1130F30A758BD4F8C91E658FD4F80838091650280
S1130F408F5F8093650280916502843681F4E0911D
S1130F506502F0E0A9E7B2E0E858FD4F80818C9388
S1130F6011968C9381E08093650280936C028CB31C
S1130F7082608CBBFF91EF91DF91CF91BF91AF91D4
S1130F809F918F917F916F915F914F913F912F919D
S1130F900F900BBE0F900FBE0F901F9018951F92CD
S1130FA00F920FB60F9211240BB60F922F933F930B
S1130FB04F935F936F937F938F939F93AF93BF935D
S1130FC0EF93FF9380916F02811136C048E050E0A7
S1130FD060E082E037DB882309F4A3C091E09093BA
S1130FE06F028DB38B7F8DBBE9E6F0E08081806179
S1130FF080838DB384608DBB8CB384608CBB9093F1
S1131000660280916B02882341F033DA88ED99E51A
S1131010909301028093000206C084EE97E59093BA
S1131020010280930002809160029091610290938A
S113103059028093580275C048E050E061E082E0B4
S113104001DB882309F46DC08091600290916102F4
S11310502091580230915902821B930B069708F491
S113106060C010926F028DB38B7F8DBBE9E6F0E018
S113107080818F7E80838DB384608DBB8CB38460CC
S11310808CBBE0916402F0E0E758FD4F80813DDBCA
S11310909091640280916502981720F080916C020F
S11310A0882381F0809164028F5F80936402809131
S11310B06402843629F481E08093640210926C0205
S11310C010926A02809174029091750299231CF423
S11310D09195819591090F9724F081E080936B029B
S11310E001C028DA109269021092660281E08093AE
S11310F0670280919400909195002091980030911E
S11311009900821B930B805B994B9093030280930D
S1131110020280916002909161029093590280933F
S11311205802FF91EF91BF91AF919F918F917F9161
S11311306F915F914F913F912F910F900BBE0F9044
S11311400FBE0F901F9018951F920F920FB60F921B
S113115011240BB60F922F933F934F935F936F938A
S11311607F938F939F93AF93BF93EF93FF938BD111
S1131170D0D151D2C7D281E08093680295B180E189
S1131180892785B9FF91EF91BF91AF919F918F917D
S11311907F916F915F914F913F912F910F900BBE73
S11311A00F900FBE0F901F9018951F920F920FB6BD
S11311B00F9211240BB60F922F933F938F939F930B
S11311C0EF93FF938091780090E0909308028093CE
S11311D007028091790090E0982F882720910702D8
S11311E030910802820F931F9093080280930702A4
S11311F080916202909163020196909363028093BE
S113120062022091070230910802809109029091B4
S11312100A022817390740F48091070290910802C6
S113122090930A028093090280910B02811105C0F8
S1131230EAE7F0E0808180648083FF91EF919F91E1
S11312408F913F912F910F900BBE0F900FBE0F9077
S11312501F9018951F920F920FB60F9211240BB680
S11312600F922F933F934F935F936F937F938F933B
S11312709F93AF93BF93EF93FF9348E050E061E0F7
S113128083E0E0D9882331F082E38093110281E086
S113129080937102FF91EF91BF91AF919F918F91D4
S11312A07F916F915F914F913F912F910F900BBE62
S11312B00F900FBE0F901F9018951F920F920FB6AC
S11312C00F9211240BB60F922F933F934F935F937A
S11312D06F937F938F939F93AF93BF93EF93FF93FA
S11312E044EF51E060E080E0ADD9882351F0809173
S11312F00C02882319F010920C0203C081E0809341
S11313000C02FF91EF91BF91AF919F918F917F91CB
S11313106F915F914F913F912F910F900BBE0F9062
S11313200FBE0F901F9018951F920F920FB60F9239
S113133011240BB60F922F933F934F935F936F93A8
S11313407F938F939F93AF93BF93EF93FF9344EF58
S113135051E061E080E0A7D9882359F081E08093CF
S11313607002809160029091610290935D0280937B
S11313705C02FF91EF91BF91AF919F918F917F910B
S11313806F915F914F913F912F910F900BBE0F90F2
S11313900FBE0F901F9018951F920F920FB60F92C9
S11313A011240BB60F922F933F934F935F936F9338
S11313B07F938F939F93AF93BF93EF93FF9380910A
S11313C06802882309F44AC09091660280916B02F6
S11313D0981781F00E945201882341F04AD888ED81
S11313E099E590930102809300020CC0109266026A
S11313F0A1D808C080916602882321F080916B02F5
S1131400811137D880916702882341F1209102022B
S11314103091030280917602909177022817390760
S113142028F4109267021092690218C02091760283
S1131430309177028091020290910302821B930BF8
S113144090930302809302020E949300882321F068
S113145081E08093690202C01092690210926802CE
S1131460FF91EF91BF91AF919F918F917F916F9178
S11314705F914F913F912F910F900BBE0F900FBE34
S11314800F901F9018959091730280911302890F09
S1131490809373028091730284301CF01092730263
S11314A007C08091730288231CF483E08093730245
S11314B0E09173020E2E000CFF0BE35FFD4F808161
S11314C082B98091110290911302890F80931102C5
S11314D080911102823E50F080911302813031F4E8
S11314E080911102885C809311020DC080911102D9
S11314F0893148F4809113028F3F29F480911102BD
S1131500885380931102109295001092940081E008
S1131510089580916B02882389F1809174029091DF
S1131520750299231CF49195819591090E97B4F451
S113153010926B02109269020E949A02E091640276
S1131540F0E0E758FD4F80812091110290E0821B6A
S1131550910990937502809374021FC0E091640214
S1131560F0E0E858FD4F80812091110290E0821B49
S1131570910990937502809374020FC0E091640204
S1131580F0E0E758FD4F80812091110290E0821B2A
S113159091099093750280937402809174029091E2
S11315A07502853691055CF0809174029091750204
S11315B0885C9109909375028093740211C08091A4
S11315C07402909175028C399F4F54F48091740287
S11315D09091750288539F4F909375028093740283
S11315E0209174023091750233231CF431952195B6
S11315F031098091140290E02817390744F480914E
S11316006702811104C081E080936A0202C01092D3
S11316106A0281E008958091740290917502892B89
S113162091F480917602909177028131974030F065
S11316301092130210926A0281E0089581E080936F
S11316406D0280E00895809174029091750299234F
S11316501CF49195819591098B359105B4F0809195
S113166076029091770281159A4078F410926D0277
S113167080911302882329F080911302809312022F
S113168018C081E080931302089520917402309170
S1131690750281E0121613060CF080E020917402AA
S11316A030917502932F991F9927991F891B809355
S11316B012029091120280911302981306C0809135
S11316C012028093130281E0089580917602909132
S11316D0770281159A4030F08091120280931302B0
S11316E081E0089581E080936D0280E00895109276
S11316F078021092720280E09AE0909377028093CD
S11317007602089580911302811102C0F0DF7EC039
S113171080916A02811108C080916D02811104C018
S1131720809169028823C9F1E0917802F0E0EE0F1C
S1131730FF1FE252FD4F208131818091760290910A
S11317407702820F931F90937702809376028091A1
S113175076029091770281309A40A0F0109278023C
S113176080916902882329F080914D02833008F426
S11317704DC080E09AE090937702809376021092B5
S11317806D0244C080917802882309F43FC080919F
S1131790780281508093780239C0809176029091CA
S11317A07702813F9240E0F1809176029091770236
S11317B0E0917802F0E0EE0FFF1FE252FD4F20812E
S11317C03181821B930B90937702809376028091F0
S11317D0760290917702813F924038F080917602B0
S11317E09091770281309A4030F080EF92E09093AC
S11317F07702809376029091780280911402981770
S113180028F4809178028F5F809378028091760229
S113181090917702909399008093980081E00895C5
S113182080E00895E1E9F0E08081886080838FEFB3
S11318309FEF9093990080939800109295001092D6
S11318409400E1E7F0E08081826080830895109243
S113185095001092940020E03AE030939900209390
S11318609800E1E9F0E080818360808388B382603E
S113187088BB30937702209376020895E1E9F0E083
S113188080818D7F808380818E7F808308951092F4
S1131890DF021092DE0220E03AE081E090E024C012
S11318A0FC013197EE0FFF1FE252FD4F4081518141
S11318B0241B350B40815181445C5F4FFC01EE0FCA
S11318C0FF1FE252FD4F5183408340815181413FCC
S11318D0510548F0FC01EE0FFF1FE252FD4F40EFAF
S11318E050E051834083019684309105C8F2FC0195
S11318F0EE0FFF1FE252FD4F40EF50E05183408353
S11319001AC0FC013197EE0FFF1FE252FD4F4081D8
S11319105181241B350B203F42E0340710F420EFA3
S113192032E00196FC01EE0FFF1FE252FD4F40EF43
S113193050E051834083A901405D5240413F5240F1
S113194000F72AC0AC014F5F5F4FFC01EE0FFF1F91
S1131950E252FD4F60817181261B370B60817181DA
S11319606C33710548F4FA01EE0FFF1FE252FD4F8C
S113197011821082CA0114C0880F991FFC01E2521F
S1131980FD4F80819181CC97FA01EE0FFF1FE25247
S1131990FD4F91838083CA01213F42E0340790F6D2
S11319A080931402089573DF80E09AE090937702A5
S11319B0809376021092110282E38093790247DFCA
S11319C003C081E080936D0280917402909175024E
S11319D0892BB9F7109271021092110211C08091F3
S11319E074029091750299231CF491958195910943
S11319F04E9734F480917102811102C01092110249
S1131A0080917102882359F382E38093790281E003
S1131A10089597FB072E16F4009406D077FD08D09E
S1131A201AD007FC05D03EF4909581959F4F0895F8
S1131A30709561957F4F0895A29FB001B39FC00137
S1131A40A39F700D811D1124911DB29F700D811DE6
S1131A501124911D0895AA1BBB1B51E107C0AA1FA5
S1131A60BB1FA617B70710F0A61BB70B881F991F3B
S1131A705A95A9F780959095BC01CD010895F894E5
S1051A80FFCF92
S1131A82E457504696FF03FF03FF030101D8B8B49D
S1131A92D4320101324220204120205720205320F9
S1131AA220430020002F00280029003E004D002082
S1131AB250002054004400205300422020412020A2
S10B1AC25720205320204F009F
S9030000FC
