S01B00005269736B79536F7274696E674D616368696E652E737265635C
S113000071C000000C94260803C60000B1C60000AD
S1130010EBC7000087C0000085C0000083C000005B
S113002081C000000C9493080C945C087BC0000011
S113003079C0000077C0000075C0000073C00000E4
S113004071C000006FC000006DC000006BC00000F4
S113005069C0000067C0000065C0000063C0000004
S113006061C000005FC000005DC000005BC0000014
S113007059C0000064C7000055C0000053C0000010
S11300802DC700004FC000004DC000004BC0000051
S113009049C0000047C0000045C0000043C0000044
S11300A041C000003FC0000080C300003BC000000E
S11300B039C0000037C0000035C000005FC2000036
S11300C031C000002FC000002DC000002BC0000074
S11300D029C0000027C0000025C0000023C0000084
S11300E021C0000011241FBECFEFD1E2DEBFCDBF7F
S11300F000E00CBF12E0A0E0B2E0ECEEF7E100E0BB
S11301000BBF02C007900D92A034B107D9F723E0CA
S1130110A0E4B2E001C01D92A833B207E1F7C7D44E
S11301200C94F40B59C3809163028111BCC080917B
S11301301102E0915C02F0E0E159FD4F208190E072
S1130140821B91099C0122F422273327281B390B97
S11301508FE0821B809345028091140290916F027C
S1130160891B809344024091130220916A023091CA
S11301706B024203C001439F900D11241816190607
S113018044F080916C0290916D0281159A4008F4BC
S11301903FC09091450280911402981798F4809181
S11301A06C0290916D02935096958795409145020B
S11301B0489F9001499F300D112430934B022093A6
S11301C04A0264C080916C0290916D02935096959E
S11301D0879540914402489F9001499F300D112416
S11301E0809145024091140290E0841B910960E0E3
S11301F073E0869FA001879F500D969F500D112498
S1130200CA01820F931F90934B0280934A023EC00F
S113021020916C0230916D0280E09AE0821B930B76
S11302209695879540911402489F9001499F300DFF
S1130230112490911402892F90E0AC015695542F0B
S1130240442757954795982F8827990F990F841B12
S1130250950B820F931F2091450240911402309117
S1130260440250E0431B510930E0241B350B60E08D
S113027073E0269FA001279F500D369F500D112437
S1130280840F951F90934B0280934A0220914A0257
S113029030914B0280910202909103022817390792
S11302A020F481E0089580E0089580E0089580912D
S11302B06A0290916B0299231CF49195819591099E
S11302C00F970CF4D2C080916A0290916B0299232B
S11302D01CF49195819591098F50809343028091EC
S11302E0140290916F02891B80934402809143020F
S11302F0893208F0BCC04091130220916A02309107
S11303006B024203C001439F900D11241816190675
S11303100CF04EC09091440280914302891798F4E6
S113032080916C0290916D029350969587954091BF
S11303304402489F9001499F300D11243093490293
S11303402093480285C0809143022091440290E0AA
S1130350821B91099093490280934802409148027C
S11303605091490220E033E0429FC001439F900D29
S1130370529F900D112490934902809348028091DA
S11303806C0290916D02935096958795409144022A
S1130390489F9001499F300D11248091480290910B
S11303A04902820F931F909349028093480250C0E0
S11303B0809143022091440290E0821B9109909322
S11303C0490280934802409148025091490220E03A
S11303D033E0429FC001439F900D529F900D112422
S11303E0909349028093480220916C0230916D02EF
S11303F080E09AE0821B930B9695879540911402B6
S1130400489F9001499F300D11248091480290919A
S11304104902820F931F909349028093480280916E
S1130420140290E09C013695322F222737952795A8
S1130430982F8827990F990F821B930B20914802BC
S113044030914902820F931F90934902809348028E
S1130450209148023091490280910002909101025A
S11304608217930730F481E0089580E0089581E0D5
S1130470089580E0089585B1807885B985B18F604D
S113048085B91092650280916502089515B810929D
S1130490650280916502089584B5836884BD85B53D
S11304A0826085BD85B3826085BB17BCEFCF08959C
S11304B0E1E2F1E080818860808380EF90E09093B6
S11304C02901809328011092250110922401A3E7A9
S11304D0B0E08C9182608C938081856080838AB344
S11304E082608ABB8AEA80930402089585B1807889
S11304F085B985B18B6085B916BC8CED87BD8091BB
S11305006502811112C081E080936502D1DF80E031
S113051094E290932901809328018091580290914C
S1130520590290934702809346021092250110923B
S1130530240180916502089585B1807885B985B1DB
S11305408B6085B916BC8AEA87BD809165028111EA
S11305500CC0AEDF81E080936502809158029091D7
S11305605902909347028093460280916502089550
S1130570E1E2F1E080818A7F808308951F920F92E7
S11305800FB60F9211240BB60F922F933F934F93F4
S11305905F936F937F938F939F93AF93BF93EF93E7
S11305A0FF938091040282508093040283E090E0E0
S11305B09093290180932801809104028E3630F4AF
S11305C08EE68093040210926502D2DF16BC8091FD
S11305D0040287BDFF91EF91BF91AF919F918F91DD
S11305E07F916F915F914F913F912F910F900BBE2F
S11305F00F900FBE0F901F901895ECE7F0E08081EC
S113060080648083808181608083EAE7F0E0808178
S11306108068808380818860808380818360808318
S11306200895803C23E0920738F080914F028F5F59
S113063080934F0282E30895803223E0920738F0DA
S113064080914E028F5F80934E0286E908958C322A
S1130650914038F080914D028F5F80934D0288EC79
S1130660089580914C028F5F80934C0284E6089534
S113067021E030E0082E02C0220F331F0A94E2F773
S11306802093400201C0660F8A95EAF71092420255
S11306901092410210924202109241020FC099B18D
S11306A0809140028923681314C080914102909183
S11306B0420201969093420280934102842F90E07B
S11306C020914102309142022817390740F381E01A
S11306D0089580E0089521E030E0082E02C0220F42
S11306E0331F0A94E2F72093400201C0660F8A95F3
S11306F0EAF71092420210924102109242021092C2
S1130700410210C090910301809140028923681333
S113071014C080914102909142020196909342024A
S113072080934102842F90E0209141023091420253
S11307302817390738F381E0089580E00895E1E847
S1130740F0E080818260808380818860808388EE8D
S113075093E090938900809388000895E1EAF0E0A3
S113076080818860808387E090E09093A9008093E3
S1130770A8001092A5001092A400A2E7B0E08C910A
S113078082608C9380818560808389B3826089BB19
S11307900895E1EAF0E080818A7F80830895E1EAA8
S11307A0F0E080818560808308951F920F920FB6D8
S11307B00F9211248F939F93809158029091590224
S11307C0019690935902809358029F918F910F90B4
S11307D00FBE0F901F9018951F920F920FB60F9295
S11307E011248F938FEF88B98F910F900FBE0F90C4
S11307F01F90189560E081E0AFD060E080E04FD1B9
S113080080914F0262E070E090E0EAD085E192E0EE
S1130810DAD080914C0262E070E090E0E1D085E1B2
S113082092E0D1D080914E0262E070E090E0D8D0A6
S113083085E192E0C8D080914D0262E070E090E0E2
S1130840CFD087E192E0BFD080915C0262E070E09B
S113085090E0C6D061E080E022D18AE192E0B3D09A
S1130860209158023091590236952795369527954F
S113087036952795A5ECB0E294D762E070E09295A6
S113088082958F7089279F708927AAD08DE192E085
S11308909AD040915802509159029A01ADECBCECA7
S11308A080D79695879596958795969587959C017B
S11308B0220F331F880F991F880F991F880F991FC4
S11308C0820F931F61E070E09A01281B390BC90164
S11308D087D08FE192E077C0089587B1807F87B990
S11308E088B1806288B988B18F7B88B982E08A95A3
S11308F0F1F700C088B1806888B992E09A95F1F761
S113090000C086B18295807F92E09A95F1F700C08D
S113091098B19F7798B995E09A95F1F7000098B14E
S1130920906898B992E09A95F1F700C096B18078F2
S113093092E09A95F1F700C098B19F7798B995E045
S11309409A95F1F700008111D5CF88B18F7D88B9D0
S113095087B18F6087B90895282F22952F708F70E3
S1130960611104C098B19F7B98B903C098B1906499
S113097098B992E09A95F1F700C098B1906898B947
S113098098B1907F922B98B995E09A95F1F7000071
S113099098B19F7798B995E09A95F1F7000098B1CE
S11309A0906898B998B1907F892B88B985E08A9529
S11309B0F1F7000088B18F7788B995E09A95F1F73F
S11309C000008BCF0895CF93DF93EC0103C061E067
S11309D0C3DF219688818111FACFDF91CF910895E9
S11309E0EF92FF920F931F93CF93DF9300D01F9248
S11309F01F92CDB7DEB77B01FE01319625E0DF0102
S1130A001D922A95E9F724E030E00EC06AE070E018
S1130A10B5D6E1E0F0E0EC0FFD1FE20FF31F808399
S1130A20862F972F21503109009781F7BFEFEB16DE
S1130A30FB0681F403C00F5F1F4F02C000E010E00B
S1130A40E1E0F0E0EC0FFD1FE00FF11F2081222315
S1130A5091F304C005E010E00E191F09992384F4F2
S1130A6061E08DE279DF0CC0E1E0F0E0EC0FFD1F06
S1130A70E00FF11F808161E0805D6EDF0F5F1F4F2B
S1130A80053011058CF30F900F900F900F900F907D
S1130A90DF91CF911F910F91FF90EF9008958832CD
S1130AA028F46111806460E0806856CF0895E1E61F
S1130AB0F0E080E8808381E08083F8948FEF81B94F
S1130AC084B987B91AB8E4E0F1E080818E7F80832D
S1130AD08DB182608DB9E9E6F0E080818260808327
S1130AE080818C6080838081806280838081806C3F
S1130AF08083E8E6F0E0808182608083ACE6B0E049
S1130B008C9182608C93808181608083EBE6F0E03D
S1130B1080818860808371DD12DE45D58DB3886065
S1130B208DBB789401D68DB387608DBB8DB3877FE1
S1130B308DBBB2DC10925D0210925C02D7DC0EDE3B
S1130B4080910C028823A9F1809158029091590256
S1130B502091560230915702821B930BC39740F0A9
S1130B6080915802909159029093570280935602B3
S1130B7080916702882321F390915C0280915D0249
S1130B80981749F080915802909159029093550218
S1130B9080935402D5CF80915802909159022091AC
S1130BA0540230915502821B930B813A9F4040F2CC
S1130BB02AC061DC489BFECF22D5EBDDCDB381E0BA
S1130BC08DBBECE6F0E080818D7F8083EBE6F0E086
S1130BD08081877F80834FDC4BD480910C028823F3
S1130BE0E1F3489BFECFCDBBECE6F0E08081826070
S1130BF08083EBE6F0E0808188608083D0DDE8D4F8
S1130C009BDCCDDD9DCFF89415B812B8F3DDFFCF92
S1130C101F920F920FB60F9211240BB60F922F93BF
S1130C203F934F935F936F937F938F939F93AF9370
S1130C30BF93CF93DF93EF93FF9380910B028823AD
S1130C4061F14CE361E081E013DD882309F478C0AD
S1130C5010920B028DB38D7F8DBBE9E6F0E08081AD
S1130C608B7F80838DB382608DBB10925B02109268
S1130C705A028FEF93E090930A0280930902EAE705
S1130C80F0E08081806480838091580290915902C1
S1130C90909353028093520253C04CE360E081E08E
S1130CA0E7DC882309F44CC08091580290915902E2
S1130CB02091520230915302821B930B4F9708F4F8
S1130CC03FC081E080930B028DB38D7F8DBBE9E63D
S1130CD0F0E08081846080838DB382608DBB8091DD
S1130CE0090290910A029093060280930502809172
S1130CF0090290910A02823F934010F580915A02B2
S1130D0090915B02C397E0F0C0915D02D0E08091C6
S1130D10090290910A0285DCC059DD4F8883E09175
S1130D205D02F0E0A0915D02B0E0A059BD4F8C914E
S1130D30EF58FD4F808380915D028F5F80935D0249
S1130D408CB382608CBBFF91EF91DF91CF91BF9107
S1130D50AF919F918F917F916F915F914F913F914F
S1130D602F910F900BBE0F900FBE0F901F901895F0
S1130D701F920F920FB60F9211240BB60F922F935E
S1130D803F934F935F936F937F938F939F93AF930F
S1130D90BF93EF93FF938091660281112DC04CE3C2
S1130DA060E082E065DC882309F485C091E09093DB
S1130DB066028DB38B7F8DBBE9E6F0E080818061B4
S1130DC080838DB384608DBB8CB384608CBB909323
S1130DD05E028091630281114EDB80E090E2909389
S1130DE001028093000280915802909159029093DD
S1130DF05102809350025FC04CE361E082E038DC32
S1130E00882309F458C08091580290915902209186
S1130E10500230915102821B930B4F9708F44BC040
S1130E20109266028DB38B7F8DBBE9E6F0E0808182
S1130E308F7E80838DB384608DBB8CB384608CBBC8
S1130E4090915C0280915D02981738F480915C0265
S1130E508F5F80935C021092620280916A0290918B
S1130E606B0299231CF4919581959109409724F084
S1130E7081E08093630201C05FDB109261021092F3
S1130E805E0281E080935F028091940090919500CE
S1130E902091980030919900821B930B905A909363
S1130EA00302809302028091580290915902909318
S1130EB0510280935002FF91EF91BF91AF919F91A6
S1130EC08F917F916F915F914F913F912F910F90EF
S1130ED00BBE0F900FBE0F901F9018951F920F928C
S1130EE00FB60F9211240BB60F922F933F934F938B
S1130EF05F936F937F938F939F93AF93BF93EF937E
S1130F00FF9387D1CCD148D2BED281E080936002D6
S1130F109EB188E089278EB9FF91EF91BF91AF917F
S1130F209F918F917F916F915F914F913F912F91FD
S1130F300F900BBE0F900FBE0F901F9018951F922D
S1130F400F920FB60F9211240BB60F922F933F936B
S1130F508F939F93EF93FF938091780090E0909309
S1130F600802809307028091790090E0982F8827E7
S1130F702091070230910802820F931F9093080278
S1130F808093070280915A0290915B02019690939C
S1130F905B0280935A0220910702309108028091EB
S1130FA0090290910A022817390740F48091070238
S1130FB09091080290930A028093090280910B0297
S1130FC0811105C0EAE7F0E0808180648083FF91AD
S1130FD0EF919F918F913F912F910F900BBE0F90A6
S1130FE00FBE0F901F9018951F920F920FB60F927D
S1130FF011240BB60F922F933F934F935F936F93EC
S11310007F938F939F93AF93BF93EF93FF934CE39F
S113101061E083E02DDB882331F082E380931102C9
S113102081E080936802FF91EF91BF91AF919F910E
S11310308F917F916F915F914F913F912F910F907D
S11310400BBE0F900FBE0F901F9018951F920F921A
S11310500FB60F9211240BB60F922F933F934F9319
S11310605F936F937F938F939F93AF93BF93EF930C
S1131070FF934AEF60E080E0FBDA882351F080912F
S11310800C02882319F010920C0203C081E08093B3
S11310900C02FF91EF91BF91AF919F918F917F913E
S11310A06F915F914F913F912F910F900BBE0F90D5
S11310B00FBE0F901F9018951F920F920FB60F92AC
S11310C011240BB60F922F933F934F935F936F931B
S11310D07F938F939F93AF93BF93EF93FF934AEFC5
S11310E061E080E0F8DA882359F081E080936702B8
S11310F08091580290915902909355028093540222
S1131100FF91EF91BF91AF919F918F917F916F91DB
S11311105F914F913F912F910F900BBE0F900FBE97
S11311200F901F9018951F920F920FB60F921124D3
S11311300BB60F922F933F934F935F936F937F93CD
S11311408F939F93AF93BF93EF93FF93809160022C
S1131150882309F449C090915E0280916302981734
S113116079F0A5D8882341F086D980E094E3909360
S11311700102809300020CC010925E02DDD908C007
S113118080915E02882321F080916302811173D9DA
S113119080915F02882341F1209102023091030281
S11311A080916C0290916D022817390728F41092EF
S11311B05F021092610218C020916C0230916D029E
S11311C08091020290910302821B930B909303027D
S11311D0809302020E949300882321F081E080938F
S11311E0610202C01092610210926002FF91EF91BD
S11311F0BF91AF919F918F917F916F915F914F912B
S11312003F912F910F900BBE0F900FBE0F901F9028
S113121018959091690280911302890F8093690255
S11312208091690284301CF01092690207C0809199
S1131230690288231CF483E080936902E0916902C7
S11312400E2E000CFF0BE35FFD4F808182B980916D
S1131250110290911302890F80931102809111025F
S1131260823E50F080911302813031F4809111025A
S1131270885C809311020DC080911102893148F479
S1131280809113028F3F29F4809111028853809337
S11312901102109295001092940081E008958091BB
S11312A06302882381F180916A0290916B029923F1
S11312B01CF49195819591090F97ACF410926302F7
S11312C01092610239D9E0915C02F0E0E059FD4FDF
S11312D080812091110290E0821B910990936B020E
S11312E080936A021FC0E0915C02F0E0E159FD4F77
S11312F080812091110290E0821B910990936B02EE
S113130080936A020FC0E0915C02F0E0E059FD4F67
S113131080812091110290E0821B910990936B02CD
S113132080936A0280916A0290916B0285369105DE
S11313305CF080916A0290916B02885C91099093B1
S11313406B0280936A0211C080916A0290916B02D1
S11313508C399F4F54F480916A0290916B028853A8
S11313609F4F90936B0280936A0220916A0230919E
S11313706B0233231CF431952195310980911402B9
S113138090E02817390724F481E08093620202C0B8
S11313901092620281E0089580916A0290916B023A
S11313A0892B91F480916C0290916D028130974069
S11313B030F0109213021092620281E0089581E0ED
S11313C08093640280E0089580916A0290916B0298
S11313D099231CF49195819591098B359105B4F06D
S11313E080916C0290916D0281159A4078F410926C
S11313F0640280911302882329F080911302809360
S1131400120218C081E080931302089520916A02A9
S113141030916B0281E0121613060CF080E02091EB
S11314206A0230916B02932F991F9927991F891B88
S1131430809312029091120280911302981306C0B5
S1131440809112028093130281E0089580916C02CE
S113145090916D0281159A4030F080911202809330
S1131460130281E0089581E08093640280E008958E
S113147010926F0210926E0280E09AE090936D02D7
S113148080936C02089580911302811102C0F0DFF1
S11314907EC080916202811108C080916402811132
S11314A004C0809161028823C9F1E0916F02F0E0E9
S11314B0EE0FFF1FEC52FD4F2081318180916C02B1
S11314C090916D02820F931F90936D0280936C0232
S11314D080916C0290916D0281309A40A0F08091CD
S11314E06102882329F080914502833008F44FC0BB
S11314F080E09AE090936D0280936C0210926F02E8
S11315001092640244C080916F02882309F43FC0A2
S113151080916F02815080936F0239C080916C0278
S113152090916D0281309340E0F180916C02909132
S11315306D02E0916F02F0E0EE0FFF1FEC52FD4FE1
S113154020813181821B930B90936D0280936C02F6
S113155080916C0290916D028130934038F08091BB
S11315606C0290916D0281309A4030F080E093E0FB
S113157090936D0280936C0290916F02809114029B
S1131580981728F480916F028F5F80936F02809187
S11315906C0290916D02909399008093980081E081
S11315A0089580E00895E1E9F0E080818860808317
S11315B08FEF9FEF9093990080939800109295007D
S11315C010929400E1E7F0E08081826080830895C6
S11315D0109295001092940020E03AE03093990024
S11315E020939800E1E9F0E080818360808388B3F0
S11315F0826088BB30936D0220936C020895E1E908
S1131600F0E080818D7F808380818E7F8083089548
S11316101092D5021092D40220E03AE081E090E0EA
S113162024C0FC013197EE0FFF1FEC52FD4F4081A7
S11316305181241B350B40815181485D5F4FFC0172
S1131640EE0FFF1FEC52FD4F5183408340815181C7
S1131650413A510548F0FC01EE0FFF1FEC52FD4FDB
S113166040EA50E051834083019684309105C8F2EA
S1131670FC01EE0FFF1FEC52FD4F40EA50E0518396
S113168040831AC0FC013197EE0FFF1FEC52FD4F4F
S113169040815181241B350B211543E0340710F49C
S11316A020E033E00196FC01EE0FFF1FEC52FD4FEA
S11316B040EA50E051834083A901405E51404130EB
S11316C0534000F72AC0AC014F5F5F4FFC01EE0F9F
S11316D0FF1FEC52FD4F60817181261B370B608127
S11316E071816832710548F4FA01EE0FFF1FEC5264
S11316F0FD4F11821082CA0114C0880F991FFC018A
S1131700EC52FD4F808191818897FA01EE0FFF1F03
S1131710EC52FD4F91838083CA01213043E03407AA
S113172090F680931402089573DF80E09AE090931A
S11317306D0280936C02109268021092110282E38F
S11317408093700245DF11C080916A0290916B0210
S113175099231CF4919581959109449734F48091CF
S11317606802811102C010921102809168028823DC
S113177059F382E38093700281E0089597FB072E6A
S113178016F4009406D077FD08D01AD007FC05D0D3
S11317903EF4909581959F4F0895709561957F4F84
S11317A00895A29FB001B39FC001A39F700D811D36
S11317B01124911DB29F700D811D1124911D089556
S11317C0AA1BBB1B51E107C0AA1FBB1FA617B70763
S11317D010F0A61BB70B881F991F5A95A9F780957F
S10F17E09095BC01CD010895F894FFCF52
S11317EC00200060AAFF03FF03FF030101D8B8B473
S11317FCD4320101322C002D3E00543D002E0073D6
S113180C20436F6D706C657465002F0028002900EF
S113181C4D002050002054002000440020530000B0
S9030000FC
