S01B00005269736B79536F7274696E674D616368696E652E737265635C
S113000071C000000C942709ECC600009FC70000D3
S11300100C94F40887C0000085C0000083C0000071
S113002081C000000C9496090C945E097BC000000A
S113003079C0000077C0000075C0000073C00000E4
S113004071C000006FC000006DC000006BC00000F4
S113005069C0000067C0000065C0000063C0000004
S113006061C000005FC000005DC000005BC0000014
S113007059C000000C949F0855C0000053C00000F4
S11300800C946E084FC000004DC000004BC000002F
S113009049C0000047C0000045C0000043C0000044
S11300A041C000003FC0000085C300003BC0000009
S11300B039C0000037C0000035C000005DC2000038
S11300C031C000002FC000002DC000002BC0000074
S11300D029C0000027C0000025C0000023C0000084
S11300E021C0000011241FBECFEFD1E2DEBFCDBF7F
S11300F000E00CBF12E0A0E0B2E0E4E1FAE100E0CD
S11301000BBF02C007900D92A834B107D9F723E0C2
S1130110A8E4B2E001C01D92A034B207E1F7ADD566
S11301200C94080D5EC380916B028111B7C080915D
S11301301102E0916402F0E0E958FD4F208190E063
S1130140821B91099C0122F422273327281B390B97
S11301508EE0821B80934D0280911402909177026D
S1130160891B80934C0240911302209173023091B9
S113017074024203C001439F900D112418161906FE
S113018044F0809175029091760281159A4008F4AA
S113019041C090914D02809114029817A0F480916F
S11301A0750290917602805F924096958795409172
S11301B04D02489F9001499F300D11243093530202
S11301C0209352025EC08091750290917602805F06
S11301D092409695879540914C02489F9001499F83
S11301E0300D112480914D024091140290E0841B43
S11301F0910960EF72E0869FA001879F500D969F42
S1130200500D1124CA01820F931F909353028093BF
S1130210520237C0809175029091760220E03AE054
S1130220281B390B3695279540911402429FC00133
S1130230439F900D11246091140248E853E0649F99
S11302409001659F300D1124820F931F20914D0260
S11302504091140230914C0250E0431B510930E0AC
S1130260241B350B60EF72E0269FA001279F500DE1
S1130270369F500D1124840F951F90935302809341
S113028052022091520230915302809102029091C5
S113029003022817390720F481E0089580E00895C7
S11302A080E00895809173029091740299231CF464
S11302B09195819591090E970CF4D5C080917302A4
S11302C09091740299231CF49195819591098E5013
S11302D080934B028091140290917702891B809342
S11302E04C0280914B02893208F0BFC04091130246
S11302F020917302309174024203C001439F900D18
S113030011241816190644F0809175029091760212
S113031081159A4008F450C090914C0280914B0290
S11303208917A0F48091750290917602805F9240C3
S11303309695879540914C02489F9001499F300DB6
S11303401124309351022093500280C080914B02BB
S113035020914C0290E0821B91099093510280936A
S11303605002409150025091510220EF32E0429FDE
S1130370C001439F900D529F900D11249093510200
S1130380809350028091750290917602805F924032
S11303909695879540914C02489F9001499F300D56
S11303A011248091500290915102820F931F9093D7
S11303B05102809350024AC080914B0220914C021A
S11303C090E0821B910990935102809350024091D6
S11303D050025091510220EF32E0429FC001439FEE
S11303E0900D529F900D11249093510280935002CE
S11303F0209175023091760280E09AE0821B930B83
S11304009695879540911402489F9001499F300D1D
S113041011248091500290915102820F931F909366
S11304205102809350024091140288E893E0489F5F
S11304309001499F300D11248091500290915102F6
S1130440820F931F90935102809350022091500287
S1130450309151028091000290910102821793071A
S113046030F481E0089580E0089581E0089580E00B
S1130470089585B1807885B985B18F6085B910926A
S11304806D0280916D02089515B810926D028091ED
S11304906D02089584B5836884BD85B5826085BD89
S11304A085B3826085BB17BCEFCF0895E1E2F1E02C
S11304B080818860808380EF90E09093290180930D
S11304C028011092250110922401A3E7B0E08C9139
S11304D082608C938081856080838AB382608ABBCA
S11304E086E980930402089585B1807885B985B141
S11304F08B6085B916BC86E987BD80916D02811138
S113050012C081E080936D02D1DF80E094E2909389
S11305102901809328018091600290916102909357
S11305204F0280934E021092250110922401809173
S11305306D02089585B1807885B985B18B6085B9E0
S113054016BC86E987BD80916D0281110CC0AEDFB7
S113055081E080936D02809160029091610290939A
S11305604F0280934E0280916D020895E1E2F1E022
S113057080818A7F808308951F920F920FB60F9215
S113058011240BB60F922F933F934F935F936F9366
S11305907F938F939F93AF93BF93EF93FF93809138
S11305A0040282508093040283E090E09093290136
S11305B08093280180910402843630F484E6809389
S11305C0040210926D02D2DF16BC8091040287BD32
S11305D0FF91EF91BF91AF919F918F917F916F9117
S11305E05F914F913F912F910F900BBE0F900FBED3
S11305F00F901F901895ECE7F0E080818064808371
S1130600808181608083EAE7F0E080818068808374
S11306108081886080838081836080830895803CAA
S113062023E0920748F4803223E0920738F48C32B6
S1130630914030F088EC089582E3089586E90895A6
S113064084E6089521E030E0082E02C0220F331F13
S11306500A94E2F72093480201C0660F8A95EAF7EC
S113066010924A021092490210924A0210924902D0
S11306700FC099B1809148028923681312C08091F8
S1130680490290914A02019690934A02809349024A
S11306908091490290914A028417950750F381E0B2
S11306A0089580E0089521E030E0082E02C0220F72
S11306B0331F0A94E2F72093480201C0660F8A951B
S11306C0EAF710924A021092490210924A021092DA
S11306D0490210C090910301809148028923681354
S11306E012C08091490290914A02019690934A0265
S11306F0809349028091490290914A028417950798
S113070048F381E0089580E00895883C31F48091B5
S113071055028F5F8093550215C0863931F480915C
S113072056028F5F809356020DC0843631F4809157
S113073054028F5F8093540205C0809157028F5FEB
S11307408093570281E00895E1E8F0E080818260BF
S1130750808380818860808388EE93E09093890011
S1130760809388000895E1EAF0E0808188608083C6
S113077087E090E09093A9008093A8001092A500D0
S11307801092A400A2E7B0E08C9182608C938081E7
S11307908560808389B3826089BB0895E1EAF0E0D3
S11307A080818A7F80830895E1EAF0E0808185601A
S11307B0808308951F920F920FB60F9211248F9386
S11307C09F938091600290916102019690936102DF
S11307D0809360029F918F910F900FBE0F901F9096
S11307E018951F920F920FB60F9211248F938FEFCB
S11307F088B98F910F900FBE0F901F90189560E0ED
S113080081E04FD160E081E04CD185E192E0C1D13B
S113081061E080E02AD28091570262E070E090E0CB
S1130820C5D183E292E0B5D161E080E01ED280912F
S1130830540262E070E090E0B9D183E292E0A9D181
S113084061E080E012D28091560262E070E090E0B4
S1130850ADD183E292E09DD161E080E006D2809147
S1130860550262E070E090E0A1D183E292E091D180
S113087061E080E0FAD18091640262E070E090E08F
S113088095C1089560E081E00CD160E080E0EDD195
S11308908091640262E070E090E088D160E082E0E0
S11308A0E4D185E292E075D160E083E0DED180910D
S11308B0650262E070E090E079D160E085E0D5D136
S11308C087E292E066D160E086E0CFD18091570262
S11308D061E070E090E06AD160E087E0C6D1809189
S11308E0540261E070E090E061D160E088E0BDD145
S11308F08091560261E070E090E058D160E089E0B8
S1130900B4D18091550261E070E090E04FD160E095
S11309108AE0ABD189E292E03CD160E08CE0A5D1E1
S113092083E392E036D160E08DE09FD120916002B4
S1130930309161023695279536952795ABE7B4E15A
S11309400E94E50C63E070E0969587952FD161E0F5
S113095080E08BD18091110263E070E090E026D1B9
S113096061E083E082D18BE292E013D161E084E024
S11309707CD1E0916402F0E0E858FD4F808163E0AF
S113098070E090E013D161E08CE06FD180910502BA
S11309909091060264E070E009C1089560E081E08E
S11309A080D08AE392E0F5D061E080E05ED180916E
S11309B0570262E070E090E0F9D083E292E0E9D07F
S11309C061E080E052D18091540262E070E090E0F6
S11309D0EDD083E292E0DDD061E080E046D1809109
S11309E0560262E070E090E0E1D083E292E0D1D080
S11309F061E080E03AD18091550262E070E090E0DD
S1130A00D5D083E292E0C5D061E080E02ED1809120
S1130A1065022091640290E062E070E0821B91091B
S1130A20C5C0089587B1807F87B988B1806288B9CD
S1130A3088B18F7B88B982E08A95F1F700C088B1CC
S1130A40806888B992E09A95F1F700C086B18295E2
S1130A50807F92E09A95F1F700C098B19F7798B99A
S1130A6095E09A95F1F7000098B1906898B992E0F2
S1130A709A95F1F700C096B1807892E09A95F1F7D3
S1130A8000C098B19F7798B995E09A95F1F7000066
S1130A908111D5CF88B18F7D88B987B18F6087B92F
S1130AA00895282F22952F708F70611104C098B17A
S1130AB09F7B98B903C098B1906498B992E09A95D5
S1130AC0F1F700C098B1906898B998B1907F922BD3
S1130AD098B995E09A95F1F7000098B19F7798B985
S1130AE095E09A95F1F7000098B1906898B998B19B
S1130AF0907F892B88B985E08A95F1F7000088B149
S1130B008F7788B995E09A95F1F700008BCF089517
S1130B10CF93C82F2FEF86E791E02150804090407B
S1130B20E1F700C0000087B18F6087B987B18068A2
S1130B3087B987B1806487B987B1806287B988B182
S1130B40807F88B988B18F7788B988B18F7D88B95B
S1130B5088B18F7B88B900C000C0000088B180686C
S1130B6088B988B1826088B925E02A95F1F7000038
S1130B7088B18F7788B985E08A95F1F7000052DF54
S1130B8060E08C2F8C608DDF60E088E28ADFCF919B
S1130B900895CF93DF93EC0103C061E082DF2196D7
S1130BA088818111FACFDF91CF910895EF92FF925E
S1130BB00F931F93CF93DF9300D01F921F92CDB753
S1130BC0DEB77B01FE01319625E0DF011D922A95F7
S1130BD0E9F724E030E00EC06AE070E0E3D6E1E03B
S1130BE0F0E0EC0FFD1FE20FF31F8083862F972F99
S1130BF021503109009781F7BFEFEB16FB0681F412
S1130C0003C00F5F1F4F02C000E010E0E1E0F0E01E
S1130C10EC0FFD1FE00FF11F2081222391F304C08C
S1130C2005E010E00E191F09992384F461E08DE2B8
S1130C3038DF0CC0E1E0F0E0EC0FFD1FE00FF11F26
S1130C40808161E0805D2DDF0F5F1F4F053011054E
S1130C508CF30F900F900F900F900F90DF91CF9126
S1130C601F910F91FF90EF900895883228F461113D
S1130C70806460E0806815CF0895E1E6F0E080E8E4
S1130C80808381E08083F8948FEF81B984B987B938
S1130C901AB8E4E0F1E080818E7F8083E9E6F0E039
S1130CA080818260808380818C6080838081806287
S1130CB080838081806C8083E8E6F0E080818260BC
S1130CC08083ACE6B0E08C9182608C9380818160FB
S1130CD08083EBE6F0E08081806180838CDC34DD0E
S1130CE06AD583E015DF60E081E0DBDE8DB38860E8
S1130CF08DBB789421D68DB387608DBB8DB3877FF0
S1130D008DBBC8DB1092650210926402EDDB2BDD13
S1130D1080910C028823B1F180916002909161026C
S1130D2020915E0230915F02821B930BC39748F0BF
S1130D30A9DD809160029091610290935F0280939B
S1130D405E0280916F02882319F39091640280916E
S1130D506502981749F08091600290916102909326
S1130D605D0280935C02D4CF809160029091610215
S1130D7020915C0230915D02821B930B813D974070
S1130D8038F22AC076DB489BFECF41D507DDCDB3D0
S1130D9081E08DBBECE6F0E080818D7F8083EBE623
S1130DA0F0E080818F7E808364DB6AD4F7DD8091FC
S1130DB00C028823E1F3489BFECFCDBBECE6F0E0C8
S1130DC0808182608083EBE6F0E0808180618083B3
S1130DD0EBDC06D5AFDB9CCFF89415B812B80FDD69
S1130DE0FFCF1F920F920FB60F9211240BB60F92E2
S1130DF02F933F934F935F936F937F938F939F931F
S1130E00AF93BF93CF93DF93EF93FF9380910B0244
S1130E10882381F148E050E061E081E013DC88231D
S1130E2009F47FC010920B028DB38D7F8DBBE9E670
S1130E30F0E080818B7F80838DB382608DBB1092C4
S1130E406302109262028FEF93E090930A02809300
S1130E500902EAE7F0E08081806480838091600287
S1130E609091610290935B0280935A028CB38260EA
S1130E708CBB57C048E050E060E081E0E3DB8823AE
S1130E8009F44FC0809160029091610220915A024E
S1130E9030915B02821B930B069708F442C081E0F9
S1130EA080930B028DB38D7F8DBBE9E6F0E08081EA
S1130EB0846080838DB382608DBB809109029091A0
S1130EC00A02909306028093050280910902909190
S1130ED00A02823F934010F580916202909163026E
S1130EE0C397E0F0C0916502D0E08091090290912F
S1130EF00A0295DBC858DD4F8883E0916502F0E073
S1130F00A0916502B0E0A858BD4F8C91E758FD4F01
S1130F108083809165028F5F809365028CB38260C9
S1130F208CBBFF91EF91DF91CF91BF91AF919F91D6
S1130F308F917F916F915F914F913F912F910F907E
S1130F400BBE0F900FBE0F901F9018951F920F921B
S1130F500FB60F9211240BB60F922F933F934F931A
S1130F605F936F937F938F939F93AF93BF93EF930D
S1130F70FF9380916E02811136C048E050E060E03A
S1130F8082E060DB882309F496C091E090936E02BE
S1130F908DB38B7F8DBBE9E6F0E080818061808337
S1130FA08DB384608DBB8CB384608CBB90936602DC
S1130FB080916B02882341F05CDA88ED99E5909387
S1130FC001028093000206C084EE97E5909301022B
S1130FD08093000280916002909161029093590283
S1130FE08093580268C048E050E061E082E02ADB68
S1130FF0882309F460C0809160029091610220917D
S1131000580230915902821B930B069708F453C07F
S113101010926E028DB38B7F8DBBE9E6F0E0808188
S11310208F7E80838DB384608DBB8CB384608CBBD6
S1131030E0916402F0E0E858FD4F808166DB909116
S1131040640280916502981738F4809164028F5F7E
S11310508093640210926A028091730290917402E8
S113106099231CF49195819591090F9724F081E0BF
S113107080936B0201C05EDA1092690210926602DC
S113108081E0809367028091940090919500209173
S1131090980030919900821B930B805B994B90933D
S11310A00302809302028091600290916102909306
S11310B0590280935802FF91EF91BF91AF919F9194
S11310C08F917F916F915F914F913F912F910F90ED
S11310D00BBE0F900FBE0F901F9018951F920F928A
S11310E00FB60F9211240BB60F922F933F934F9389
S11310F05F936F937F938F939F93AF93BF93EF937C
S1131100FF938BD1D0D150D2C6D281E080936802B4
S113111095B180E1892785B9FF91EF91BF91AF9196
S11311209F918F917F916F915F914F913F912F91FB
S11311300F900BBE0F900FBE0F901F9018951F922B
S11311400F920FB60F9211240BB60F922F933F9369
S11311508F939F93EF93FF938091780090E0909307
S11311600802809307028091790090E0982F8827E5
S11311702091070230910802820F931F9093080276
S1131180809307028091620290916302019690938A
S113119063028093620220910702309108028091D9
S11311A0090290910A022817390740F48091070236
S11311B09091080290930A028093090280910B0295
S11311C0811105C0EAE7F0E0808180648083FF91AB
S11311D0EF919F918F913F912F910F900BBE0F90A4
S11311E00FBE0F901F9018951F920F920FB60F927B
S11311F011240BB60F922F933F934F935F936F93EA
S11312007F938F939F93AF93BF93EF93FF9348E0A4
S113121050E061E083E016DA882331F082E38093C2
S1131220110281E080937002FF91EF91BF91AF9121
S11312309F918F917F916F915F914F913F912F91EA
S11312400F900BBE0F900FBE0F901F9018951F921A
S11312500F920FB60F9211240BB60F922F933F9358
S11312604F935F936F937F938F939F93AF93BF93AA
S1131270EF93FF9344EF51E060E080E0E3D98823EB
S113128051F080910C02882319F010920C0203C0D3
S113129081E080930C02FF91EF91BF91AF919F91F8
S11312A08F917F916F915F914F913F912F910F900B
S11312B00BBE0F900FBE0F901F9018951F920F92A8
S11312C00FB60F9211240BB60F922F933F934F93A7
S11312D05F936F937F938F939F93AF93BF93EF939A
S11312E0FF9344EF51E061E080E0DDD9882359F0B9
S11312F081E080936F0280916002909161029093EB
S11313005D0280935C02FF91EF91BF91AF919F9139
S11313108F917F916F915F914F913F912F910F909A
S11313200BBE0F900FBE0F901F9018951F920F9237
S11313300FB60F9211240BB60F922F933F934F9336
S11313405F936F937F938F939F93AF93BF93EF9329
S1131350FF9380916802882309F44AC09091660241
S113136080916B02981781F00E945201882341F00A
S113137080D888ED99E590930102809300020CC017
S113138010926602D7D808C080916602882321F0A3
S113139080916B0281116DD880916702882341F19D
S11313A0209102023091030280917502909176029D
S11313B02817390728F4109267021092690218C09E
S11313C0209175023091760280910202909103027D
S11313D0821B930B90930302809302020E9493005A
S11313E0882321F081E08093690202C0109269028F
S11313F010926802FF91EF91BF91AF919F918F91ED
S11314007F916F915F914F913F912F910F900BBE00
S11314100F900FBE0F901F901895909172028091BB
S11314201302890F809372028091720284301CF03F
S11314301092720207C08091720288231CF483E028
S113144080937202E09172020E2E000CFF0BE35F98
S1131450FD4F808182B98091110290911302890F0E
S11314608093110280911102823E50F08091130208
S1131470813031F480911102885C809311020DC097
S113148080911102893148F4809113028F3F29F42D
S1131490809111028853809311021092950010924A
S11314A0940081E0089580916B02882381F18091FA
S11314B073029091740299231CF49195819591097A
S11314C00E97ACF410926B021092690233D8E0913B
S11314D06402F0E0E858FD4F80812091110290E011
S11314E0821B910990937402809373021FC0E09150
S11314F06402F0E0E958FD4F80812091110290E0F0
S1131500821B910990937402809373020FC0E0913F
S11315106402F0E0E858FD4F80812091110290E0D0
S1131520821B9109909374028093730280917302D9
S113153090917402853691055CF0809173029091CC
S11315407402885C9109909374028093730211C0B1
S113155080917302909174028C399F4F54F480915E
S113156073029091740288539F4F909374028093F6
S11315707302209173023091740233231CF4319569
S1131580219531098091140290E02817390744F419
S113159080916702811104C081E080936A0202C0D5
S11315A010926A0281E0089580917302909174020E
S11315B0892B91F480917502909176028131974044
S11315C030F01092130210926A0281E0089581E0D3
S11315D080936C0280E0089580917302909174026C
S11315E099231CF49195819591098B359105B4F05B
S11315F0809175029091760281159A4078F4109248
S11316006C0280911302882329F080911302809345
S1131610120218C081E0809313020895209173028E
S11316203091740281E0121613060CF080E02091D0
S1131630730230917402932F991F9927991F891B64
S1131640809312029091120280911302981306C0A3
S1131650809112028093130281E0089580917502B3
S11316609091760281159A4030F080911202809315
S1131670130281E0089581E080936C0280E0089574
S1131680109277021092710280E09AE090937602B1
S113169080937502089580911302811102C0F0DFD6
S11316A07EC080916A02811108C080916C02811110
S11316B004C0809169028823C9F1E0917702F0E0C7
S11316C0EE0FFF1FE452FD4F20813181809175029E
S11316D090917602820F931F909376028093750205
S11316E0809175029091760281309A40A0F0109218
S11316F0770280916902882329F080914D0283301A
S113170008F44DC080E09AE09093760280937502CD
S113171010926C0244C080917702882309F43FC080
S11317208091770281508093770239C0809175024D
S113173090917602813F9240E0F180917502909100
S11317407602E0917702F0E0EE0FFF1FE452FD4FC6
S113175020813181821B930B9093760280937502D2
S11317608091750290917602813F924038F0809189
S113177075029091760281309A4030F080EF92E0C9
S1131780909376028093750290917702809114026F
S1131790981728F4809177028F5F80937702809165
S11317A0750290917602909399008093980081E05D
S11317B0089580E00895E1E9F0E080818860808305
S11317C08FEF9FEF9093990080939800109295006B
S11317D010929400E1E7F0E08081826080830895B4
S11317E0109295001092940020E03AE03093990012
S11317F020939800E1E9F0E080818360808388B3DE
S1131800826088BB30937602209375020895E1E9E3
S1131810F0E080818D7F808380818E7F8083089536
S11318201092DD021092DC0220E03AE081E090E0C8
S113183024C0FC013197EE0FFF1FE452FD4F40819D
S11318405181241B350B40815181445C5F4FFC0165
S1131850EE0FFF1FE452FD4F5183408340815181BD
S1131860413F510548F0FC01EE0FFF1FE452FD4FCC
S113187040EF50E051834083019684309105C8F2D3
S1131880FC01EE0FFF1FE452FD4F40EF50E0518387
S113189040831AC0FC013197EE0FFF1FE452FD4F45
S11318A040815181241B350B203F42E0340710F462
S11318B020EF32E00196FC01EE0FFF1FE452FD4FD2
S11318C040EF50E051834083A901405D5240413FC5
S11318D0524000F72AC0AC014F5F5F4FFC01EE0F8E
S11318E0FF1FE452FD4F60817181261B370B60811D
S11318F071816C33710548F4FA01EE0FFF1FE45255
S1131900FD4F11821082CA0114C0880F991FFC0177
S1131910E452FD4F80819181CC97FA01EE0FFF1FB5
S1131920E452FD4F91838083CA01213F42E0340792
S113193090F680931402089573DF80E09AE0909308
S11319407602809375021092110282E380937802EA
S113195047DF03C081E080936C0280917302909111
S11319607402892BB9F7109270021092110211C0FF
S1131970809173029091740299231CF4919581953E
S113198091094E9734F480917002811102C0109233
S1131990110280917002882359F382E380937802C4
S11319A081E0089597FB072E16F4009406D077FD86
S11319B008D01AD007FC05D03EF4909581959F4F2E
S11319C00895709561957F4F0895A29FB001B39FCC
S11319D0C001A39F700D811D1124911DB29F700D34
S11319E0811D1124911D0895AA1BBB1B51E107C041
S11319F0AA1FBB1FA617B70710F0A61BB70B881F9B
S1131A00991F5A95A9F780959095BC01CD01089529
S1071A10F894FFCF74
S1131A14E457504696FF03FF03FF030101D8B8B40B
S1131A24D432010132422020412020572020532067
S1131A3420430020002F00280029003E004D0020F0
S1131A445000205400440020530042202041202010
S10B1A545720205320204F000D
S9030000FC
